{
  "contractName": "Flyt",
  "abi": [
    {
      "constant": true,
      "inputs": [],
      "name": "owner",
      "outputs": [
        {
          "name": "",
          "type": "address"
        }
      ],
      "payable": false,
      "stateMutability": "view",
      "type": "function"
    },
    {
      "inputs": [],
      "payable": false,
      "stateMutability": "nonpayable",
      "type": "constructor"
    },
    {
      "payable": true,
      "stateMutability": "payable",
      "type": "fallback"
    },
    {
      "anonymous": false,
      "inputs": [
        {
          "indexed": true,
          "name": "id",
          "type": "bytes32"
        }
      ],
      "name": "ChainlinkRequested",
      "type": "event"
    },
    {
      "anonymous": false,
      "inputs": [
        {
          "indexed": true,
          "name": "id",
          "type": "bytes32"
        }
      ],
      "name": "ChainlinkFulfilled",
      "type": "event"
    },
    {
      "anonymous": false,
      "inputs": [
        {
          "indexed": true,
          "name": "id",
          "type": "bytes32"
        }
      ],
      "name": "ChainlinkCancelled",
      "type": "event"
    },
    {
      "constant": false,
      "inputs": [
        {
          "components": [
            {
              "name": "policyId",
              "type": "string"
            },
            {
              "name": "owner",
              "type": "address"
            },
            {
              "name": "products",
              "type": "string[]"
            },
            {
              "components": [
                {
                  "name": "from",
                  "type": "string"
                },
                {
                  "name": "to",
                  "type": "string"
                },
                {
                  "name": "fsCode",
                  "type": "string"
                },
                {
                  "name": "carrierCode",
                  "type": "string"
                },
                {
                  "name": "name",
                  "type": "string"
                },
                {
                  "name": "departureTime",
                  "type": "string"
                },
                {
                  "name": "arrivalTime",
                  "type": "string"
                }
              ],
              "name": "flight",
              "type": "tuple"
            },
            {
              "components": [
                {
                  "name": "paid",
                  "type": "bool"
                },
                {
                  "name": "amount",
                  "type": "uint256"
                },
                {
                  "name": "txHash",
                  "type": "string"
                }
              ],
              "name": "premium",
              "type": "tuple"
            },
            {
              "components": [
                {
                  "name": "paid",
                  "type": "bool"
                },
                {
                  "name": "amount",
                  "type": "uint256"
                },
                {
                  "name": "txHash",
                  "type": "string"
                }
              ],
              "name": "payment",
              "type": "tuple"
            }
          ],
          "name": "_policy",
          "type": "tuple"
        }
      ],
      "name": "createNewPolicy",
      "outputs": [],
      "payable": false,
      "stateMutability": "nonpayable",
      "type": "function"
    },
    {
      "constant": true,
      "inputs": [
        {
          "name": "_policyId",
          "type": "string"
        }
      ],
      "name": "getPolicy",
      "outputs": [
        {
          "components": [
            {
              "name": "policyId",
              "type": "string"
            },
            {
              "name": "owner",
              "type": "address"
            },
            {
              "name": "products",
              "type": "string[]"
            },
            {
              "components": [
                {
                  "name": "from",
                  "type": "string"
                },
                {
                  "name": "to",
                  "type": "string"
                },
                {
                  "name": "fsCode",
                  "type": "string"
                },
                {
                  "name": "carrierCode",
                  "type": "string"
                },
                {
                  "name": "name",
                  "type": "string"
                },
                {
                  "name": "departureTime",
                  "type": "string"
                },
                {
                  "name": "arrivalTime",
                  "type": "string"
                }
              ],
              "name": "flight",
              "type": "tuple"
            },
            {
              "components": [
                {
                  "name": "paid",
                  "type": "bool"
                },
                {
                  "name": "amount",
                  "type": "uint256"
                },
                {
                  "name": "txHash",
                  "type": "string"
                }
              ],
              "name": "premium",
              "type": "tuple"
            },
            {
              "components": [
                {
                  "name": "paid",
                  "type": "bool"
                },
                {
                  "name": "amount",
                  "type": "uint256"
                },
                {
                  "name": "txHash",
                  "type": "string"
                }
              ],
              "name": "payment",
              "type": "tuple"
            }
          ],
          "name": "",
          "type": "tuple"
        }
      ],
      "payable": false,
      "stateMutability": "view",
      "type": "function"
    },
    {
      "constant": false,
      "inputs": [
        {
          "name": "_policyId",
          "type": "string"
        }
      ],
      "name": "getPremium",
      "outputs": [
        {
          "name": "result",
          "type": "uint256"
        }
      ],
      "payable": false,
      "stateMutability": "nonpayable",
      "type": "function"
    },
    {
      "constant": false,
      "inputs": [
        {
          "name": "_requestId",
          "type": "bytes32"
        },
        {
          "name": "_score",
          "type": "uint256"
        }
      ],
      "name": "setAirportRating",
      "outputs": [],
      "payable": false,
      "stateMutability": "nonpayable",
      "type": "function"
    },
    {
      "constant": false,
      "inputs": [
        {
          "name": "_requestId",
          "type": "bytes32"
        },
        {
          "name": "_rating",
          "type": "uint256"
        }
      ],
      "name": "setFlightRating",
      "outputs": [],
      "payable": false,
      "stateMutability": "nonpayable",
      "type": "function"
    },
    {
      "constant": false,
      "inputs": [
        {
          "name": "_policyId",
          "type": "string"
        },
        {
          "name": "amount",
          "type": "uint256"
        }
      ],
      "name": "payPolicy",
      "outputs": [],
      "payable": false,
      "stateMutability": "nonpayable",
      "type": "function"
    }
  ],
  "bytecode": "0x608060405260016004553480156200001657600080fd5b50620000276200006e60201b60201c565b33600660006101000a81548173ffffffffffffffffffffffffffffffffffffffff021916908373ffffffffffffffffffffffffffffffffffffffff160217905550620001eb565b6200011473c89bd4e1632d3a43cb03aaad5262cbe4038bc57173ffffffffffffffffffffffffffffffffffffffff166338cc48316040518163ffffffff1660e01b815260040160206040518083038186803b158015620000cd57600080fd5b505afa158015620000e2573d6000803e3d6000fd5b505050506040513d601f19601f8201168201806040525062000108919081019062000171565b6200011660201b60201c565b565b80600260006101000a81548173ffffffffffffffffffffffffffffffffffffffff021916908373ffffffffffffffffffffffffffffffffffffffff16021790555050565b6000815190506200016b81620001d1565b92915050565b6000602082840312156200018457600080fd5b600062000194848285016200015a565b91505092915050565b6000620001aa82620001b1565b9050919050565b600073ffffffffffffffffffffffffffffffffffffffff82169050919050565b620001dc816200019d565b8114620001e857600080fd5b50565b613d4d80620001fb6000396000f3fe6080604052600436106100705760003560e01c80638da5cb5b1161004e5780638da5cb5b14610101578063c6bf8fc31461012c578063f71f1d9e14610155578063fe3168f61461019257610070565b80633794b04c1461007257806360dd5f901461009b5780636b3b314f146100d8575b005b34801561007e57600080fd5b5061009960048036036100949190810190612e2d565b6101bb565b005b3480156100a757600080fd5b506100c260048036036100bd9190810190612e69565b610349565b6040516100cf919061396e565b60405180910390f35b3480156100e457600080fd5b506100ff60048036036100fa9190810190612eaa565b610dbd565b005b34801561010d57600080fd5b50610116611044565b60405161012391906137f0565b60405180910390f35b34801561013857600080fd5b50610153600480360361014e9190810190612efe565b61106a565b005b34801561016157600080fd5b5061017c60048036036101779190810190612e69565b611323565b6040516101899190613990565b60405180910390f35b34801561019e57600080fd5b506101b960048036036101b49190810190612e2d565b611826565b005b816005600082815260200190815260200160002060009054906101000a900473ffffffffffffffffffffffffffffffffffffffff1673ffffffffffffffffffffffffffffffffffffffff163373ffffffffffffffffffffffffffffffffffffffff161461025d576040517f08c379a00000000000000000000000000000000000000000000000000000000081526004016102549061394e565b60405180910390fd5b6005600082815260200190815260200160002060006101000a81549073ffffffffffffffffffffffffffffffffffffffff0219169055807f7cc135e0cebb02c3480ae5d74d377283180a2601f8f644edf7987b009316c63a60405160405180910390a260016009600a60008681526020019081526020016000206040516102e491906137d9565b908152602001604051809103902060000160016101000a81548160ff021916908315150217905550816009600a600086815260200190815260200160002060405161032f91906137d9565b908152602001604051809103902060020181905550505050565b610351612642565b600660009054906101000a900473ffffffffffffffffffffffffffffffffffffffff1673ffffffffffffffffffffffffffffffffffffffff163373ffffffffffffffffffffffffffffffffffffffff16146103ab57600080fd5b600115156007836040516103bf9190613712565b908152602001604051809103902060009054906101000a900460ff1615151415610c38576103eb612642565b6008836040516103fb9190613712565b90815260200160405180910390206040518060c0016040529081600082018054600181600116156101000203166002900480601f0160208091040260200160405190810160405280929190818152602001828054600181600116156101000203166002900480156104ad5780601f10610482576101008083540402835291602001916104ad565b820191906000526020600020905b81548152906001019060200180831161049057829003601f168201915b505050505081526020016001820160009054906101000a900473ffffffffffffffffffffffffffffffffffffffff1673ffffffffffffffffffffffffffffffffffffffff1673ffffffffffffffffffffffffffffffffffffffff16815260200160028201805480602002602001604051908101604052809291908181526020016000905b828210156105ed578382906000526020600020018054600181600116156101000203166002900480601f0160208091040260200160405190810160405280929190818152602001828054600181600116156101000203166002900480156105d95780601f106105ae576101008083540402835291602001916105d9565b820191906000526020600020905b8154815290600101906020018083116105bc57829003601f168201915b505050505081526020019060010190610531565b505050508152602001600382016040518060e0016040529081600082018054600181600116156101000203166002900480601f01602080910402602001604051908101604052809291908181526020018280546001816001161561010002031660029004801561069e5780601f106106735761010080835404028352916020019161069e565b820191906000526020600020905b81548152906001019060200180831161068157829003601f168201915b50505050508152602001600182018054600181600116156101000203166002900480601f0160208091040260200160405190810160405280929190818152602001828054600181600116156101000203166002900480156107405780601f1061071557610100808354040283529160200191610740565b820191906000526020600020905b81548152906001019060200180831161072357829003601f168201915b50505050508152602001600282018054600181600116156101000203166002900480601f0160208091040260200160405190810160405280929190818152602001828054600181600116156101000203166002900480156107e25780601f106107b7576101008083540402835291602001916107e2565b820191906000526020600020905b8154815290600101906020018083116107c557829003601f168201915b50505050508152602001600382018054600181600116156101000203166002900480601f0160208091040260200160405190810160405280929190818152602001828054600181600116156101000203166002900480156108845780601f1061085957610100808354040283529160200191610884565b820191906000526020600020905b81548152906001019060200180831161086757829003601f168201915b50505050508152602001600482018054600181600116156101000203166002900480601f0160208091040260200160405190810160405280929190818152602001828054600181600116156101000203166002900480156109265780601f106108fb57610100808354040283529160200191610926565b820191906000526020600020905b81548152906001019060200180831161090957829003601f168201915b50505050508152602001600582018054600181600116156101000203166002900480601f0160208091040260200160405190810160405280929190818152602001828054600181600116156101000203166002900480156109c85780601f1061099d576101008083540402835291602001916109c8565b820191906000526020600020905b8154815290600101906020018083116109ab57829003601f168201915b50505050508152602001600682018054600181600116156101000203166002900480601f016020809104026020016040519081016040528092919081815260200182805460018160011615610100020316600290048015610a6a5780601f10610a3f57610100808354040283529160200191610a6a565b820191906000526020600020905b815481529060010190602001808311610a4d57829003601f168201915b5050505050815250508152602001600a82016040518060600160405290816000820160009054906101000a900460ff1615151515815260200160018201548152602001600282018054600181600116156101000203166002900480601f016020809104026020016040519081016040528092919081815260200182805460018160011615610100020316600290048015610b455780601f10610b1a57610100808354040283529160200191610b45565b820191906000526020600020905b815481529060010190602001808311610b2857829003601f168201915b5050505050815250508152602001600d82016040518060600160405290816000820160009054906101000a900460ff1615151515815260200160018201548152602001600282018054600181600116156101000203166002900480601f016020809104026020016040519081016040528092919081815260200182805460018160011615610100020316600290048015610c205780601f10610bf557610100808354040283529160200191610c20565b820191906000526020600020905b815481529060010190602001808311610c0357829003601f168201915b50505050508152505081525050905080915050610db8565b6060610c42612642565b6040518060c001604052806040518060400160405280600181526020017f30000000000000000000000000000000000000000000000000000000000000008152508152602001600073ffffffffffffffffffffffffffffffffffffffff1681526020018381526020016040518060e0016040528060405180602001604052806000815250815260200160405180602001604052806000815250815260200160405180602001604052806000815250815260200160405180602001604052806000815250815260200160405180602001604052806000815250815260200160405180602001604052806000815250815260200160405180602001604052806000815250815250815260200160405180606001604052806000151581526020016000815260200160405180602001604052806000815250815250815260200160405180606001604052806000151581526020016000815260200160405180602001604052806000815250815250815250905080925050505b919050565b600660009054906101000a900473ffffffffffffffffffffffffffffffffffffffff1673ffffffffffffffffffffffffffffffffffffffff163373ffffffffffffffffffffffffffffffffffffffff1614610e1757600080fd5b60011515600783604051610e2b9190613712565b908152602001604051809103902060009054906101000a900460ff16151514610e5357600080fd5b600073ffffffffffffffffffffffffffffffffffffffff16600883604051610e7b9190613712565b908152602001604051809103902060010160009054906101000a900473ffffffffffffffffffffffffffffffffffffffff1673ffffffffffffffffffffffffffffffffffffffff161415610ece57600080fd5b60011515600883604051610ee29190613712565b9081526020016040518091039020600a0160000160009054906101000a900460ff16151514610f1057600080fd5b60001515600883604051610f249190613712565b9081526020016040518091039020600d0160000160009054906101000a900460ff16151514610f5257600080fd5b600882604051610f629190613712565b908152602001604051809103902060010160009054906101000a900473ffffffffffffffffffffffffffffffffffffffff1673ffffffffffffffffffffffffffffffffffffffff166108fc829081150290604051600060405180830381858888f19350505050158015610fd9573d6000803e3d6000fd5b506001600883604051610fec9190613712565b9081526020016040518091039020600d0160000160006101000a81548160ff021916908315150217905550806008836040516110289190613712565b9081526020016040518091039020600d01600101819055505050565b600660009054906101000a900473ffffffffffffffffffffffffffffffffffffffff1681565b600660009054906101000a900473ffffffffffffffffffffffffffffffffffffffff1673ffffffffffffffffffffffffffffffffffffffff163373ffffffffffffffffffffffffffffffffffffffff16146110c457600080fd5b80600882600001516040516110d991906136fb565b908152602001604051809103902060008201518160000190805190602001906111039291906126a1565b5060208201518160010160006101000a81548173ffffffffffffffffffffffffffffffffffffffff021916908373ffffffffffffffffffffffffffffffffffffffff1602179055506040820151816002019080519060200190611167929190612721565b50606082015181600301600082015181600001908051906020019061118d9291906126a1565b5060208201518160010190805190602001906111aa9291906126a1565b5060408201518160020190805190602001906111c79291906126a1565b5060608201518160030190805190602001906111e49291906126a1565b5060808201518160040190805190602001906112019291906126a1565b5060a082015181600501908051906020019061121e9291906126a1565b5060c082015181600601908051906020019061123b9291906126a1565b505050608082015181600a0160008201518160000160006101000a81548160ff02191690831515021790555060208201518160010155604082015181600201908051906020019061128d9291906126a1565b50505060a082015181600d0160008201518160000160006101000a81548160ff0219169083151502179055506020820151816001015560408201518160020190805190602001906112df9291906126a1565b5050509050506001600782600001516040516112fb91906136fb565b908152602001604051809103902060006101000a81548160ff02191690831515021790555050565b6000600115156007836040516113399190613712565b908152602001604051809103902060009054906101000a900460ff1615151461136157600080fd5b600015156009836040516113759190613712565b908152602001604051809103902060000160009054906101000a900460ff161515141561146457611462826008846040516113b09190613712565b90815260200160405180910390206003016000018054600181600116156101000203166002900480601f0160208091040260200160405190810160405280929190818152602001828054600181600116156101000203166002900480156114585780601f1061142d57610100808354040283529160200191611458565b820191906000526020600020905b81548152906001019060200180831161143b57829003601f168201915b50505050506119b4565b505b600015156009836040516114789190613712565b908152602001604051809103902060000160019054906101000a900460ff16151514156116e1576116df826008846040516114b39190613712565b90815260200160405180910390206003016000018054600181600116156101000203166002900480601f01602080910402602001604051908101604052809291908181526020018280546001816001161561010002031660029004801561155b5780601f106115305761010080835404028352916020019161155b565b820191906000526020600020905b81548152906001019060200180831161153e57829003601f168201915b50505050506008856040516115709190613712565b90815260200160405180910390206003016002018054600181600116156101000203166002900480601f0160208091040260200160405190810160405280929190818152602001828054600181600116156101000203166002900480156116185780601f106115ed57610100808354040283529160200191611618565b820191906000526020600020905b8154815290600101906020018083116115fb57829003601f168201915b505050505060088660405161162d9190613712565b90815260200160405180910390206003016003018054600181600116156101000203166002900480601f0160208091040260200160405190810160405280929190818152602001828054600181600116156101000203166002900480156116d55780601f106116aa576101008083540402835291602001916116d5565b820191906000526020600020905b8154815290600101906020018083116116b857829003601f168201915b5050505050611b39565b505b60009050600115156009836040516116f99190613712565b908152602001604051809103902060000160009054906101000a900460ff1615151480156117595750600115156009836040516117369190613712565b908152602001604051809103902060000160019054906101000a900460ff161515145b1561182157600061179560076009856040516117759190613712565b908152602001604051809103902060020154611d0f90919063ffffffff16565b905060006117ce60036009866040516117ae9190613712565b908152602001604051809103902060010154611d0f90919063ffffffff16565b90506117f6600a6117e88385611d7f90919063ffffffff16565b611dd490919063ffffffff16565b9250826009856040516118099190613712565b90815260200160405180910390206003018190555050505b919050565b816005600082815260200190815260200160002060009054906101000a900473ffffffffffffffffffffffffffffffffffffffff1673ffffffffffffffffffffffffffffffffffffffff163373ffffffffffffffffffffffffffffffffffffffff16146118c8576040517f08c379a00000000000000000000000000000000000000000000000000000000081526004016118bf9061394e565b60405180910390fd5b6005600082815260200190815260200160002060006101000a81549073ffffffffffffffffffffffffffffffffffffffff0219169055807f7cc135e0cebb02c3480ae5d74d377283180a2601f8f644edf7987b009316c63a60405160405180910390a260016009600a600086815260200190815260200160002060405161194f91906137d9565b908152602001604051809103902060000160006101000a81548160ff021916908315150217905550816009600a600086815260200190815260200160002060405161199a91906137d9565b908152602001604051809103902060010181905550505050565b60006119be612781565b6119f07f33636666306133353234363934666638383334626461396366396337373961313063fe3168f660e01b611e30565b9050611a756040518060400160405280600381526020017f6765740000000000000000000000000000000000000000000000000000000000815250604051806060016040528060318152602001613cb36031913985604051602001611a5692919061374b565b60405160208183030381529060405283611e619092919063ffffffff16565b611ade6040518060400160405280600481526020017f706174680000000000000000000000000000000000000000000000000000000081525084604051602001611abf9190613729565b60405160208183030381529060405283611e619092919063ffffffff16565b611b0873c99b3d447826532722e41bc36e644ba3479e436582670de0b6b3a7640000600102611e94565b915083600a60008481526020019081526020016000209080519060200190611b319291906127ee565b505092915050565b6000611b43612781565b611b757f336366663061333532343639346666383833346264613963663963373739613130633794b04c60e01b611e30565b9050611bfe6040518060400160405280600381526020017f6765740000000000000000000000000000000000000000000000000000000000815250604051806060016040528060308152602001613ce460309139878787604051602001611bdf949392919061377a565b60405160208183030381529060405283611e619092919063ffffffff16565b611c676040518060400160405280600481526020017f706174680000000000000000000000000000000000000000000000000000000081525086604051602001611c489190613729565b60405160208183030381529060405283611e619092919063ffffffff16565b611cb26040518060400160405280600581526020017f74696d65730000000000000000000000000000000000000000000000000000008152506014836120679092919063ffffffff16565b611cdc73c99b3d447826532722e41bc36e644ba3479e436582670de0b6b3a7640000600102611e94565b915085600a60008481526020019081526020016000209080519060200190611d059291906127ee565b5050949350505050565b600080831415611d225760009050611d79565b6000828402905082848281611d3357fe5b0414611d74576040517f08c379a0000000000000000000000000000000000000000000000000000000008152600401611d6b9061392e565b60405180910390fd5b809150505b92915050565b600080828401905083811015611dca576040517f08c379a0000000000000000000000000000000000000000000000000000000008152600401611dc1906138ce565b60405180910390fd5b8091505092915050565b6000808211611e18576040517f08c379a0000000000000000000000000000000000000000000000000000000008152600401611e0f9061390e565b60405180910390fd5b6000828481611e2357fe5b0490508091505092915050565b611e38612781565b611e40612781565b611e578585858461209a909392919063ffffffff16565b9150509392505050565b611e7882846080015161214a90919063ffffffff16565b611e8f81846080015161214a90919063ffffffff16565b505050565b6000308360000151600454604051602001611eb1939291906136be565b604051602081830303815290604052805190602001209050600454836060018181525050836005600083815260200190815260200160002060006101000a81548173ffffffffffffffffffffffffffffffffffffffff021916908373ffffffffffffffffffffffffffffffffffffffff160217905550807fb5e6e01e79f91267dc17b4e6314d5d4d03593d2ceee0fbb452b750bd70ea5af960405160405180910390a2600260009054906101000a900473ffffffffffffffffffffffffffffffffffffffff1673ffffffffffffffffffffffffffffffffffffffff16634000aea08584611f9d8761216f565b6040518463ffffffff1660e01b8152600401611fbb93929190613890565b602060405180830381600087803b158015611fd557600080fd5b505af1158015611fe9573d6000803e3d6000fd5b505050506040513d601f19601f8201168201806040525061200d9190810190612e04565b61204c576040517f08c379a0000000000000000000000000000000000000000000000000000000008152600401612043906138ee565b60405180910390fd5b60016004600082825401925050819055508090509392505050565b61207e82846080015161214a90919063ffffffff16565b61209581846080015161225190919063ffffffff16565b505050565b6120a2612781565b6120b2856080015161010061229d565b508385600001818152505082856020019073ffffffffffffffffffffffffffffffffffffffff16908173ffffffffffffffffffffffffffffffffffffffff16815250508185604001907bffffffffffffffffffffffffffffffffffffffffffffffffffffffff191690817bffffffffffffffffffffffffffffffffffffffffffffffffffffffff191681525050849050949350505050565b61215782600383516122f1565b61216a818361243690919063ffffffff16565b505050565b6060600360009054906101000a900473ffffffffffffffffffffffffffffffffffffffff1673ffffffffffffffffffffffffffffffffffffffff166340429946905060e01b600080846000015185602001518660400151876060015160018960800151600001516040516024016121ed98979695949392919061380b565b604051602081830303815290604052907bffffffffffffffffffffffffffffffffffffffffffffffffffffffff19166020820180517bffffffffffffffffffffffffffffffffffffffffffffffffffffffff83818316178352505050509050919050565b6000811261226a57612265826000836122f1565b612299565b612298826001837fffffffffffffffffffffffffffffffffffffffffffffffffffffffffffffffff036122f1565b5b5050565b6122a561286e565b6000602083816122b157fe5b06146122ca57602082816122c157fe5b06602003820191505b81836020018181525050604051808452600081528281016020016040525082905092915050565b6017811161231e576123188160058460ff16901b60ff16178461245890919063ffffffff16565b50612431565b60ff811161236057612343601860058460ff16901b178461245890919063ffffffff16565b5061235a816001856124789092919063ffffffff16565b50612430565b61ffff81116123a357612386601960058460ff16901b178461245890919063ffffffff16565b5061239d816002856124789092919063ffffffff16565b5061242f565b63ffffffff81116123e8576123cb601a60058460ff16901b178461245890919063ffffffff16565b506123e2816004856124789092919063ffffffff16565b5061242e565b67ffffffffffffffff811161242d57612414601b60058460ff16901b178461245890919063ffffffff16565b5061242b816008856124789092919063ffffffff16565b505b5b5b5b5b505050565b61243e61286e565b6124508384600001515184855161249a565b905092915050565b61246061286e565b6124708384600001515184612553565b905092915050565b61248061286e565b6124918485600001515185856125a1565b90509392505050565b6124a261286e565b82518211156124b057600080fd5b846020015182850111156124db576124da8560026124d48860200151888701612602565b0261261e565b5b6000808651805187602083010193508088870111156124fa5787860182525b60208701925050505b602084106125265780518252602082019150602081019050602084039350612503565b60006001856020036101000a03905080198251168184511681811785525050879350505050949350505050565b61255b61286e565b836020015183106125785761257784600286602001510261261e565b5b8351805160208583010184815381861415612594576001820183525b5050508390509392505050565b6125a961286e565b846020015184830111156125c7576125c68560028685010261261e565b5b60006001836101000a03905085518386820101858319825116178152815185880111156125f45784870182525b505085915050949350505050565b60008183111561261457829050612618565b8190505b92915050565b606082600001519050612631838361229d565b5061263c8382612436565b50505050565b60405180610200016040528060608152602001600073ffffffffffffffffffffffffffffffffffffffff16815260200160608152602001612681612888565b815260200161268e6128c5565b815260200161269b6128c5565b81525090565b828054600181600116156101000203166002900490600052602060002090601f016020900481019282601f106126e257805160ff1916838001178555612710565b82800160010185558215612710579182015b8281111561270f5782518255916020019190600101906126f4565b5b50905061271d91906128e8565b5090565b828054828255906000526020600020908101928215612770579160200282015b8281111561276f57825182908051906020019061275f9291906126a1565b5091602001919060010190612741565b5b50905061277d919061290d565b5090565b6040518060c0016040528060008019168152602001600073ffffffffffffffffffffffffffffffffffffffff16815260200160007bffffffffffffffffffffffffffffffffffffffffffffffffffffffff19168152602001600081526020016127e8612939565b81525090565b828054600181600116156101000203166002900490600052602060002090601f016020900481019282601f1061282f57805160ff191683800117855561285d565b8280016001018555821561285d579182015b8281111561285c578251825591602001919060010190612841565b5b50905061286a91906128e8565b5090565b604051806040016040528060608152602001600081525090565b6040518060e00160405280606081526020016060815260200160608152602001606081526020016060815260200160608152602001606081525090565b604051806060016040528060001515815260200160008152602001606081525090565b61290a91905b808211156129065760008160009055506001016128ee565b5090565b90565b61293691905b8082111561293257600081816129299190612953565b50600101612913565b5090565b90565b604051806040016040528060608152602001600081525090565b50805460018160011615610100020316600290046000825580601f106129795750612998565b601f01602090049060005260206000209081019061299791906128e8565b5b50565b6000813590506129aa81613c56565b92915050565b600082601f8301126129c157600080fd5b81356129d46129cf826139d8565b6139ab565b9150818183526020840193506020810190508360005b83811015612a1a5781358601612a008882612a63565b8452602084019350602083019250506001810190506129ea565b5050505092915050565b600081359050612a3381613c6d565b92915050565b600081519050612a4881613c6d565b92915050565b600081359050612a5d81613c84565b92915050565b600082601f830112612a7457600080fd5b8135612a87612a8282613a00565b6139ab565b91508082526020830160208301858383011115612aa357600080fd5b612aae838284613bbe565b50505092915050565b600082601f830112612ac857600080fd5b8135612adb612ad682613a2c565b6139ab565b91508082526020830160208301858383011115612af757600080fd5b612b02838284613bbe565b50505092915050565b600060e08284031215612b1d57600080fd5b612b2760e06139ab565b9050600082013567ffffffffffffffff811115612b4357600080fd5b612b4f84828501612a63565b600083015250602082013567ffffffffffffffff811115612b6f57600080fd5b612b7b84828501612a63565b602083015250604082013567ffffffffffffffff811115612b9b57600080fd5b612ba784828501612a63565b604083015250606082013567ffffffffffffffff811115612bc757600080fd5b612bd384828501612a63565b606083015250608082013567ffffffffffffffff811115612bf357600080fd5b612bff84828501612a63565b60808301525060a082013567ffffffffffffffff811115612c1f57600080fd5b612c2b84828501612a63565b60a08301525060c082013567ffffffffffffffff811115612c4b57600080fd5b612c5784828501612a63565b60c08301525092915050565b600060608284031215612c7557600080fd5b612c7f60606139ab565b90506000612c8f84828501612a24565b6000830152506020612ca384828501612def565b602083015250604082013567ffffffffffffffff811115612cc357600080fd5b612ccf84828501612a63565b60408301525092915050565b600060c08284031215612ced57600080fd5b612cf760c06139ab565b9050600082013567ffffffffffffffff811115612d1357600080fd5b612d1f84828501612a63565b6000830152506020612d338482850161299b565b602083015250604082013567ffffffffffffffff811115612d5357600080fd5b612d5f848285016129b0565b604083015250606082013567ffffffffffffffff811115612d7f57600080fd5b612d8b84828501612b0b565b606083015250608082013567ffffffffffffffff811115612dab57600080fd5b612db784828501612c63565b60808301525060a082013567ffffffffffffffff811115612dd757600080fd5b612de384828501612c63565b60a08301525092915050565b600081359050612dfe81613c9b565b92915050565b600060208284031215612e1657600080fd5b6000612e2484828501612a39565b91505092915050565b60008060408385031215612e4057600080fd5b6000612e4e85828601612a4e565b9250506020612e5f85828601612def565b9150509250929050565b600060208284031215612e7b57600080fd5b600082013567ffffffffffffffff811115612e9557600080fd5b612ea184828501612ab7565b91505092915050565b60008060408385031215612ebd57600080fd5b600083013567ffffffffffffffff811115612ed757600080fd5b612ee385828601612ab7565b9250506020612ef485828601612def565b9150509250929050565b600060208284031215612f1057600080fd5b600082013567ffffffffffffffff811115612f2a57600080fd5b612f3684828501612cdb565b91505092915050565b6000612f4b83836130e4565b905092915050565b612f5c81613b1c565b82525050565b612f6b81613b0a565b82525050565b6000612f7c82613a77565b612f868185613abb565b935083602082028501612f9885613a58565b8060005b85811015612fd45784840389528151612fb58582612f3f565b9450612fc083613aae565b925060208a01995050600181019050612f9c565b50829750879550505050505092915050565b612fef81613b2e565b82525050565b612ffe81613b3a565b82525050565b61301561301082613b3a565b613c12565b82525050565b61302481613b44565b82525050565b600061303582613a8d565b61303f8185613acc565b935061304f818560208601613bcd565b61305881613c38565b840191505092915050565b600061306e82613a82565b6130788185613acc565b9350613088818560208601613bcd565b61309181613c38565b840191505092915050565b6130ad6130a882613b9a565b613c00565b82525050565b60006130be82613aa3565b6130c88185613aff565b93506130d8818560208601613bcd565b80840191505092915050565b60006130ef82613a98565b6130f98185613add565b9350613109818560208601613bcd565b61311281613c38565b840191505092915050565b600061312882613a98565b6131328185613aff565b9350613142818560208601613bcd565b80840191505092915050565b60008154600181166000811461316b5760018114613190576131d4565b607f600283041661317c8187613aff565b955060ff19831686528086019350506131d4565b6002820461319e8187613aff565b95506131a985613a65565b60005b828110156131cb578154818901526001820191506020810190506131ac565b82880195505050505b505092915050565b60006131e9600883613aff565b91507f266673436f64653d0000000000000000000000000000000000000000000000006000830152600882019050919050565b6000613229601b83613aee565b91507f536166654d6174683a206164646974696f6e206f766572666c6f7700000000006000830152602082019050919050565b6000613269602383613aee565b91507f756e61626c6520746f207472616e73666572416e6443616c6c20746f206f726160008301527f636c6500000000000000000000000000000000000000000000000000000000006020830152604082019050919050565b60006132cf601a83613aee565b91507f536166654d6174683a206469766973696f6e206279207a65726f0000000000006000830152602082019050919050565b600061330f600983613aff565b91507f3f616972706f72743d00000000000000000000000000000000000000000000006000830152600982019050919050565b600061334f600683613aff565b91507f3f66726f6d3d00000000000000000000000000000000000000000000000000006000830152600682019050919050565b600061338f602183613aee565b91507f536166654d6174683a206d756c7469706c69636174696f6e206f766572666c6f60008301527f77000000000000000000000000000000000000000000000000000000000000006020830152604082019050919050565b60006133f5602883613aee565b91507f536f75726365206d75737420626520746865206f7261636c65206f662074686560008301527f20726571756573740000000000000000000000000000000000000000000000006020830152604082019050919050565b600061345b600c83613aff565b91507f2663617272696572436f646500000000000000000000000000000000000000006000830152600c82019050919050565b600061349b600683613aff565b91507f2e73636f726500000000000000000000000000000000000000000000000000006000830152600682019050919050565b600060e08301600083015184820360008601526134eb82826130e4565b9150506020830151848203602086015261350582826130e4565b9150506040830151848203604086015261351f82826130e4565b9150506060830151848203606086015261353982826130e4565b9150506080830151848203608086015261355382826130e4565b91505060a083015184820360a086015261356d82826130e4565b91505060c083015184820360c086015261358782826130e4565b9150508091505092915050565b60006060830160008301516135ac6000860182612fe6565b5060208301516135bf6020860182613689565b50604083015184820360408601526135d782826130e4565b9150508091505092915050565b600060c083016000830151848203600086015261360182826130e4565b91505060208301516136166020860182612f53565b506040830151848203604086015261362e8282612f71565b9150506060830151848203606086015261364882826134ce565b915050608083015184820360808601526136628282613594565b91505060a083015184820360a086015261367c8282613594565b9150508091505092915050565b61369281613b90565b82525050565b6136a181613b90565b82525050565b6136b86136b382613b90565b613c2e565b82525050565b60006136ca828661309c565b6014820191506136da8285613004565b6020820191506136ea82846136a7565b602082019150819050949350505050565b6000613707828461311d565b915081905092915050565b600061371e82846130b3565b915081905092915050565b600061373582846130b3565b91506137408261348e565b915081905092915050565b6000613757828561311d565b915061376282613302565b915061376e82846130b3565b91508190509392505050565b6000613786828761311d565b915061379182613342565b915061379d82866130b3565b91506137a8826131dc565b91506137b482856130b3565b91506137bf8261344e565b91506137cb82846130b3565b915081905095945050505050565b60006137e5828461314e565b915081905092915050565b60006020820190506138056000830184612f62565b92915050565b600061010082019050613821600083018b612f62565b61382e602083018a613698565b61383b6040830189612ff5565b6138486060830188612f62565b613855608083018761301b565b61386260a0830186613698565b61386f60c0830185613698565b81810360e08301526138818184613063565b90509998505050505050505050565b60006060820190506138a56000830186612f62565b6138b26020830185613698565b81810360408301526138c4818461302a565b9050949350505050565b600060208201905081810360008301526138e78161321c565b9050919050565b600060208201905081810360008301526139078161325c565b9050919050565b60006020820190508181036000830152613927816132c2565b9050919050565b6000602082019050818103600083015261394781613382565b9050919050565b60006020820190508181036000830152613967816133e8565b9050919050565b6000602082019050818103600083015261398881846135e4565b905092915050565b60006020820190506139a56000830184613698565b92915050565b6000604051905081810181811067ffffffffffffffff821117156139ce57600080fd5b8060405250919050565b600067ffffffffffffffff8211156139ef57600080fd5b602082029050602081019050919050565b600067ffffffffffffffff821115613a1757600080fd5b601f19601f8301169050602081019050919050565b600067ffffffffffffffff821115613a4357600080fd5b601f19601f8301169050602081019050919050565b6000602082019050919050565b60008160005260206000209050919050565b600081519050919050565b600081519050919050565b600081519050919050565b600081519050919050565b600081519050919050565b6000602082019050919050565b600082825260208201905092915050565b600082825260208201905092915050565b600082825260208201905092915050565b600082825260208201905092915050565b600081905092915050565b6000613b1582613b70565b9050919050565b6000613b2782613b70565b9050919050565b60008115159050919050565b6000819050919050565b60007fffffffff0000000000000000000000000000000000000000000000000000000082169050919050565b600073ffffffffffffffffffffffffffffffffffffffff82169050919050565b6000819050919050565b6000613ba582613bac565b9050919050565b6000613bb782613b70565b9050919050565b82818337600083830152505050565b60005b83811015613beb578082015181840152602081019050613bd0565b83811115613bfa576000848401525b50505050565b6000613c0b82613c1c565b9050919050565b6000819050919050565b6000613c2782613c49565b9050919050565b6000819050919050565b6000601f19601f8301169050919050565b60008160601b9050919050565b613c5f81613b1c565b8114613c6a57600080fd5b50565b613c7681613b2e565b8114613c8157600080fd5b50565b613c8d81613b3a565b8114613c9857600080fd5b50565b613ca481613b90565b8114613caf57600080fd5b5056fe68747470733a2f2f666c79742e726f62696e74686f6d6173323539312e6e6f772e73682f616972706f72742f64656c617968747470733a2f2f666c79742e726f62696e74686f6d6173323539312e6e6f772e73682f666c696768742f7374617473a265627a7a72305820f082adab61c85b8ccba5797bc64dfefaa15af301701a92ae6974ed0be76f59136c6578706572696d656e74616cf50037",
  "source": "pragma solidity >=0.5.0 <0.6.0;\npragma experimental ABIEncoderV2;\n\nimport \"chainlink/v0.5/contracts/ChainlinkClient.sol\";\nimport {\n    SafeMath as SafeMath_Chainlink\n} from \"chainlink/v0.5/contracts/vendor/SafeMath.sol\";\n\ncontract Flyt is ChainlinkClient {\n    using SafeMath_Chainlink for uint256;\n\n    bytes32 private constant JOB_ID = \"3cff0a3524694ff8834bda9cf9c779a1\";\n    address private constant ORACLE = 0xc99B3D447826532722E41bc36e644ba3479E4365;\n\n    string private constant GET_AIRPORT_DELAY_URL = \"https://flyt.robinthomas2591.now.sh/airport/delay\";\n    string private constant GET_FLIGHT_RATING_URL = \"https://flyt.robinthomas2591.now.sh/flight/stats\";\n\n    address public owner;\n\n    struct Flight {\n        string from;\n        string to;\n        string fsCode;\n        string carrierCode;\n        string name;\n        string departureTime;\n        string arrivalTime;\n    }\n\n    struct Payment {\n        bool paid;\n        uint256 amount;\n        string txHash;\n    }\n\n    struct Policy {\n        string policyId;\n        address payable owner;\n        string[] products;\n        Flight flight;\n        Payment premium;\n        Payment payment;\n    }\n\n    struct Premium {\n        bool hasAirportRating;\n        bool hasFlightRating;\n        uint256 airportRating;\n        uint256 flightRating;\n        uint256 premium;\n    }\n\n    mapping(string => bool) isPolicy;\n    mapping(string => Policy) policies;\n    mapping(string => Premium) premiums;\n    mapping(bytes32 => string) requests;\n\n    constructor() public {\n        setPublicChainlinkToken();\n        owner = msg.sender; // set the owner of the contract.\n    }\n\n    modifier _ownerOnly() {\n        require(msg.sender == owner);\n        _;\n    }\n\n    // Create a new policy.\n    function createNewPolicy(Policy memory _policy) public _ownerOnly {\n        policies[_policy.policyId] = _policy;\n        isPolicy[_policy.policyId] = true;\n    }\n\n    // Get policy details.\n    function getPolicy(string memory _policyId)\n        public\n        view\n        _ownerOnly\n        returns (Policy memory)\n    {\n        if (isPolicy[_policyId] == true) {\n            // Policy exists.\n            Policy memory _policy = policies[_policyId];\n            return _policy;\n        } else {\n            // Policy doesnt exist.\n            // Return a dummy.\n            string[] memory products;\n            Policy memory _policy = Policy(\n                \"0\",\n                address(0),\n                products,\n                Flight(\"\", \"\", \"\", \"\", \"\", \"\", \"\"),\n                Payment(false, 0, \"\"),\n                Payment(false, 0, \"\")\n            );\n            return _policy;\n        }\n    }\n\n    // Calculate the policy premium.\n    function getPremium(string memory _policyId)\n        public\n        returns (uint256 result)\n    {\n        require(isPolicy[_policyId] == true);\n\n        // Send the chainlink requests to the oracles if not sent.\n        if (premiums[_policyId].hasAirportRating == false) {\n            getAirportRating(_policyId, policies[_policyId].flight.from);\n        }\n        if (premiums[_policyId].hasFlightRating == false) {\n            getFlightRating(\n                _policyId,\n                policies[_policyId].flight.from,\n                policies[_policyId].flight.fsCode,\n                policies[_policyId].flight.carrierCode\n            );\n        }\n\n        // Calculate the premium if chainlink requests have all returned.\n        // Its done using weighted average.\n        result = 0;\n        if (\n            premiums[_policyId].hasAirportRating == true &&\n            premiums[_policyId].hasFlightRating == true\n        ) {\n            // Calculate the value based on weighted average.\n            // Flight Rating (based on historical performance) is given 70% weightage.\n            // Departure Airport Rating is given 30% weightage.\n            uint256 a = premiums[_policyId].flightRating.mul(7);\n            uint256 f = premiums[_policyId].airportRating.mul(3);\n            result = a.add(f).div(10);\n\n            premiums[_policyId].premium = result;\n        }\n    }\n\n    function getAirportRating(string memory _policyId, string memory _airport)\n        private\n        returns (bytes32 requestId)\n    {\n        // newRequest takes a JobID, a callback address, and callback function as input.\n        Chainlink.Request memory req = buildChainlinkRequest(\n            JOB_ID,\n            address(this),\n            this.setAirportRating.selector\n        );\n\n        // Adds a URL with the key \"get\" to the request parameters.\n        req.add(\n            \"get\",\n            string(\n                abi.encodePacked(GET_AIRPORT_DELAY_URL, \"?airport=\", _airport)\n            )\n        );\n\n        // Adds a dot-delimited JSON path with the key \"path\" to the request parameters.\n        req.add(\"path\", string(abi.encodePacked(_airport, \".score\")));\n\n        // Sends the request with 1 LINK to the oracle contract\n        requestId = sendChainlinkRequestTo(ORACLE, req, 1 * LINK);\n\n        requests[requestId] = _policyId;\n    }\n\n    function setAirportRating(bytes32 _requestId, uint256 _score)\n        public\n        recordChainlinkFulfillment(_requestId)\n    {\n        // Use recordChainlinkFulfillment to ensure only the requesting oracle can fulfill\n        premiums[requests[_requestId]].hasAirportRating = true;\n        premiums[requests[_requestId]].airportRating = _score;\n    }\n\n    function getFlightRating(\n        string memory _policyId,\n        string memory _from,\n        string memory _fsCode,\n        string memory _carrierCode\n    ) private returns (bytes32 requestId) {\n        // newRequest takes a JobID, a callback address, and callback function as input.\n        Chainlink.Request memory req = buildChainlinkRequest(\n            JOB_ID,\n            address(this),\n            this.setFlightRating.selector\n        );\n        // Adds a URL with the key \"get\" to the request parameters.\n        req.add(\n            \"get\",\n            string(\n                abi.encodePacked(\n                    GET_FLIGHT_RATING_URL,\n                    \"?from=\",\n                    _from,\n                    \"&fsCode=\",\n                    _fsCode,\n                    \"&carrierCode\",\n                    _carrierCode\n                )\n            )\n        );\n        // Adds a dot-delimited JSON path with the key \"path\" to the request parameters.\n        req.add(\"path\", string(abi.encodePacked(_from, \".score\")));\n        // Adds an integer with the key \"times\" to the request parameters\n        req.addInt(\"times\", 20);\n        // Sends the request with 1 LINK to the oracle contract\n        requestId = sendChainlinkRequestTo(ORACLE, req, 1 * LINK);\n\n        requests[requestId] = _policyId;\n    }\n\n    function setFlightRating(bytes32 _requestId, uint256 _rating)\n        public\n        recordChainlinkFulfillment(_requestId)\n    {\n        // Use recordChainlinkFulfillment to ensure only the requesting oracle can fulfill\n        premiums[requests[_requestId]].hasFlightRating = true;\n        premiums[requests[_requestId]].flightRating = _rating;\n    }\n\n    function payPolicy(string memory _policyId, uint256 amount)\n        public\n        _ownerOnly\n    {\n        require(isPolicy[_policyId] == true);\n        require(policies[_policyId].owner != address(0));\n        require(policies[_policyId].premium.paid == true);\n        require(policies[_policyId].payment.paid == false);\n\n        policies[_policyId].owner.transfer(amount);\n\n        policies[_policyId].payment.paid = true;\n        policies[_policyId].payment.amount = amount;\n    }\n\n    // To be able to receive ETH.\n    function() external payable {}\n\n}\n",
  "sourcePath": "/home/robin/Workspace/flight/src/truffle/contracts/Flyt.sol",
  "compiler": {
    "name": "solc",
    "version": "0.5.8+commit.23d335f2.Emscripten.clang"
  },
  "schemaVersion": "3.0.16",
  "updatedAt": "2019-10-28T02:26:09.754Z",
  "devdoc": {
    "methods": {}
  },
  "userdoc": {
    "methods": {}
  }
}