{
  "contractName": "Flyt",
  "abi": [
    {
      "payable": true,
      "stateMutability": "payable",
      "type": "fallback"
    },
    {
      "constant": false,
      "inputs": [
        {
          "components": [
            {
              "name": "paid",
              "type": "bool"
            },
            {
              "name": "policyId",
              "type": "string"
            },
            {
              "name": "owner",
              "type": "address"
            },
            {
              "name": "txHash",
              "type": "string"
            },
            {
              "name": "products",
              "type": "string[]"
            },
            {
              "components": [
                {
                  "name": "from",
                  "type": "string"
                },
                {
                  "name": "to",
                  "type": "string"
                },
                {
                  "name": "code",
                  "type": "string"
                },
                {
                  "name": "name",
                  "type": "string"
                },
                {
                  "name": "departureTime",
                  "type": "string"
                },
                {
                  "name": "arrivalTime",
                  "type": "string"
                }
              ],
              "name": "flight",
              "type": "tuple"
            }
          ],
          "name": "_policy",
          "type": "tuple"
        }
      ],
      "name": "createNewPolicy",
      "outputs": [],
      "payable": false,
      "stateMutability": "nonpayable",
      "type": "function"
    },
    {
      "constant": true,
      "inputs": [
        {
          "name": "_policyId",
          "type": "string"
        }
      ],
      "name": "getPolicy",
      "outputs": [
        {
          "components": [
            {
              "name": "paid",
              "type": "bool"
            },
            {
              "name": "policyId",
              "type": "string"
            },
            {
              "name": "owner",
              "type": "address"
            },
            {
              "name": "txHash",
              "type": "string"
            },
            {
              "name": "products",
              "type": "string[]"
            },
            {
              "components": [
                {
                  "name": "from",
                  "type": "string"
                },
                {
                  "name": "to",
                  "type": "string"
                },
                {
                  "name": "code",
                  "type": "string"
                },
                {
                  "name": "name",
                  "type": "string"
                },
                {
                  "name": "departureTime",
                  "type": "string"
                },
                {
                  "name": "arrivalTime",
                  "type": "string"
                }
              ],
              "name": "flight",
              "type": "tuple"
            }
          ],
          "name": "",
          "type": "tuple"
        }
      ],
      "payable": false,
      "stateMutability": "view",
      "type": "function"
    },
    {
      "constant": true,
      "inputs": [
        {
          "name": "_policyId",
          "type": "string"
        }
      ],
      "name": "getPremium",
      "outputs": [
        {
          "components": [
            {
              "name": "chainlink",
              "type": "bool"
            },
            {
              "name": "hasWeather",
              "type": "bool"
            }
          ],
          "name": "",
          "type": "tuple"
        }
      ],
      "payable": false,
      "stateMutability": "view",
      "type": "function"
    },
    {
      "constant": false,
      "inputs": [
        {
          "name": "_policyId",
          "type": "string"
        },
        {
          "name": "amount",
          "type": "uint256"
        }
      ],
      "name": "payPolicy",
      "outputs": [],
      "payable": false,
      "stateMutability": "nonpayable",
      "type": "function"
    }
  ],
  "bytecode": "0x608060405233600460006101000a81548173ffffffffffffffffffffffffffffffffffffffff021916908373ffffffffffffffffffffffffffffffffffffffff16021790555034801561005157600080fd5b50611a80806100616000396000f3fe60806040526004361061003f5760003560e01c806360dd5f90146100415780636b3b314f1461007e578063b6e8b938146100a7578063f71f1d9e146100d0575b005b34801561004d57600080fd5b5061006860048036036100639190810190611455565b61010d565b6040516100759190611814565b60405180910390f35b34801561008a57600080fd5b506100a560048036036100a09190810190611496565b610989565b005b3480156100b357600080fd5b506100ce60048036036100c991908101906114ea565b610bc5565b005b3480156100dc57600080fd5b506100f760048036036100f29190810190611455565b610dfa565b6040516101049190611836565b60405180910390f35b610115610eb0565b600460009054906101000a900473ffffffffffffffffffffffffffffffffffffffff1673ffffffffffffffffffffffffffffffffffffffff163373ffffffffffffffffffffffffffffffffffffffff161461016f57600080fd5b6001151560008360405161018391906117fd565b908152602001604051809103902060009054906101000a900460ff1615151415610861576101af610eb0565b6001836040516101bf91906117fd565b90815260200160405180910390206040518060c00160405290816000820160009054906101000a900460ff16151515158152602001600182018054600181600116156101000203166002900480601f01602080910402602001604051908101604052809291908181526020018280546001816001161561010002031660029004801561028c5780601f106102615761010080835404028352916020019161028c565b820191906000526020600020905b81548152906001019060200180831161026f57829003601f168201915b505050505081526020016002820160009054906101000a900473ffffffffffffffffffffffffffffffffffffffff1673ffffffffffffffffffffffffffffffffffffffff1673ffffffffffffffffffffffffffffffffffffffff168152602001600382018054600181600116156101000203166002900480601f0160208091040260200160405190810160405280929190818152602001828054600181600116156101000203166002900480156103845780601f1061035957610100808354040283529160200191610384565b820191906000526020600020905b81548152906001019060200180831161036757829003601f168201915b5050505050815260200160048201805480602002602001604051908101604052809291908181526020016000905b8282101561046e578382906000526020600020018054600181600116156101000203166002900480601f01602080910402602001604051908101604052809291908181526020018280546001816001161561010002031660029004801561045a5780601f1061042f5761010080835404028352916020019161045a565b820191906000526020600020905b81548152906001019060200180831161043d57829003601f168201915b5050505050815260200190600101906103b2565b505050508152602001600582016040518060c0016040529081600082018054600181600116156101000203166002900480601f01602080910402602001604051908101604052809291908181526020018280546001816001161561010002031660029004801561051f5780601f106104f45761010080835404028352916020019161051f565b820191906000526020600020905b81548152906001019060200180831161050257829003601f168201915b50505050508152602001600182018054600181600116156101000203166002900480601f0160208091040260200160405190810160405280929190818152602001828054600181600116156101000203166002900480156105c15780601f10610596576101008083540402835291602001916105c1565b820191906000526020600020905b8154815290600101906020018083116105a457829003601f168201915b50505050508152602001600282018054600181600116156101000203166002900480601f0160208091040260200160405190810160405280929190818152602001828054600181600116156101000203166002900480156106635780601f1061063857610100808354040283529160200191610663565b820191906000526020600020905b81548152906001019060200180831161064657829003601f168201915b50505050508152602001600382018054600181600116156101000203166002900480601f0160208091040260200160405190810160405280929190818152602001828054600181600116156101000203166002900480156107055780601f106106da57610100808354040283529160200191610705565b820191906000526020600020905b8154815290600101906020018083116106e857829003601f168201915b50505050508152602001600482018054600181600116156101000203166002900480601f0160208091040260200160405190810160405280929190818152602001828054600181600116156101000203166002900480156107a75780601f1061077c576101008083540402835291602001916107a7565b820191906000526020600020905b81548152906001019060200180831161078a57829003601f168201915b50505050508152602001600582018054600181600116156101000203166002900480601f0160208091040260200160405190810160405280929190818152602001828054600181600116156101000203166002900480156108495780601f1061081e57610100808354040283529160200191610849565b820191906000526020600020905b81548152906001019060200180831161082c57829003601f168201915b50505050508152505081525050905080915050610984565b606061086b610eb0565b6040518060c001604052806000151581526020016040518060400160405280600181526020017f30000000000000000000000000000000000000000000000000000000000000008152508152602001600073ffffffffffffffffffffffffffffffffffffffff1681526020016040518060200160405280600081525081526020018381526020016040518060c0016040528060405180602001604052806000815250815260200160405180602001604052806000815250815260200160405180602001604052806000815250815260200160405180602001604052806000815250815260200160405180602001604052806000815250815260200160405180602001604052806000815250815250815250905080925050505b919050565b600460009054906101000a900473ffffffffffffffffffffffffffffffffffffffff1673ffffffffffffffffffffffffffffffffffffffff163373ffffffffffffffffffffffffffffffffffffffff16146109e357600080fd5b600115156000836040516109f791906117fd565b908152602001604051809103902060009054906101000a900460ff16151514610a1f57600080fd5b600073ffffffffffffffffffffffffffffffffffffffff16600183604051610a4791906117fd565b908152602001604051809103902060020160009054906101000a900473ffffffffffffffffffffffffffffffffffffffff1673ffffffffffffffffffffffffffffffffffffffff161415610a9a57600080fd5b60001515600383604051610aae91906117fd565b908152602001604051809103902060000160009054906101000a900460ff16151514610ad957600080fd5b600182604051610ae991906117fd565b908152602001604051809103902060020160009054906101000a900473ffffffffffffffffffffffffffffffffffffffff1673ffffffffffffffffffffffffffffffffffffffff166108fc829081150290604051600060405180830381858888f19350505050158015610b60573d6000803e3d6000fd5b506001600383604051610b7391906117fd565b908152602001604051809103902060000160006101000a81548160ff02191690831515021790555080600383604051610bac91906117fd565b9081526020016040518091039020600101819055505050565b600460009054906101000a900473ffffffffffffffffffffffffffffffffffffffff1673ffffffffffffffffffffffffffffffffffffffff163373ffffffffffffffffffffffffffffffffffffffff1614610c1f57600080fd5b8060018260200151604051610c3491906117e6565b908152602001604051809103902060008201518160000160006101000a81548160ff0219169083151502179055506020820151816001019080519060200190610c7e929190610f05565b5060408201518160020160006101000a81548173ffffffffffffffffffffffffffffffffffffffff021916908373ffffffffffffffffffffffffffffffffffffffff1602179055506060820151816003019080519060200190610ce2929190610f05565b506080820151816004019080519060200190610cff929190610f85565b5060a0820151816005016000820151816000019080519060200190610d25929190610f05565b506020820151816001019080519060200190610d42929190610f05565b506040820151816002019080519060200190610d5f929190610f05565b506060820151816003019080519060200190610d7c929190610f05565b506080820151816004019080519060200190610d99929190610f05565b5060a0820151816005019080519060200190610db6929190610f05565b505050905050600160008260200151604051610dd291906117e6565b908152602001604051809103902060006101000a81548160ff02191690831515021790555050565b610e02610fe5565b60011515600083604051610e1691906117fd565b908152602001604051809103902060009054906101000a900460ff16151514610e3e57600080fd5b610e46610fe5565b600283604051610e5691906117fd565b90815260200160405180910390206040518060400160405290816000820160009054906101000a900460ff161515151581526020016000820160019054906101000a900460ff161515151581525050905080915050919050565b60405180610160016040528060001515815260200160608152602001600073ffffffffffffffffffffffffffffffffffffffff1681526020016060815260200160608152602001610eff611003565b81525090565b828054600181600116156101000203166002900490600052602060002090601f016020900481019282601f10610f4657805160ff1916838001178555610f74565b82800160010185558215610f74579182015b82811115610f73578251825591602001919060010190610f58565b5b509050610f819190611039565b5090565b828054828255906000526020600020908101928215610fd4579160200282015b82811115610fd3578251829080519060200190610fc3929190610f05565b5091602001919060010190610fa5565b5b509050610fe1919061105e565b5090565b60405180604001604052806000151581526020016000151581525090565b6040518060c001604052806060815260200160608152602001606081526020016060815260200160608152602001606081525090565b61105b91905b8082111561105757600081600090555060010161103f565b5090565b90565b61108791905b80821115611083576000818161107a919061108a565b50600101611064565b5090565b90565b50805460018160011615610100020316600290046000825580601f106110b057506110cf565b601f0160209004906000526020600020908101906110ce9190611039565b5b50565b6000813590506110e181611a01565b92915050565b600082601f8301126110f857600080fd5b813561110b6111068261187e565b611851565b9150818183526020840193506020810190508360005b8381101561115157813586016111378882611170565b845260208401935060208301925050600181019050611121565b5050505092915050565b60008135905061116a81611a18565b92915050565b600082601f83011261118157600080fd5b813561119461118f826118a6565b611851565b915080825260208301602083018583830111156111b057600080fd5b6111bb8382846119ae565b50505092915050565b600082601f8301126111d557600080fd5b81356111e86111e3826118d2565b611851565b9150808252602083016020830185838301111561120457600080fd5b61120f8382846119ae565b50505092915050565b600060c0828403121561122a57600080fd5b61123460c0611851565b9050600082013567ffffffffffffffff81111561125057600080fd5b61125c84828501611170565b600083015250602082013567ffffffffffffffff81111561127c57600080fd5b61128884828501611170565b602083015250604082013567ffffffffffffffff8111156112a857600080fd5b6112b484828501611170565b604083015250606082013567ffffffffffffffff8111156112d457600080fd5b6112e084828501611170565b606083015250608082013567ffffffffffffffff81111561130057600080fd5b61130c84828501611170565b60808301525060a082013567ffffffffffffffff81111561132c57600080fd5b61133884828501611170565b60a08301525092915050565b600060c0828403121561135657600080fd5b61136060c0611851565b905060006113708482850161115b565b600083015250602082013567ffffffffffffffff81111561139057600080fd5b61139c84828501611170565b60208301525060406113b0848285016110d2565b604083015250606082013567ffffffffffffffff8111156113d057600080fd5b6113dc84828501611170565b606083015250608082013567ffffffffffffffff8111156113fc57600080fd5b611408848285016110e7565b60808301525060a082013567ffffffffffffffff81111561142857600080fd5b61143484828501611218565b60a08301525092915050565b60008135905061144f81611a2f565b92915050565b60006020828403121561146757600080fd5b600082013567ffffffffffffffff81111561148157600080fd5b61148d848285016111c4565b91505092915050565b600080604083850312156114a957600080fd5b600083013567ffffffffffffffff8111156114c357600080fd5b6114cf858286016111c4565b92505060206114e085828601611440565b9150509250929050565b6000602082840312156114fc57600080fd5b600082013567ffffffffffffffff81111561151657600080fd5b61152284828501611344565b91505092915050565b60006115378383611603565b905092915050565b61154881611966565b82525050565b60006115598261190b565b6115638185611939565b935083602082028501611575856118fe565b8060005b858110156115b15784840389528151611592858261152b565b945061159d8361192c565b925060208a01995050600181019050611579565b50829750879550505050505092915050565b6115cc81611978565b82525050565b60006115dd82611921565b6115e7818561195b565b93506115f78185602086016119bd565b80840191505092915050565b600061160e82611916565b611618818561194a565b93506116288185602086016119bd565b611631816119f0565b840191505092915050565b600061164782611916565b611651818561195b565b93506116618185602086016119bd565b80840191505092915050565b600060c083016000830151848203600086015261168a8282611603565b915050602083015184820360208601526116a48282611603565b915050604083015184820360408601526116be8282611603565b915050606083015184820360608601526116d88282611603565b915050608083015184820360808601526116f28282611603565b91505060a083015184820360a086015261170c8282611603565b9150508091505092915050565b600060c08301600083015161173160008601826115c3565b50602083015184820360208601526117498282611603565b915050604083015161175e604086018261153f565b50606083015184820360608601526117768282611603565b91505060808301518482036080860152611790828261154e565b91505060a083015184820360a08601526117aa828261166d565b9150508091505092915050565b6040820160008201516117cd60008501826115c3565b5060208201516117e060208501826115c3565b50505050565b60006117f2828461163c565b915081905092915050565b600061180982846115d2565b915081905092915050565b6000602082019050818103600083015261182e8184611719565b905092915050565b600060408201905061184b60008301846117b7565b92915050565b6000604051905081810181811067ffffffffffffffff8211171561187457600080fd5b8060405250919050565b600067ffffffffffffffff82111561189557600080fd5b602082029050602081019050919050565b600067ffffffffffffffff8211156118bd57600080fd5b601f19601f8301169050602081019050919050565b600067ffffffffffffffff8211156118e957600080fd5b601f19601f8301169050602081019050919050565b6000602082019050919050565b600081519050919050565b600081519050919050565b600081519050919050565b6000602082019050919050565b600082825260208201905092915050565b600082825260208201905092915050565b600081905092915050565b600061197182611984565b9050919050565b60008115159050919050565b600073ffffffffffffffffffffffffffffffffffffffff82169050919050565b6000819050919050565b82818337600083830152505050565b60005b838110156119db5780820151818401526020810190506119c0565b838111156119ea576000848401525b50505050565b6000601f19601f8301169050919050565b611a0a81611966565b8114611a1557600080fd5b50565b611a2181611978565b8114611a2c57600080fd5b50565b611a38816119a4565b8114611a4357600080fd5b5056fea265627a7a72305820ffe4d7daa6db3ea7b9bc59cb462f733a18c1ad845bc88b7850582ca3f64839a06c6578706572696d656e74616cf50037",
  "source": "pragma solidity >=0.5.0 <0.6.0;\npragma experimental ABIEncoderV2;\n\ncontract Flyt {\n  struct Flight {\n    string from;\n    string to;\n    string code;\n    string name;\n    string departureTime;\n    string arrivalTime;\n  }\n\n  struct Policy {\n    bool paid;\n    string policyId;\n    address payable owner;\n    string txHash;\n    string[] products;\n    Flight flight;\n  }\n\n  struct Premium {\n    bool chainlink;\n    bool hasWeather;\n  }\n\n  struct Payment {\n    bool paid;\n    uint256 amount;\n  }\n\n  mapping(string => bool) isPolicy;\n  mapping(string => Policy) policies;\n  mapping(string => Premium) premiums;\n  mapping(string => Payment) payments;\n\n  address owner = msg.sender; // set the owner of the contract.\n\n  modifier _ownerOnly() {\n    require(msg.sender == owner);\n    _;\n  }\n\n  // Create a new policy.\n  function createNewPolicy(Policy memory _policy) public _ownerOnly {\n    policies[_policy.policyId] = _policy;\n    isPolicy[_policy.policyId] = true;\n  }\n\n  // Get policy details.\n  function getPolicy(string memory _policyId) public view _ownerOnly returns (Policy memory) {\n    if (isPolicy[_policyId] == true) {\n      // Policy exists.\n      Policy memory _policy = policies[_policyId];\n      return _policy;\n    } else {\n      // Policy doesnt exist.\n      // Return a dummy.\n      string[] memory products;\n      Policy memory _policy = Policy(false, '0', address(0), '', products, Flight('', '', '', '', '', ''));\n      return _policy;\n    }\n  }\n\n  // Calculate the policy premium.\n  function getPremium(string memory _policyId) public view returns (Premium memory) {\n    require(isPolicy[_policyId] == true);\n\n    Premium memory _premium = premiums[_policyId];\n\n    // Send the chainlink requests to various oracles if not sent.\n\n    return _premium;\n  }\n\n  function payPolicy(string memory _policyId, uint256 amount) public _ownerOnly {\n    require(isPolicy[_policyId] == true);\n    require(policies[_policyId].owner != address(0));\n    require(payments[_policyId].paid == false);\n\n    policies[_policyId].owner.transfer(amount);\n\n    payments[_policyId].paid = true;\n    payments[_policyId].amount = amount;\n  }\n\n  // To be able to receive ETH.\n  function () external payable {}\n\n}\n",
  "sourcePath": "/home/robin/Workspace/flight/src/truffle/contracts/Flyt.sol",
  "compiler": {
    "name": "solc",
    "version": "0.5.8+commit.23d335f2.Emscripten.clang"
  },
  "schemaVersion": "3.0.16",
  "updatedAt": "2019-10-27T01:16:33.820Z",
  "devdoc": {
    "methods": {}
  },
  "userdoc": {
    "methods": {}
  }
}