{
  "contractName": "Flyt",
  "abi": [
    {
      "constant": true,
      "inputs": [],
      "name": "owner",
      "outputs": [
        {
          "name": "",
          "type": "address"
        }
      ],
      "payable": false,
      "stateMutability": "view",
      "type": "function"
    },
    {
      "inputs": [],
      "payable": false,
      "stateMutability": "nonpayable",
      "type": "constructor"
    },
    {
      "payable": true,
      "stateMutability": "payable",
      "type": "fallback"
    },
    {
      "anonymous": false,
      "inputs": [
        {
          "indexed": true,
          "name": "id",
          "type": "bytes32"
        }
      ],
      "name": "ChainlinkRequested",
      "type": "event"
    },
    {
      "anonymous": false,
      "inputs": [
        {
          "indexed": true,
          "name": "id",
          "type": "bytes32"
        }
      ],
      "name": "ChainlinkFulfilled",
      "type": "event"
    },
    {
      "anonymous": false,
      "inputs": [
        {
          "indexed": true,
          "name": "id",
          "type": "bytes32"
        }
      ],
      "name": "ChainlinkCancelled",
      "type": "event"
    },
    {
      "constant": false,
      "inputs": [
        {
          "components": [
            {
              "name": "policyId",
              "type": "string"
            },
            {
              "name": "owner",
              "type": "address"
            },
            {
              "name": "products",
              "type": "string[]"
            },
            {
              "components": [
                {
                  "name": "from",
                  "type": "string"
                },
                {
                  "name": "to",
                  "type": "string"
                },
                {
                  "name": "fsCode",
                  "type": "string"
                },
                {
                  "name": "carrierCode",
                  "type": "string"
                },
                {
                  "name": "name",
                  "type": "string"
                },
                {
                  "name": "departureTime",
                  "type": "string"
                },
                {
                  "name": "arrivalTime",
                  "type": "string"
                }
              ],
              "name": "flight",
              "type": "tuple"
            },
            {
              "components": [
                {
                  "name": "paid",
                  "type": "bool"
                },
                {
                  "name": "amount",
                  "type": "uint256"
                },
                {
                  "name": "txHash",
                  "type": "string"
                }
              ],
              "name": "premium",
              "type": "tuple"
            },
            {
              "components": [
                {
                  "name": "paid",
                  "type": "bool"
                },
                {
                  "name": "amount",
                  "type": "uint256"
                },
                {
                  "name": "txHash",
                  "type": "string"
                }
              ],
              "name": "payment",
              "type": "tuple"
            }
          ],
          "name": "_policy",
          "type": "tuple"
        }
      ],
      "name": "createNewPolicy",
      "outputs": [],
      "payable": false,
      "stateMutability": "nonpayable",
      "type": "function"
    },
    {
      "constant": true,
      "inputs": [
        {
          "name": "_policyId",
          "type": "string"
        }
      ],
      "name": "getPolicy",
      "outputs": [
        {
          "components": [
            {
              "name": "policyId",
              "type": "string"
            },
            {
              "name": "owner",
              "type": "address"
            },
            {
              "name": "products",
              "type": "string[]"
            },
            {
              "components": [
                {
                  "name": "from",
                  "type": "string"
                },
                {
                  "name": "to",
                  "type": "string"
                },
                {
                  "name": "fsCode",
                  "type": "string"
                },
                {
                  "name": "carrierCode",
                  "type": "string"
                },
                {
                  "name": "name",
                  "type": "string"
                },
                {
                  "name": "departureTime",
                  "type": "string"
                },
                {
                  "name": "arrivalTime",
                  "type": "string"
                }
              ],
              "name": "flight",
              "type": "tuple"
            },
            {
              "components": [
                {
                  "name": "paid",
                  "type": "bool"
                },
                {
                  "name": "amount",
                  "type": "uint256"
                },
                {
                  "name": "txHash",
                  "type": "string"
                }
              ],
              "name": "premium",
              "type": "tuple"
            },
            {
              "components": [
                {
                  "name": "paid",
                  "type": "bool"
                },
                {
                  "name": "amount",
                  "type": "uint256"
                },
                {
                  "name": "txHash",
                  "type": "string"
                }
              ],
              "name": "payment",
              "type": "tuple"
            }
          ],
          "name": "",
          "type": "tuple"
        }
      ],
      "payable": false,
      "stateMutability": "view",
      "type": "function"
    },
    {
      "constant": true,
      "inputs": [
        {
          "name": "_policyId",
          "type": "string"
        }
      ],
      "name": "getPremium",
      "outputs": [
        {
          "name": "result",
          "type": "uint256"
        }
      ],
      "payable": false,
      "stateMutability": "view",
      "type": "function"
    },
    {
      "constant": false,
      "inputs": [
        {
          "name": "_policyId",
          "type": "string"
        },
        {
          "name": "_from",
          "type": "string"
        },
        {
          "name": "_fsCode",
          "type": "string"
        },
        {
          "name": "_carrierCode",
          "type": "string"
        }
      ],
      "name": "calculatePremium",
      "outputs": [],
      "payable": false,
      "stateMutability": "nonpayable",
      "type": "function"
    },
    {
      "constant": false,
      "inputs": [
        {
          "name": "_requestId",
          "type": "bytes32"
        },
        {
          "name": "_score",
          "type": "uint256"
        }
      ],
      "name": "setAirportRating",
      "outputs": [],
      "payable": false,
      "stateMutability": "nonpayable",
      "type": "function"
    },
    {
      "constant": false,
      "inputs": [
        {
          "name": "_requestId",
          "type": "bytes32"
        },
        {
          "name": "_rating",
          "type": "uint256"
        }
      ],
      "name": "setFlightRating",
      "outputs": [],
      "payable": false,
      "stateMutability": "nonpayable",
      "type": "function"
    },
    {
      "constant": false,
      "inputs": [
        {
          "name": "_policyId",
          "type": "string"
        },
        {
          "name": "amount",
          "type": "uint256"
        }
      ],
      "name": "payPolicy",
      "outputs": [],
      "payable": false,
      "stateMutability": "nonpayable",
      "type": "function"
    }
  ],
  "bytecode": "0x608060405260016004553480156200001657600080fd5b50620000276200009360201b60201c565b6200004c73c99b3d447826532722e41bc36e644ba3479e43656200013b60201b60201c565b33600660006101000a81548173ffffffffffffffffffffffffffffffffffffffff021916908373ffffffffffffffffffffffffffffffffffffffff16021790555062000254565b6200013973c89bd4e1632d3a43cb03aaad5262cbe4038bc57173ffffffffffffffffffffffffffffffffffffffff166338cc48316040518163ffffffff1660e01b815260040160206040518083038186803b158015620000f257600080fd5b505afa15801562000107573d6000803e3d6000fd5b505050506040513d601f19601f820116820180604052506200012d9190810190620001da565b6200017f60201b60201c565b565b80600360006101000a81548173ffffffffffffffffffffffffffffffffffffffff021916908373ffffffffffffffffffffffffffffffffffffffff16021790555050565b80600260006101000a81548173ffffffffffffffffffffffffffffffffffffffff021916908373ffffffffffffffffffffffffffffffffffffffff16021790555050565b600081519050620001d4816200023a565b92915050565b600060208284031215620001ed57600080fd5b6000620001fd84828501620001c3565b91505092915050565b600062000213826200021a565b9050919050565b600073ffffffffffffffffffffffffffffffffffffffff82169050919050565b620002458162000206565b81146200025157600080fd5b50565b613b1380620002646000396000f3fe60806040526004361061007b5760003560e01c80638da5cb5b1161004e5780638da5cb5b14610135578063c6bf8fc314610160578063f71f1d9e14610189578063fe3168f6146101c65761007b565b80632abc7beb1461007d5780633794b04c146100a657806360dd5f90146100cf5780636b3b314f1461010c575b005b34801561008957600080fd5b506100a4600480360361009f9190810190612c33565b6101ef565b005b3480156100b257600080fd5b506100cd60048036036100c89190810190612bb6565b6103ff565b005b3480156100db57600080fd5b506100f660048036036100f19190810190612bf2565b610490565b6040516101039190613734565b60405180910390f35b34801561011857600080fd5b50610133600480360361012e9190810190612cf6565b610f04565b005b34801561014157600080fd5b5061014a61118b565b60405161015791906135d6565b60405180910390f35b34801561016c57600080fd5b5061018760048036036101829190810190612d4a565b6111b1565b005b34801561019557600080fd5b506101b060048036036101ab9190810190612bf2565b61146a565b6040516101bd9190613756565b60405180910390f35b3480156101d257600080fd5b506101ed60048036036101e89190810190612bb6565b611603565b005b600660009054906101000a900473ffffffffffffffffffffffffffffffffffffffff1673ffffffffffffffffffffffffffffffffffffffff163373ffffffffffffffffffffffffffffffffffffffff161461024957600080fd5b6000151560098560405161025d91906134f8565b908152602001604051809103902060000160009054906101000a900460ff161515141561034557600060098560405161029691906134f8565b908152602001604051809103902060030160006101000a81548160ff021916908360028111156102c257fe5b021790555060006009856040516102d991906134f8565b908152602001604051809103902060030160016101000a81548160ff0219169083600281111561030557fe5b0217905550600160098560405161031c91906134f8565b908152602001604051809103902060000160006101000a81548160ff0219169083151502179055505b6000600281111561035257fe5b60098560405161036291906134f8565b908152602001604051809103902060030160009054906101000a900460ff16600281111561038c57fe5b141561039e5761039c8484611694565b505b600060028111156103ab57fe5b6009856040516103bb91906134f8565b908152602001604051809103902060030160019054906101000a900460ff1660028111156103e557fe5b14156103f9576103f784848484611892565b505b50505050565b60026009600a600085815260200190815260200160002060405161042391906135bf565b908152602001604051809103902060030160016101000a81548160ff0219169083600281111561044f57fe5b0217905550806009600a600085815260200190815260200160002060405161047791906135bf565b9081526020016040518091039020600201819055505050565b6104986123cb565b600660009054906101000a900473ffffffffffffffffffffffffffffffffffffffff1673ffffffffffffffffffffffffffffffffffffffff163373ffffffffffffffffffffffffffffffffffffffff16146104f257600080fd5b6001151560078360405161050691906134f8565b908152602001604051809103902060009054906101000a900460ff1615151415610d7f576105326123cb565b60088360405161054291906134f8565b90815260200160405180910390206040518060c0016040529081600082018054600181600116156101000203166002900480601f0160208091040260200160405190810160405280929190818152602001828054600181600116156101000203166002900480156105f45780601f106105c9576101008083540402835291602001916105f4565b820191906000526020600020905b8154815290600101906020018083116105d757829003601f168201915b505050505081526020016001820160009054906101000a900473ffffffffffffffffffffffffffffffffffffffff1673ffffffffffffffffffffffffffffffffffffffff1673ffffffffffffffffffffffffffffffffffffffff16815260200160028201805480602002602001604051908101604052809291908181526020016000905b82821015610734578382906000526020600020018054600181600116156101000203166002900480601f0160208091040260200160405190810160405280929190818152602001828054600181600116156101000203166002900480156107205780601f106106f557610100808354040283529160200191610720565b820191906000526020600020905b81548152906001019060200180831161070357829003601f168201915b505050505081526020019060010190610678565b505050508152602001600382016040518060e0016040529081600082018054600181600116156101000203166002900480601f0160208091040260200160405190810160405280929190818152602001828054600181600116156101000203166002900480156107e55780601f106107ba576101008083540402835291602001916107e5565b820191906000526020600020905b8154815290600101906020018083116107c857829003601f168201915b50505050508152602001600182018054600181600116156101000203166002900480601f0160208091040260200160405190810160405280929190818152602001828054600181600116156101000203166002900480156108875780601f1061085c57610100808354040283529160200191610887565b820191906000526020600020905b81548152906001019060200180831161086a57829003601f168201915b50505050508152602001600282018054600181600116156101000203166002900480601f0160208091040260200160405190810160405280929190818152602001828054600181600116156101000203166002900480156109295780601f106108fe57610100808354040283529160200191610929565b820191906000526020600020905b81548152906001019060200180831161090c57829003601f168201915b50505050508152602001600382018054600181600116156101000203166002900480601f0160208091040260200160405190810160405280929190818152602001828054600181600116156101000203166002900480156109cb5780601f106109a0576101008083540402835291602001916109cb565b820191906000526020600020905b8154815290600101906020018083116109ae57829003601f168201915b50505050508152602001600482018054600181600116156101000203166002900480601f016020809104026020016040519081016040528092919081815260200182805460018160011615610100020316600290048015610a6d5780601f10610a4257610100808354040283529160200191610a6d565b820191906000526020600020905b815481529060010190602001808311610a5057829003601f168201915b50505050508152602001600582018054600181600116156101000203166002900480601f016020809104026020016040519081016040528092919081815260200182805460018160011615610100020316600290048015610b0f5780601f10610ae457610100808354040283529160200191610b0f565b820191906000526020600020905b815481529060010190602001808311610af257829003601f168201915b50505050508152602001600682018054600181600116156101000203166002900480601f016020809104026020016040519081016040528092919081815260200182805460018160011615610100020316600290048015610bb15780601f10610b8657610100808354040283529160200191610bb1565b820191906000526020600020905b815481529060010190602001808311610b9457829003601f168201915b5050505050815250508152602001600a82016040518060600160405290816000820160009054906101000a900460ff1615151515815260200160018201548152602001600282018054600181600116156101000203166002900480601f016020809104026020016040519081016040528092919081815260200182805460018160011615610100020316600290048015610c8c5780601f10610c6157610100808354040283529160200191610c8c565b820191906000526020600020905b815481529060010190602001808311610c6f57829003601f168201915b5050505050815250508152602001600d82016040518060600160405290816000820160009054906101000a900460ff1615151515815260200160018201548152602001600282018054600181600116156101000203166002900480601f016020809104026020016040519081016040528092919081815260200182805460018160011615610100020316600290048015610d675780601f10610d3c57610100808354040283529160200191610d67565b820191906000526020600020905b815481529060010190602001808311610d4a57829003601f168201915b50505050508152505081525050905080915050610eff565b6060610d896123cb565b6040518060c001604052806040518060400160405280600181526020017f30000000000000000000000000000000000000000000000000000000000000008152508152602001600073ffffffffffffffffffffffffffffffffffffffff1681526020018381526020016040518060e0016040528060405180602001604052806000815250815260200160405180602001604052806000815250815260200160405180602001604052806000815250815260200160405180602001604052806000815250815260200160405180602001604052806000815250815260200160405180602001604052806000815250815260200160405180602001604052806000815250815250815260200160405180606001604052806000151581526020016000815260200160405180602001604052806000815250815250815260200160405180606001604052806000151581526020016000815260200160405180602001604052806000815250815250815250905080925050505b919050565b600660009054906101000a900473ffffffffffffffffffffffffffffffffffffffff1673ffffffffffffffffffffffffffffffffffffffff163373ffffffffffffffffffffffffffffffffffffffff1614610f5e57600080fd5b60011515600783604051610f7291906134f8565b908152602001604051809103902060009054906101000a900460ff16151514610f9a57600080fd5b600073ffffffffffffffffffffffffffffffffffffffff16600883604051610fc291906134f8565b908152602001604051809103902060010160009054906101000a900473ffffffffffffffffffffffffffffffffffffffff1673ffffffffffffffffffffffffffffffffffffffff16141561101557600080fd5b6001151560088360405161102991906134f8565b9081526020016040518091039020600a0160000160009054906101000a900460ff1615151461105757600080fd5b6000151560088360405161106b91906134f8565b9081526020016040518091039020600d0160000160009054906101000a900460ff1615151461109957600080fd5b6008826040516110a991906134f8565b908152602001604051809103902060010160009054906101000a900473ffffffffffffffffffffffffffffffffffffffff1673ffffffffffffffffffffffffffffffffffffffff166108fc829081150290604051600060405180830381858888f19350505050158015611120573d6000803e3d6000fd5b50600160088360405161113391906134f8565b9081526020016040518091039020600d0160000160006101000a81548160ff0219169083151502179055508060088360405161116f91906134f8565b9081526020016040518091039020600d01600101819055505050565b600660009054906101000a900473ffffffffffffffffffffffffffffffffffffffff1681565b600660009054906101000a900473ffffffffffffffffffffffffffffffffffffffff1673ffffffffffffffffffffffffffffffffffffffff163373ffffffffffffffffffffffffffffffffffffffff161461120b57600080fd5b806008826000015160405161122091906134e1565b9081526020016040518091039020600082015181600001908051906020019061124a92919061242a565b5060208201518160010160006101000a81548173ffffffffffffffffffffffffffffffffffffffff021916908373ffffffffffffffffffffffffffffffffffffffff16021790555060408201518160020190805190602001906112ae9291906124aa565b5060608201518160030160008201518160000190805190602001906112d492919061242a565b5060208201518160010190805190602001906112f192919061242a565b50604082015181600201908051906020019061130e92919061242a565b50606082015181600301908051906020019061132b92919061242a565b50608082015181600401908051906020019061134892919061242a565b5060a082015181600501908051906020019061136592919061242a565b5060c082015181600601908051906020019061138292919061242a565b505050608082015181600a0160008201518160000160006101000a81548160ff0219169083151502179055506020820151816001015560408201518160020190805190602001906113d492919061242a565b50505060a082015181600d0160008201518160000160006101000a81548160ff02191690831515021790555060208201518160010155604082015181600201908051906020019061142692919061242a565b50505090505060016007826000015160405161144291906134e1565b908152602001604051809103902060006101000a81548160ff02191690831515021790555050565b6000600660009054906101000a900473ffffffffffffffffffffffffffffffffffffffff1673ffffffffffffffffffffffffffffffffffffffff163373ffffffffffffffffffffffffffffffffffffffff16146114c657600080fd5b6002808111156114d257fe5b6009836040516114e291906134f8565b908152602001604051809103902060030160009054906101000a900460ff16600281111561150c57fe5b14801561155c575060028081111561152057fe5b60098360405161153091906134f8565b908152602001604051809103902060030160019054906101000a900460ff16600281111561155a57fe5b145b156115fe576000611598600760098560405161157891906134f8565b908152602001604051809103902060020154611a6190919063ffffffff16565b905060006115d160036009866040516115b191906134f8565b908152602001604051809103902060010154611a6190919063ffffffff16565b90506115f9600a6115eb8385611ad190919063ffffffff16565b611b2690919063ffffffff16565b925050505b919050565b60026009600a600085815260200190815260200160002060405161162791906135bf565b908152602001604051809103902060030160006101000a81548160ff0219169083600281111561165357fe5b0217905550806009600a600085815260200190815260200160002060405161167b91906135bf565b9081526020016040518091039020600101819055505050565b600061169e61250a565b6116d07f33636666306133353234363934666638383334626461396366396337373961313063fe3168f660e01b611b82565b90506117556040518060400160405280600381526020017f6765740000000000000000000000000000000000000000000000000000000000815250604051806060016040528060318152602001613a796031913985604051602001611736929190613531565b60405160208183030381529060405283611bb39092919063ffffffff16565b6117be6040518060400160405280600481526020017f70617468000000000000000000000000000000000000000000000000000000008152508460405160200161179f919061350f565b60405160208183030381529060405283611bb39092919063ffffffff16565b6118096040518060400160405280600581526020017f74696d6573000000000000000000000000000000000000000000000000000000815250600183611be69092919063ffffffff16565b61181e81670de0b6b3a7640000600102611c19565b915083600a60008481526020019081526020016000209080519060200190611847929190612577565b50600160098560405161185a91906134f8565b908152602001604051809103902060030160006101000a81548160ff0219169083600281111561188657fe5b02179055505092915050565b600061189c61250a565b6118ce7f336366663061333532343639346666383833346264613963663963373739613130633794b04c60e01b611b82565b90506119576040518060400160405280600381526020017f6765740000000000000000000000000000000000000000000000000000000000815250604051806060016040528060308152602001613aaa603091398787876040516020016119389493929190613560565b60405160208183030381529060405283611bb39092919063ffffffff16565b6119d66040518060400160405280600481526020017f70617468000000000000000000000000000000000000000000000000000000008152506040518060400160405280600581526020017f73636f726500000000000000000000000000000000000000000000000000000081525083611bb39092919063ffffffff16565b6119eb81670de0b6b3a7640000600102611c19565b915085600a60008481526020019081526020016000209080519060200190611a14929190612577565b506001600987604051611a2791906134f8565b908152602001604051809103902060030160016101000a81548160ff02191690836002811115611a5357fe5b021790555050949350505050565b600080831415611a745760009050611acb565b6000828402905082848281611a8557fe5b0414611ac6576040517f08c379a0000000000000000000000000000000000000000000000000000000008152600401611abd90613714565b60405180910390fd5b809150505b92915050565b600080828401905083811015611b1c576040517f08c379a0000000000000000000000000000000000000000000000000000000008152600401611b13906136b4565b60405180910390fd5b8091505092915050565b6000808211611b6a576040517f08c379a0000000000000000000000000000000000000000000000000000000008152600401611b61906136f4565b60405180910390fd5b6000828481611b7557fe5b0490508091505092915050565b611b8a61250a565b611b9261250a565b611ba985858584611c50909392919063ffffffff16565b9150509392505050565b611bca828460800151611d0090919063ffffffff16565b611be1818460800151611d0090919063ffffffff16565b505050565b611bfd828460800151611d0090919063ffffffff16565b611c14818460800151611d2590919063ffffffff16565b505050565b6000611c48600360009054906101000a900473ffffffffffffffffffffffffffffffffffffffff168484611d71565b905092915050565b611c5861250a565b611c688560800151610100611f44565b508385600001818152505082856020019073ffffffffffffffffffffffffffffffffffffffff16908173ffffffffffffffffffffffffffffffffffffffff16815250508185604001907bffffffffffffffffffffffffffffffffffffffffffffffffffffffff191690817bffffffffffffffffffffffffffffffffffffffffffffffffffffffff191681525050849050949350505050565b611d0d8260038351611f98565b611d2081836120dd90919063ffffffff16565b505050565b60008112611d3e57611d3982600083611f98565b611d6d565b611d6c826001837fffffffffffffffffffffffffffffffffffffffffffffffffffffffffffffffff03611f98565b5b5050565b6000308360000151600454604051602001611d8e939291906134a4565b604051602081830303815290604052805190602001209050600454836060018181525050836005600083815260200190815260200160002060006101000a81548173ffffffffffffffffffffffffffffffffffffffff021916908373ffffffffffffffffffffffffffffffffffffffff160217905550807fb5e6e01e79f91267dc17b4e6314d5d4d03593d2ceee0fbb452b750bd70ea5af960405160405180910390a2600260009054906101000a900473ffffffffffffffffffffffffffffffffffffffff1673ffffffffffffffffffffffffffffffffffffffff16634000aea08584611e7a876120ff565b6040518463ffffffff1660e01b8152600401611e9893929190613676565b602060405180830381600087803b158015611eb257600080fd5b505af1158015611ec6573d6000803e3d6000fd5b505050506040513d601f19601f82011682018060405250611eea9190810190612b8d565b611f29576040517f08c379a0000000000000000000000000000000000000000000000000000000008152600401611f20906136d4565b60405180910390fd5b60016004600082825401925050819055508090509392505050565b611f4c6125f7565b600060208381611f5857fe5b0614611f715760208281611f6857fe5b06602003820191505b81836020018181525050604051808452600081528281016020016040525082905092915050565b60178111611fc557611fbf8160058460ff16901b60ff1617846121e190919063ffffffff16565b506120d8565b60ff811161200757611fea601860058460ff16901b17846121e190919063ffffffff16565b50612001816001856122019092919063ffffffff16565b506120d7565b61ffff811161204a5761202d601960058460ff16901b17846121e190919063ffffffff16565b50612044816002856122019092919063ffffffff16565b506120d6565b63ffffffff811161208f57612072601a60058460ff16901b17846121e190919063ffffffff16565b50612089816004856122019092919063ffffffff16565b506120d5565b67ffffffffffffffff81116120d4576120bb601b60058460ff16901b17846121e190919063ffffffff16565b506120d2816008856122019092919063ffffffff16565b505b5b5b5b5b505050565b6120e56125f7565b6120f783846000015151848551612223565b905092915050565b6060600360009054906101000a900473ffffffffffffffffffffffffffffffffffffffff1673ffffffffffffffffffffffffffffffffffffffff166340429946905060e01b6000808460000151856020015186604001518760600151600189608001516000015160405160240161217d9897969594939291906135f1565b604051602081830303815290604052907bffffffffffffffffffffffffffffffffffffffffffffffffffffffff19166020820180517bffffffffffffffffffffffffffffffffffffffffffffffffffffffff83818316178352505050509050919050565b6121e96125f7565b6121f983846000015151846122dc565b905092915050565b6122096125f7565b61221a84856000015151858561232a565b90509392505050565b61222b6125f7565b825182111561223957600080fd5b846020015182850111156122645761226385600261225d886020015188870161238b565b026123a7565b5b6000808651805187602083010193508088870111156122835787860182525b60208701925050505b602084106122af578051825260208201915060208101905060208403935061228c565b60006001856020036101000a03905080198251168184511681811785525050879350505050949350505050565b6122e46125f7565b83602001518310612301576123008460028660200151026123a7565b5b835180516020858301018481538186141561231d576001820183525b5050508390509392505050565b6123326125f7565b846020015184830111156123505761234f856002868501026123a7565b5b60006001836101000a039050855183868201018583198251161781528151858801111561237d5784870182525b505085915050949350505050565b60008183111561239d578290506123a1565b8190505b92915050565b6060826000015190506123ba8383611f44565b506123c583826120dd565b50505050565b60405180610200016040528060608152602001600073ffffffffffffffffffffffffffffffffffffffff1681526020016060815260200161240a612611565b815260200161241761264e565b815260200161242461264e565b81525090565b828054600181600116156101000203166002900490600052602060002090601f016020900481019282601f1061246b57805160ff1916838001178555612499565b82800160010185558215612499579182015b8281111561249857825182559160200191906001019061247d565b5b5090506124a69190612671565b5090565b8280548282559060005260206000209081019282156124f9579160200282015b828111156124f85782518290805190602001906124e892919061242a565b50916020019190600101906124ca565b5b5090506125069190612696565b5090565b6040518060c0016040528060008019168152602001600073ffffffffffffffffffffffffffffffffffffffff16815260200160007bffffffffffffffffffffffffffffffffffffffffffffffffffffffff19168152602001600081526020016125716126c2565b81525090565b828054600181600116156101000203166002900490600052602060002090601f016020900481019282601f106125b857805160ff19168380011785556125e6565b828001600101855582156125e6579182015b828111156125e55782518255916020019190600101906125ca565b5b5090506125f39190612671565b5090565b604051806040016040528060608152602001600081525090565b6040518060e00160405280606081526020016060815260200160608152602001606081526020016060815260200160608152602001606081525090565b604051806060016040528060001515815260200160008152602001606081525090565b61269391905b8082111561268f576000816000905550600101612677565b5090565b90565b6126bf91905b808211156126bb57600081816126b291906126dc565b5060010161269c565b5090565b90565b604051806040016040528060608152602001600081525090565b50805460018160011615610100020316600290046000825580601f106127025750612721565b601f0160209004906000526020600020908101906127209190612671565b5b50565b60008135905061273381613a1c565b92915050565b600082601f83011261274a57600080fd5b813561275d6127588261379e565b613771565b9150818183526020840193506020810190508360005b838110156127a3578135860161278988826127ec565b845260208401935060208301925050600181019050612773565b5050505092915050565b6000813590506127bc81613a33565b92915050565b6000815190506127d181613a33565b92915050565b6000813590506127e681613a4a565b92915050565b600082601f8301126127fd57600080fd5b813561281061280b826137c6565b613771565b9150808252602083016020830185838301111561282c57600080fd5b612837838284613984565b50505092915050565b600082601f83011261285157600080fd5b813561286461285f826137f2565b613771565b9150808252602083016020830185838301111561288057600080fd5b61288b838284613984565b50505092915050565b600060e082840312156128a657600080fd5b6128b060e0613771565b9050600082013567ffffffffffffffff8111156128cc57600080fd5b6128d8848285016127ec565b600083015250602082013567ffffffffffffffff8111156128f857600080fd5b612904848285016127ec565b602083015250604082013567ffffffffffffffff81111561292457600080fd5b612930848285016127ec565b604083015250606082013567ffffffffffffffff81111561295057600080fd5b61295c848285016127ec565b606083015250608082013567ffffffffffffffff81111561297c57600080fd5b612988848285016127ec565b60808301525060a082013567ffffffffffffffff8111156129a857600080fd5b6129b4848285016127ec565b60a08301525060c082013567ffffffffffffffff8111156129d457600080fd5b6129e0848285016127ec565b60c08301525092915050565b6000606082840312156129fe57600080fd5b612a086060613771565b90506000612a18848285016127ad565b6000830152506020612a2c84828501612b78565b602083015250604082013567ffffffffffffffff811115612a4c57600080fd5b612a58848285016127ec565b60408301525092915050565b600060c08284031215612a7657600080fd5b612a8060c0613771565b9050600082013567ffffffffffffffff811115612a9c57600080fd5b612aa8848285016127ec565b6000830152506020612abc84828501612724565b602083015250604082013567ffffffffffffffff811115612adc57600080fd5b612ae884828501612739565b604083015250606082013567ffffffffffffffff811115612b0857600080fd5b612b1484828501612894565b606083015250608082013567ffffffffffffffff811115612b3457600080fd5b612b40848285016129ec565b60808301525060a082013567ffffffffffffffff811115612b6057600080fd5b612b6c848285016129ec565b60a08301525092915050565b600081359050612b8781613a61565b92915050565b600060208284031215612b9f57600080fd5b6000612bad848285016127c2565b91505092915050565b60008060408385031215612bc957600080fd5b6000612bd7858286016127d7565b9250506020612be885828601612b78565b9150509250929050565b600060208284031215612c0457600080fd5b600082013567ffffffffffffffff811115612c1e57600080fd5b612c2a84828501612840565b91505092915050565b60008060008060808587031215612c4957600080fd5b600085013567ffffffffffffffff811115612c6357600080fd5b612c6f87828801612840565b945050602085013567ffffffffffffffff811115612c8c57600080fd5b612c9887828801612840565b935050604085013567ffffffffffffffff811115612cb557600080fd5b612cc187828801612840565b925050606085013567ffffffffffffffff811115612cde57600080fd5b612cea87828801612840565b91505092959194509250565b60008060408385031215612d0957600080fd5b600083013567ffffffffffffffff811115612d2357600080fd5b612d2f85828601612840565b9250506020612d4085828601612b78565b9150509250929050565b600060208284031215612d5c57600080fd5b600082013567ffffffffffffffff811115612d7657600080fd5b612d8284828501612a64565b91505092915050565b6000612d978383612f30565b905092915050565b612da8816138e2565b82525050565b612db7816138d0565b82525050565b6000612dc88261383d565b612dd28185613881565b935083602082028501612de48561381e565b8060005b85811015612e205784840389528151612e018582612d8b565b9450612e0c83613874565b925060208a01995050600181019050612de8565b50829750879550505050505092915050565b612e3b816138f4565b82525050565b612e4a81613900565b82525050565b612e61612e5c82613900565b6139d8565b82525050565b612e708161390a565b82525050565b6000612e8182613853565b612e8b8185613892565b9350612e9b818560208601613993565b612ea4816139fe565b840191505092915050565b6000612eba82613848565b612ec48185613892565b9350612ed4818560208601613993565b612edd816139fe565b840191505092915050565b612ef9612ef482613960565b6139c6565b82525050565b6000612f0a82613869565b612f1481856138c5565b9350612f24818560208601613993565b80840191505092915050565b6000612f3b8261385e565b612f4581856138a3565b9350612f55818560208601613993565b612f5e816139fe565b840191505092915050565b6000612f748261385e565b612f7e81856138c5565b9350612f8e818560208601613993565b80840191505092915050565b600081546001811660008114612fb75760018114612fdc57613020565b607f6002830416612fc881876138c5565b955060ff1983168652808601935050613020565b60028204612fea81876138c5565b9550612ff58561382b565b60005b8281101561301757815481890152600182019150602081019050612ff8565b82880195505050505b505092915050565b60006130356008836138c5565b91507f266673436f64653d0000000000000000000000000000000000000000000000006000830152600882019050919050565b6000613075601b836138b4565b91507f536166654d6174683a206164646974696f6e206f766572666c6f7700000000006000830152602082019050919050565b60006130b56023836138b4565b91507f756e61626c6520746f207472616e73666572416e6443616c6c20746f206f726160008301527f636c6500000000000000000000000000000000000000000000000000000000006020830152604082019050919050565b600061311b601a836138b4565b91507f536166654d6174683a206469766973696f6e206279207a65726f0000000000006000830152602082019050919050565b600061315b6009836138c5565b91507f3f616972706f72743d00000000000000000000000000000000000000000000006000830152600982019050919050565b600061319b6006836138c5565b91507f3f66726f6d3d00000000000000000000000000000000000000000000000000006000830152600682019050919050565b60006131db6021836138b4565b91507f536166654d6174683a206d756c7469706c69636174696f6e206f766572666c6f60008301527f77000000000000000000000000000000000000000000000000000000000000006020830152604082019050919050565b6000613241600d836138c5565b91507f2663617272696572436f64653d000000000000000000000000000000000000006000830152600d82019050919050565b60006132816006836138c5565b91507f2e73636f726500000000000000000000000000000000000000000000000000006000830152600682019050919050565b600060e08301600083015184820360008601526132d18282612f30565b915050602083015184820360208601526132eb8282612f30565b915050604083015184820360408601526133058282612f30565b9150506060830151848203606086015261331f8282612f30565b915050608083015184820360808601526133398282612f30565b91505060a083015184820360a08601526133538282612f30565b91505060c083015184820360c086015261336d8282612f30565b9150508091505092915050565b60006060830160008301516133926000860182612e32565b5060208301516133a5602086018261346f565b50604083015184820360408601526133bd8282612f30565b9150508091505092915050565b600060c08301600083015184820360008601526133e78282612f30565b91505060208301516133fc6020860182612d9f565b50604083015184820360408601526134148282612dbd565b9150506060830151848203606086015261342e82826132b4565b91505060808301518482036080860152613448828261337a565b91505060a083015184820360a0860152613462828261337a565b9150508091505092915050565b61347881613956565b82525050565b61348781613956565b82525050565b61349e61349982613956565b6139f4565b82525050565b60006134b08286612ee8565b6014820191506134c08285612e50565b6020820191506134d0828461348d565b602082019150819050949350505050565b60006134ed8284612f69565b915081905092915050565b60006135048284612eff565b915081905092915050565b600061351b8284612eff565b915061352682613274565b915081905092915050565b600061353d8285612f69565b91506135488261314e565b91506135548284612eff565b91508190509392505050565b600061356c8287612f69565b91506135778261318e565b91506135838286612eff565b915061358e82613028565b915061359a8285612eff565b91506135a582613234565b91506135b18284612eff565b915081905095945050505050565b60006135cb8284612f9a565b915081905092915050565b60006020820190506135eb6000830184612dae565b92915050565b600061010082019050613607600083018b612dae565b613614602083018a61347e565b6136216040830189612e41565b61362e6060830188612dae565b61363b6080830187612e67565b61364860a083018661347e565b61365560c083018561347e565b81810360e08301526136678184612eaf565b90509998505050505050505050565b600060608201905061368b6000830186612dae565b613698602083018561347e565b81810360408301526136aa8184612e76565b9050949350505050565b600060208201905081810360008301526136cd81613068565b9050919050565b600060208201905081810360008301526136ed816130a8565b9050919050565b6000602082019050818103600083015261370d8161310e565b9050919050565b6000602082019050818103600083015261372d816131ce565b9050919050565b6000602082019050818103600083015261374e81846133ca565b905092915050565b600060208201905061376b600083018461347e565b92915050565b6000604051905081810181811067ffffffffffffffff8211171561379457600080fd5b8060405250919050565b600067ffffffffffffffff8211156137b557600080fd5b602082029050602081019050919050565b600067ffffffffffffffff8211156137dd57600080fd5b601f19601f8301169050602081019050919050565b600067ffffffffffffffff82111561380957600080fd5b601f19601f8301169050602081019050919050565b6000602082019050919050565b60008160005260206000209050919050565b600081519050919050565b600081519050919050565b600081519050919050565b600081519050919050565b600081519050919050565b6000602082019050919050565b600082825260208201905092915050565b600082825260208201905092915050565b600082825260208201905092915050565b600082825260208201905092915050565b600081905092915050565b60006138db82613936565b9050919050565b60006138ed82613936565b9050919050565b60008115159050919050565b6000819050919050565b60007fffffffff0000000000000000000000000000000000000000000000000000000082169050919050565b600073ffffffffffffffffffffffffffffffffffffffff82169050919050565b6000819050919050565b600061396b82613972565b9050919050565b600061397d82613936565b9050919050565b82818337600083830152505050565b60005b838110156139b1578082015181840152602081019050613996565b838111156139c0576000848401525b50505050565b60006139d1826139e2565b9050919050565b6000819050919050565b60006139ed82613a0f565b9050919050565b6000819050919050565b6000601f19601f8301169050919050565b60008160601b9050919050565b613a25816138e2565b8114613a3057600080fd5b50565b613a3c816138f4565b8114613a4757600080fd5b50565b613a5381613900565b8114613a5e57600080fd5b50565b613a6a81613956565b8114613a7557600080fd5b5056fe68747470733a2f2f666c79742e726f62696e74686f6d6173323539312e6e6f772e73682f616972706f72742f64656c617968747470733a2f2f666c79742e726f62696e74686f6d6173323539312e6e6f772e73682f666c696768742f7374617473a265627a7a72305820114f1e51a87e65a6e174f51dcdb411990655b27b53c4c0a8ea922024d41b3e4e6c6578706572696d656e74616cf50037",
  "source": "pragma solidity >=0.5.0 <0.6.0;\npragma experimental ABIEncoderV2;\n\nimport \"chainlink/v0.5/contracts/ChainlinkClient.sol\";\nimport {\n    SafeMath as SafeMath_Chainlink\n} from \"chainlink/v0.5/contracts/vendor/SafeMath.sol\";\n\ncontract Flyt is ChainlinkClient {\n    using SafeMath_Chainlink for uint256;\n\n    bytes32 private constant JOB_ID = \"3cff0a3524694ff8834bda9cf9c779a1\";\n    address private constant ORACLE = 0xc99B3D447826532722E41bc36e644ba3479E4365;\n\n    string private constant GET_AIRPORT_DELAY_URL = \"https://flyt.robinthomas2591.now.sh/airport/delay\";\n    string private constant GET_FLIGHT_RATING_URL = \"https://flyt.robinthomas2591.now.sh/flight/stats\";\n\n    address public owner;\n\n    struct Flight {\n        string from;\n        string to;\n        string fsCode;\n        string carrierCode;\n        string name;\n        string departureTime;\n        string arrivalTime;\n    }\n\n    struct Payment {\n        bool paid;\n        uint256 amount;\n        string txHash;\n    }\n\n    struct Policy {\n        string policyId;\n        address payable owner;\n        string[] products;\n        Flight flight;\n        Payment premium;\n        Payment payment;\n    }\n\n    enum PremiumRequestStatus {\n      INIT,\n      SENT,\n      COMPLETED\n    }\n\n    struct Premium {\n        bool init;\n        uint256 airportRating;\n        uint256 flightRating;\n        PremiumRequestStatus hasAirportRating;\n        PremiumRequestStatus hasFlightRating;\n    }\n\n    mapping(string => bool) isPolicy;\n    mapping(string => Policy) policies;\n    mapping(string => Premium) premiums;\n    mapping(bytes32 => string) requests;\n\n    constructor() public {\n        setPublicChainlinkToken();\n        setChainlinkOracle(ORACLE);\n        owner = msg.sender; // set the owner of the contract.\n    }\n\n    modifier _ownerOnly() {\n        require(msg.sender == owner);\n        _;\n    }\n\n    // Create a new policy.\n    function createNewPolicy(Policy memory _policy) public _ownerOnly {\n        policies[_policy.policyId] = _policy;\n        isPolicy[_policy.policyId] = true;\n    }\n\n    // Get policy details.\n    function getPolicy(string memory _policyId)\n        public\n        view\n        _ownerOnly\n        returns (Policy memory)\n    {\n        if (isPolicy[_policyId] == true) {\n            // Policy exists.\n            Policy memory _policy = policies[_policyId];\n            return _policy;\n        } else {\n            // Policy doesnt exist.\n            // Return a dummy.\n            string[] memory products;\n            Policy memory _policy = Policy(\n                \"0\",\n                address(0),\n                products,\n                Flight(\"\", \"\", \"\", \"\", \"\", \"\", \"\"),\n                Payment(false, 0, \"\"),\n                Payment(false, 0, \"\")\n            );\n            return _policy;\n        }\n    }\n\n    function getPremium(string memory _policyId) public view _ownerOnly returns (uint256 result) {\n      // Calculate the premium if chainlink requests have all returned.\n      // Its done using weighted average.\n      // result = 0;\n      if (\n          premiums[_policyId].hasAirportRating == PremiumRequestStatus.COMPLETED &&\n          premiums[_policyId].hasFlightRating == PremiumRequestStatus.COMPLETED\n      ) {\n          // Calculate the value based on weighted average.\n          // Flight Rating (based on historical performance) is given 70% weightage.\n          // Departure Airport Rating is given 30% weightage.\n          uint256 a = premiums[_policyId].flightRating.mul(7);\n          uint256 f = premiums[_policyId].airportRating.mul(3);\n          result = a.add(f).div(10);\n      }\n    }\n\n    // Calculate the policy premium.\n    function calculatePremium(\n        string memory _policyId,\n        string memory _from,\n        string memory _fsCode,\n        string memory _carrierCode\n    ) public _ownerOnly {\n        // Set the initial state.\n        if (premiums[_policyId].init == false) {\n          premiums[_policyId].hasAirportRating = PremiumRequestStatus.INIT;\n          premiums[_policyId].hasFlightRating = PremiumRequestStatus.INIT;\n          premiums[_policyId].init = true;\n        }\n\n        // Send the chainlink requests to the oracles if not sent.\n        if (premiums[_policyId].hasAirportRating == PremiumRequestStatus.INIT) {\n            getAirportRating(_policyId, _from);\n        }\n        if (premiums[_policyId].hasFlightRating == PremiumRequestStatus.INIT) {\n            getFlightRating(_policyId, _from, _fsCode, _carrierCode);\n        }\n    }\n\n    function getAirportRating(string memory _policyId, string memory _airport)\n        private\n        returns (bytes32 requestId)\n    {\n        Chainlink.Request memory req = buildChainlinkRequest(\n            JOB_ID,\n            address(this),\n            this.setAirportRating.selector\n        );\n\n        req.add(\n            \"get\",\n            string(\n                abi.encodePacked(GET_AIRPORT_DELAY_URL, \"?airport=\", _airport)\n            )\n        );\n\n        req.add(\"path\", string(abi.encodePacked(_airport, \".score\")));\n        req.addInt(\"times\", 1);\n\n        requestId = sendChainlinkRequest(req, 1 * LINK);\n\n        requests[requestId] = _policyId;\n        premiums[_policyId].hasAirportRating = PremiumRequestStatus.SENT;\n    }\n\n    function setAirportRating(bytes32 _requestId, uint256 _score)\n        public\n    {\n        premiums[requests[_requestId]].hasAirportRating = PremiumRequestStatus.COMPLETED;\n        premiums[requests[_requestId]].airportRating = _score;\n    }\n\n    function getFlightRating(\n        string memory _policyId,\n        string memory _from,\n        string memory _fsCode,\n        string memory _carrierCode\n    ) private returns (bytes32 requestId) {\n        Chainlink.Request memory req = buildChainlinkRequest(\n            JOB_ID,\n            address(this),\n            this.setFlightRating.selector\n        );\n\n        req.add(\n            \"get\",\n            string(\n                abi.encodePacked(\n                    GET_FLIGHT_RATING_URL,\n                    \"?from=\",\n                    _from,\n                    \"&fsCode=\",\n                    _fsCode,\n                    \"&carrierCode=\",\n                    _carrierCode\n                )\n            )\n        );\n\n        req.add(\"path\", \"score\");\n\n        requestId = sendChainlinkRequest(req, 1 * LINK);\n\n        requests[requestId] = _policyId;\n        premiums[_policyId].hasFlightRating = PremiumRequestStatus.SENT;\n    }\n\n    function setFlightRating(bytes32 _requestId, uint256 _rating)\n        public\n    {\n        premiums[requests[_requestId]].hasFlightRating = PremiumRequestStatus.COMPLETED;\n        premiums[requests[_requestId]].flightRating = _rating;\n    }\n\n    function payPolicy(string memory _policyId, uint256 amount)\n        public\n        _ownerOnly\n    {\n        require(isPolicy[_policyId] == true);\n        require(policies[_policyId].owner != address(0));\n        require(policies[_policyId].premium.paid == true);\n        require(policies[_policyId].payment.paid == false);\n\n        policies[_policyId].owner.transfer(amount);\n\n        policies[_policyId].payment.paid = true;\n        policies[_policyId].payment.amount = amount;\n    }\n\n    function() external payable {}\n\n}\n",
  "sourcePath": "/home/robin/Workspace/flight/src/truffle/contracts/Flyt.sol",
  "compiler": {
    "name": "solc",
    "version": "0.5.8+commit.23d335f2.Emscripten.clang"
  },
  "schemaVersion": "3.0.16",
  "updatedAt": "2019-10-28T12:27:11.201Z",
  "devdoc": {
    "methods": {}
  },
  "userdoc": {
    "methods": {}
  }
}