{
  "contractName": "Flyt",
  "abi": [
    {
      "constant": true,
      "inputs": [],
      "name": "owner",
      "outputs": [
        {
          "name": "",
          "type": "address"
        }
      ],
      "payable": false,
      "stateMutability": "view",
      "type": "function"
    },
    {
      "constant": true,
      "inputs": [],
      "name": "isOwner",
      "outputs": [
        {
          "name": "",
          "type": "bool"
        }
      ],
      "payable": false,
      "stateMutability": "view",
      "type": "function"
    },
    {
      "constant": false,
      "inputs": [
        {
          "name": "newOwner",
          "type": "address"
        }
      ],
      "name": "transferOwnership",
      "outputs": [],
      "payable": false,
      "stateMutability": "nonpayable",
      "type": "function"
    },
    {
      "inputs": [
        {
          "name": "_link",
          "type": "address"
        },
        {
          "name": "_oracle",
          "type": "address"
        },
        {
          "name": "_jobId",
          "type": "bytes32"
        }
      ],
      "payable": false,
      "stateMutability": "nonpayable",
      "type": "constructor"
    },
    {
      "payable": true,
      "stateMutability": "payable",
      "type": "fallback"
    },
    {
      "anonymous": false,
      "inputs": [
        {
          "indexed": true,
          "name": "previousOwner",
          "type": "address"
        },
        {
          "indexed": true,
          "name": "newOwner",
          "type": "address"
        }
      ],
      "name": "OwnershipTransferred",
      "type": "event"
    },
    {
      "anonymous": false,
      "inputs": [
        {
          "indexed": true,
          "name": "id",
          "type": "bytes32"
        }
      ],
      "name": "ChainlinkRequested",
      "type": "event"
    },
    {
      "anonymous": false,
      "inputs": [
        {
          "indexed": true,
          "name": "id",
          "type": "bytes32"
        }
      ],
      "name": "ChainlinkFulfilled",
      "type": "event"
    },
    {
      "anonymous": false,
      "inputs": [
        {
          "indexed": true,
          "name": "id",
          "type": "bytes32"
        }
      ],
      "name": "ChainlinkCancelled",
      "type": "event"
    },
    {
      "constant": false,
      "inputs": [
        {
          "components": [
            {
              "name": "policyId",
              "type": "string"
            },
            {
              "name": "owner",
              "type": "address"
            },
            {
              "name": "products",
              "type": "string[]"
            },
            {
              "components": [
                {
                  "name": "from",
                  "type": "string"
                },
                {
                  "name": "to",
                  "type": "string"
                },
                {
                  "name": "fsCode",
                  "type": "string"
                },
                {
                  "name": "carrierCode",
                  "type": "string"
                },
                {
                  "name": "name",
                  "type": "string"
                },
                {
                  "name": "departureTime",
                  "type": "string"
                },
                {
                  "name": "arrivalTime",
                  "type": "string"
                }
              ],
              "name": "flight",
              "type": "tuple"
            },
            {
              "components": [
                {
                  "name": "paid",
                  "type": "bool"
                },
                {
                  "name": "amount",
                  "type": "uint256"
                },
                {
                  "name": "txHash",
                  "type": "string"
                }
              ],
              "name": "premium",
              "type": "tuple"
            },
            {
              "components": [
                {
                  "name": "paid",
                  "type": "bool"
                },
                {
                  "name": "amount",
                  "type": "uint256"
                },
                {
                  "name": "txHash",
                  "type": "string"
                }
              ],
              "name": "payment",
              "type": "tuple"
            }
          ],
          "name": "_policy",
          "type": "tuple"
        }
      ],
      "name": "createNewPolicy",
      "outputs": [],
      "payable": false,
      "stateMutability": "nonpayable",
      "type": "function"
    },
    {
      "constant": true,
      "inputs": [
        {
          "name": "_policyId",
          "type": "string"
        }
      ],
      "name": "getPolicy",
      "outputs": [
        {
          "components": [
            {
              "name": "policyId",
              "type": "string"
            },
            {
              "name": "owner",
              "type": "address"
            },
            {
              "name": "products",
              "type": "string[]"
            },
            {
              "components": [
                {
                  "name": "from",
                  "type": "string"
                },
                {
                  "name": "to",
                  "type": "string"
                },
                {
                  "name": "fsCode",
                  "type": "string"
                },
                {
                  "name": "carrierCode",
                  "type": "string"
                },
                {
                  "name": "name",
                  "type": "string"
                },
                {
                  "name": "departureTime",
                  "type": "string"
                },
                {
                  "name": "arrivalTime",
                  "type": "string"
                }
              ],
              "name": "flight",
              "type": "tuple"
            },
            {
              "components": [
                {
                  "name": "paid",
                  "type": "bool"
                },
                {
                  "name": "amount",
                  "type": "uint256"
                },
                {
                  "name": "txHash",
                  "type": "string"
                }
              ],
              "name": "premium",
              "type": "tuple"
            },
            {
              "components": [
                {
                  "name": "paid",
                  "type": "bool"
                },
                {
                  "name": "amount",
                  "type": "uint256"
                },
                {
                  "name": "txHash",
                  "type": "string"
                }
              ],
              "name": "payment",
              "type": "tuple"
            }
          ],
          "name": "",
          "type": "tuple"
        }
      ],
      "payable": false,
      "stateMutability": "view",
      "type": "function"
    },
    {
      "constant": true,
      "inputs": [
        {
          "name": "_policyId",
          "type": "string"
        }
      ],
      "name": "getPremium",
      "outputs": [
        {
          "name": "_result",
          "type": "uint256"
        }
      ],
      "payable": false,
      "stateMutability": "view",
      "type": "function"
    },
    {
      "constant": false,
      "inputs": [
        {
          "name": "_policyId",
          "type": "string"
        },
        {
          "name": "_from",
          "type": "string"
        },
        {
          "name": "_fsCode",
          "type": "string"
        },
        {
          "name": "_carrierCode",
          "type": "string"
        }
      ],
      "name": "calculatePremium",
      "outputs": [],
      "payable": false,
      "stateMutability": "nonpayable",
      "type": "function"
    },
    {
      "constant": false,
      "inputs": [
        {
          "name": "_requestId",
          "type": "bytes32"
        },
        {
          "name": "_score",
          "type": "uint256"
        }
      ],
      "name": "setAirportRating",
      "outputs": [],
      "payable": false,
      "stateMutability": "nonpayable",
      "type": "function"
    },
    {
      "constant": false,
      "inputs": [
        {
          "name": "_requestId",
          "type": "bytes32"
        },
        {
          "name": "_rating",
          "type": "uint256"
        }
      ],
      "name": "setFlightRating",
      "outputs": [],
      "payable": false,
      "stateMutability": "nonpayable",
      "type": "function"
    },
    {
      "constant": false,
      "inputs": [
        {
          "name": "_policyId",
          "type": "string"
        },
        {
          "name": "amount",
          "type": "uint256"
        }
      ],
      "name": "payPolicy",
      "outputs": [],
      "payable": false,
      "stateMutability": "nonpayable",
      "type": "function"
    }
  ],
  "bytecode": "0x608060405260016004553480156200001657600080fd5b50604051606080620043e0833981018060405262000038919081019062000365565b33600660006101000a81548173ffffffffffffffffffffffffffffffffffffffff021916908373ffffffffffffffffffffffffffffffffffffffff160217905550600660009054906101000a900473ffffffffffffffffffffffffffffffffffffffff1673ffffffffffffffffffffffffffffffffffffffff16600073ffffffffffffffffffffffffffffffffffffffff167f8be0079c531659141344cd1fd0a4f28419497f9722a3daafe3b4186f6b6457e060405160405180910390a3600073ffffffffffffffffffffffffffffffffffffffff168373ffffffffffffffffffffffffffffffffffffffff161415620001a0576200013c620001db60201b60201c565b6200016173c99b3d447826532722e41bc36e644ba3479e43656200028360201b60201c565b7f3363666630613335323436393466663838333462646139636639633737396131600781905550670de0b6b3a7640000600102600881905550620001d2565b620001b183620002c760201b60201c565b620001c2826200028360201b60201c565b8060078190555060016008819055505b5050506200042d565b6200028173c89bd4e1632d3a43cb03aaad5262cbe4038bc57173ffffffffffffffffffffffffffffffffffffffff166338cc48316040518163ffffffff1660e01b815260040160206040518083038186803b1580156200023a57600080fd5b505afa1580156200024f573d6000803e3d6000fd5b505050506040513d601f19601f8201168201806040525062000275919081019062000339565b620002c760201b60201c565b565b80600360006101000a81548173ffffffffffffffffffffffffffffffffffffffff021916908373ffffffffffffffffffffffffffffffffffffffff16021790555050565b80600260006101000a81548173ffffffffffffffffffffffffffffffffffffffff021916908373ffffffffffffffffffffffffffffffffffffffff16021790555050565b6000815190506200031c81620003f9565b92915050565b600081519050620003338162000413565b92915050565b6000602082840312156200034c57600080fd5b60006200035c848285016200030b565b91505092915050565b6000806000606084860312156200037b57600080fd5b60006200038b868287016200030b565b93505060206200039e868287016200030b565b9250506040620003b18682870162000322565b9150509250925092565b6000620003c882620003d9565b9050919050565b6000819050919050565b600073ffffffffffffffffffffffffffffffffffffffff82169050919050565b6200040481620003bb565b81146200041057600080fd5b50565b6200041e81620003cf565b81146200042a57600080fd5b50565b613fa3806200043d6000396000f3fe6080604052600436106100915760003560e01c80638f32d59b116100595780638f32d59b14610176578063c6bf8fc3146101a1578063f2fde38b146101ca578063f71f1d9e146101f3578063fe3168f61461023057610091565b80632abc7beb146100935780633794b04c146100bc57806360dd5f90146100e55780636b3b314f146101225780638da5cb5b1461014b575b005b34801561009f57600080fd5b506100ba60048036036100b59190810190612f48565b610259565b005b3480156100c857600080fd5b506100e360048036036100de9190810190612ecb565b610456565b005b3480156100f157600080fd5b5061010c60048036036101079190810190612f07565b6105ed565b6040516101199190613bb7565b60405180910390f35b34801561012e57600080fd5b506101496004803603610144919081019061300b565b61104e565b005b34801561015757600080fd5b506101606112c2565b60405161016d91906139de565b60405180910390f35b34801561018257600080fd5b5061018b6112ec565b6040516101989190613abc565b60405180910390f35b3480156101ad57600080fd5b506101c860048036036101c3919081019061305f565b611344565b005b3480156101d657600080fd5b506101f160048036036101ec9190810190612e79565b611611565b005b3480156101ff57600080fd5b5061021a60048036036102159190810190612f07565b611664565b6040516102279190613bd9565b60405180910390f35b34801561023c57600080fd5b5061025760048036036102529190810190612ecb565b61175d565b005b6102616112ec565b6102a0576040517f08c379a000000000000000000000000000000000000000000000000000000000815260040161029790613b77565b60405180910390fd5b60001515600b856040516102b49190613900565b908152602001604051809103902060000160009054906101000a900460ff161515141561039c576000600b856040516102ed9190613900565b908152602001604051809103902060030160006101000a81548160ff0219169083600281111561031957fe5b02179055506000600b856040516103309190613900565b908152602001604051809103902060030160016101000a81548160ff0219169083600281111561035c57fe5b02179055506001600b856040516103739190613900565b908152602001604051809103902060000160006101000a81548160ff0219169083151502179055505b600060028111156103a957fe5b600b856040516103b99190613900565b908152602001604051809103902060030160009054906101000a900460ff1660028111156103e357fe5b14156103f5576103f384846118f4565b505b6000600281111561040257fe5b600b856040516104129190613900565b908152602001604051809103902060030160019054906101000a900460ff16600281111561043c57fe5b14156104505761044e848484846119df565b505b50505050565b816005600082815260200190815260200160002060009054906101000a900473ffffffffffffffffffffffffffffffffffffffff1673ffffffffffffffffffffffffffffffffffffffff163373ffffffffffffffffffffffffffffffffffffffff16146104f8576040517f08c379a00000000000000000000000000000000000000000000000000000000081526004016104ef90613b97565b60405180910390fd5b6005600082815260200190815260200160002060006101000a81549073ffffffffffffffffffffffffffffffffffffffff0219169055807f7cc135e0cebb02c3480ae5d74d377283180a2601f8f644edf7987b009316c63a60405160405180910390a26002600b600c600086815260200190815260200160002060405161057f91906139c7565b908152602001604051809103902060030160016101000a81548160ff021916908360028111156105ab57fe5b021790555081600b600c60008681526020019081526020016000206040516105d391906139c7565b908152602001604051809103902060020181905550505050565b6105f56126a2565b6105fd6112ec565b61063c576040517f08c379a000000000000000000000000000000000000000000000000000000000815260040161063390613b77565b60405180910390fd5b600115156009836040516106509190613900565b908152602001604051809103902060009054906101000a900460ff1615151415610ec95761067c6126a2565b600a8360405161068c9190613900565b90815260200160405180910390206040518060c0016040529081600082018054600181600116156101000203166002900480601f01602080910402602001604051908101604052809291908181526020018280546001816001161561010002031660029004801561073e5780601f106107135761010080835404028352916020019161073e565b820191906000526020600020905b81548152906001019060200180831161072157829003601f168201915b505050505081526020016001820160009054906101000a900473ffffffffffffffffffffffffffffffffffffffff1673ffffffffffffffffffffffffffffffffffffffff1673ffffffffffffffffffffffffffffffffffffffff16815260200160028201805480602002602001604051908101604052809291908181526020016000905b8282101561087e578382906000526020600020018054600181600116156101000203166002900480601f01602080910402602001604051908101604052809291908181526020018280546001816001161561010002031660029004801561086a5780601f1061083f5761010080835404028352916020019161086a565b820191906000526020600020905b81548152906001019060200180831161084d57829003601f168201915b5050505050815260200190600101906107c2565b505050508152602001600382016040518060e0016040529081600082018054600181600116156101000203166002900480601f01602080910402602001604051908101604052809291908181526020018280546001816001161561010002031660029004801561092f5780601f106109045761010080835404028352916020019161092f565b820191906000526020600020905b81548152906001019060200180831161091257829003601f168201915b50505050508152602001600182018054600181600116156101000203166002900480601f0160208091040260200160405190810160405280929190818152602001828054600181600116156101000203166002900480156109d15780601f106109a6576101008083540402835291602001916109d1565b820191906000526020600020905b8154815290600101906020018083116109b457829003601f168201915b50505050508152602001600282018054600181600116156101000203166002900480601f016020809104026020016040519081016040528092919081815260200182805460018160011615610100020316600290048015610a735780601f10610a4857610100808354040283529160200191610a73565b820191906000526020600020905b815481529060010190602001808311610a5657829003601f168201915b50505050508152602001600382018054600181600116156101000203166002900480601f016020809104026020016040519081016040528092919081815260200182805460018160011615610100020316600290048015610b155780601f10610aea57610100808354040283529160200191610b15565b820191906000526020600020905b815481529060010190602001808311610af857829003601f168201915b50505050508152602001600482018054600181600116156101000203166002900480601f016020809104026020016040519081016040528092919081815260200182805460018160011615610100020316600290048015610bb75780601f10610b8c57610100808354040283529160200191610bb7565b820191906000526020600020905b815481529060010190602001808311610b9a57829003601f168201915b50505050508152602001600582018054600181600116156101000203166002900480601f016020809104026020016040519081016040528092919081815260200182805460018160011615610100020316600290048015610c595780601f10610c2e57610100808354040283529160200191610c59565b820191906000526020600020905b815481529060010190602001808311610c3c57829003601f168201915b50505050508152602001600682018054600181600116156101000203166002900480601f016020809104026020016040519081016040528092919081815260200182805460018160011615610100020316600290048015610cfb5780601f10610cd057610100808354040283529160200191610cfb565b820191906000526020600020905b815481529060010190602001808311610cde57829003601f168201915b5050505050815250508152602001600a82016040518060600160405290816000820160009054906101000a900460ff1615151515815260200160018201548152602001600282018054600181600116156101000203166002900480601f016020809104026020016040519081016040528092919081815260200182805460018160011615610100020316600290048015610dd65780601f10610dab57610100808354040283529160200191610dd6565b820191906000526020600020905b815481529060010190602001808311610db957829003601f168201915b5050505050815250508152602001600d82016040518060600160405290816000820160009054906101000a900460ff1615151515815260200160018201548152602001600282018054600181600116156101000203166002900480601f016020809104026020016040519081016040528092919081815260200182805460018160011615610100020316600290048015610eb15780601f10610e8657610100808354040283529160200191610eb1565b820191906000526020600020905b815481529060010190602001808311610e9457829003601f168201915b50505050508152505081525050905080915050611049565b6060610ed36126a2565b6040518060c001604052806040518060400160405280600181526020017f30000000000000000000000000000000000000000000000000000000000000008152508152602001600073ffffffffffffffffffffffffffffffffffffffff1681526020018381526020016040518060e0016040528060405180602001604052806000815250815260200160405180602001604052806000815250815260200160405180602001604052806000815250815260200160405180602001604052806000815250815260200160405180602001604052806000815250815260200160405180602001604052806000815250815260200160405180602001604052806000815250815250815260200160405180606001604052806000151581526020016000815260200160405180602001604052806000815250815250815260200160405180606001604052806000151581526020016000815260200160405180602001604052806000815250815250815250905080925050505b919050565b6110566112ec565b611095576040517f08c379a000000000000000000000000000000000000000000000000000000000815260040161108c90613b77565b60405180910390fd5b600115156009836040516110a99190613900565b908152602001604051809103902060009054906101000a900460ff161515146110d157600080fd5b600073ffffffffffffffffffffffffffffffffffffffff16600a836040516110f99190613900565b908152602001604051809103902060010160009054906101000a900473ffffffffffffffffffffffffffffffffffffffff1673ffffffffffffffffffffffffffffffffffffffff16141561114c57600080fd5b60011515600a836040516111609190613900565b9081526020016040518091039020600a0160000160009054906101000a900460ff1615151461118e57600080fd5b60001515600a836040516111a29190613900565b9081526020016040518091039020600d0160000160009054906101000a900460ff161515146111d057600080fd5b600a826040516111e09190613900565b908152602001604051809103902060010160009054906101000a900473ffffffffffffffffffffffffffffffffffffffff1673ffffffffffffffffffffffffffffffffffffffff166108fc829081150290604051600060405180830381858888f19350505050158015611257573d6000803e3d6000fd5b506001600a8360405161126a9190613900565b9081526020016040518091039020600d0160000160006101000a81548160ff02191690831515021790555080600a836040516112a69190613900565b9081526020016040518091039020600d01600101819055505050565b6000600660009054906101000a900473ffffffffffffffffffffffffffffffffffffffff16905090565b6000600660009054906101000a900473ffffffffffffffffffffffffffffffffffffffff1673ffffffffffffffffffffffffffffffffffffffff163373ffffffffffffffffffffffffffffffffffffffff1614905090565b61134c6112ec565b61138b576040517f08c379a000000000000000000000000000000000000000000000000000000000815260040161138290613b77565b60405180910390fd5b600061139a8260000151611ae0565b90508160800151602001518111156113b157600080fd5b81600a83600001516040516113c691906138e9565b908152602001604051809103902060008201518160000190805190602001906113f0929190612701565b5060208201518160010160006101000a81548173ffffffffffffffffffffffffffffffffffffffff021916908373ffffffffffffffffffffffffffffffffffffffff1602179055506040820151816002019080519060200190611454929190612781565b50606082015181600301600082015181600001908051906020019061147a929190612701565b506020820151816001019080519060200190611497929190612701565b5060408201518160020190805190602001906114b4929190612701565b5060608201518160030190805190602001906114d1929190612701565b5060808201518160040190805190602001906114ee929190612701565b5060a082015181600501908051906020019061150b929190612701565b5060c0820151816006019080519060200190611528929190612701565b505050608082015181600a0160008201518160000160006101000a81548160ff02191690831515021790555060208201518160010155604082015181600201908051906020019061157a929190612701565b50505060a082015181600d0160008201518160000160006101000a81548160ff0219169083151502179055506020820151816001015560408201518160020190805190602001906115cc929190612701565b5050509050506001600983600001516040516115e891906138e9565b908152602001604051809103902060006101000a81548160ff0219169083151502179055505050565b6116196112ec565b611658576040517f08c379a000000000000000000000000000000000000000000000000000000000815260040161164f90613b77565b60405180910390fd5b61166181611bca565b50565b600061166e6112ec565b6116ad576040517f08c379a00000000000000000000000000000000000000000000000000000000081526004016116a490613b77565b60405180910390fd5b600090506002808111156116bd57fe5b600b836040516116cd9190613900565b908152602001604051809103902060030160009054906101000a900460ff1660028111156116f757fe5b148015611747575060028081111561170b57fe5b600b8360405161171b9190613900565b908152602001604051809103902060030160019054906101000a900460ff16600281111561174557fe5b145b156117585761175582611ae0565b90505b919050565b816005600082815260200190815260200160002060009054906101000a900473ffffffffffffffffffffffffffffffffffffffff1673ffffffffffffffffffffffffffffffffffffffff163373ffffffffffffffffffffffffffffffffffffffff16146117ff576040517f08c379a00000000000000000000000000000000000000000000000000000000081526004016117f690613b97565b60405180910390fd5b6005600082815260200190815260200160002060006101000a81549073ffffffffffffffffffffffffffffffffffffffff0219169055807f7cc135e0cebb02c3480ae5d74d377283180a2601f8f644edf7987b009316c63a60405160405180910390a26002600b600c600086815260200190815260200160002060405161188691906139c7565b908152602001604051809103902060030160006101000a81548160ff021916908360028111156118b257fe5b021790555081600b600c60008681526020019081526020016000206040516118da91906139c7565b908152602001604051809103902060010181905550505050565b60006060604051806060016040528060318152602001613f096031913983604051602001611923929190613939565b60405160208183030381529060405290506060836040516020016119479190613917565b604051602081830303815290604052905061196a828263fe3168f660e01b611cfa565b925084600c600085815260200190815260200160002090805190602001906119939291906127e1565b506001600b866040516119a69190613900565b908152602001604051809103902060030160006101000a81548160ff021916908360028111156119d257fe5b0217905550505092915050565b60006060604051806060016040528060308152602001613f3a60309139858585604051602001611a129493929190613968565b6040516020818303038152906040529050611a6a816040518060400160405280600581526020017f73636f7265000000000000000000000000000000000000000000000000000000815250633794b04c60e01b611cfa565b915085600c60008481526020019081526020016000209080519060200190611a939291906127e1565b506001600b87604051611aa69190613900565b908152602001604051809103902060030160016101000a81548160ff02191690836002811115611ad257fe5b021790555050949350505050565b6000611aea6112ec565b611b29576040517f08c379a0000000000000000000000000000000000000000000000000000000008152600401611b2090613b77565b60405180910390fd5b6000611b606007600b85604051611b409190613900565b908152602001604051809103902060020154611dbd90919063ffffffff16565b90506000611b996003600b86604051611b799190613900565b908152602001604051809103902060010154611dbd90919063ffffffff16565b9050611bc1600a611bb38385611e2d90919063ffffffff16565b611e8290919063ffffffff16565b92505050919050565b600073ffffffffffffffffffffffffffffffffffffffff168173ffffffffffffffffffffffffffffffffffffffff161415611c3a576040517f08c379a0000000000000000000000000000000000000000000000000000000008152600401611c3190613ad7565b60405180910390fd5b8073ffffffffffffffffffffffffffffffffffffffff16600660009054906101000a900473ffffffffffffffffffffffffffffffffffffffff1673ffffffffffffffffffffffffffffffffffffffff167f8be0079c531659141344cd1fd0a4f28419497f9722a3daafe3b4186f6b6457e060405160405180910390a380600660006101000a81548173ffffffffffffffffffffffffffffffffffffffff021916908373ffffffffffffffffffffffffffffffffffffffff16021790555050565b6000611d04612861565b611d116007543085611ede565b9050611d5d6040518060400160405280600381526020017f75726c00000000000000000000000000000000000000000000000000000000008152508683611f0f9092919063ffffffff16565b611da76040518060400160405280600481526020017f70617468000000000000000000000000000000000000000000000000000000008152508583611f0f9092919063ffffffff16565b611db381600854611f42565b9150509392505050565b600080831415611dd05760009050611e27565b6000828402905082848281611de157fe5b0414611e22576040517f08c379a0000000000000000000000000000000000000000000000000000000008152600401611e1990613b57565b60405180910390fd5b809150505b92915050565b600080828401905083811015611e78576040517f08c379a0000000000000000000000000000000000000000000000000000000008152600401611e6f90613af7565b60405180910390fd5b8091505092915050565b6000808211611ec6576040517f08c379a0000000000000000000000000000000000000000000000000000000008152600401611ebd90613b37565b60405180910390fd5b6000828481611ed157fe5b0490508091505092915050565b611ee6612861565b611eee612861565b611f0585858584611f79909392919063ffffffff16565b9150509392505050565b611f2682846080015161202990919063ffffffff16565b611f3d81846080015161202990919063ffffffff16565b505050565b6000611f71600360009054906101000a900473ffffffffffffffffffffffffffffffffffffffff16848461204e565b905092915050565b611f81612861565b611f91856080015161010061221b565b508385600001818152505082856020019073ffffffffffffffffffffffffffffffffffffffff16908173ffffffffffffffffffffffffffffffffffffffff16815250508185604001907bffffffffffffffffffffffffffffffffffffffffffffffffffffffff191690817bffffffffffffffffffffffffffffffffffffffffffffffffffffffff191681525050849050949350505050565b612036826003835161226f565b61204981836123b490919063ffffffff16565b505050565b6000306004546040516020016120659291906138bd565b604051602081830303815290604052805190602001209050600454836060018181525050836005600083815260200190815260200160002060006101000a81548173ffffffffffffffffffffffffffffffffffffffff021916908373ffffffffffffffffffffffffffffffffffffffff160217905550807fb5e6e01e79f91267dc17b4e6314d5d4d03593d2ceee0fbb452b750bd70ea5af960405160405180910390a2600260009054906101000a900473ffffffffffffffffffffffffffffffffffffffff1673ffffffffffffffffffffffffffffffffffffffff16634000aea08584612151876123d6565b6040518463ffffffff1660e01b815260040161216f93929190613a7e565b602060405180830381600087803b15801561218957600080fd5b505af115801561219d573d6000803e3d6000fd5b505050506040513d601f19601f820116820180604052506121c19190810190612ea2565b612200576040517f08c379a00000000000000000000000000000000000000000000000000000000081526004016121f790613b17565b60405180910390fd5b60016004600082825401925050819055508090509392505050565b6122236128ce565b60006020838161222f57fe5b0614612248576020828161223f57fe5b06602003820191505b81836020018181525050604051808452600081528281016020016040525082905092915050565b6017811161229c576122968160058460ff16901b60ff1617846124b890919063ffffffff16565b506123af565b60ff81116122de576122c1601860058460ff16901b17846124b890919063ffffffff16565b506122d8816001856124d89092919063ffffffff16565b506123ae565b61ffff811161232157612304601960058460ff16901b17846124b890919063ffffffff16565b5061231b816002856124d89092919063ffffffff16565b506123ad565b63ffffffff811161236657612349601a60058460ff16901b17846124b890919063ffffffff16565b50612360816004856124d89092919063ffffffff16565b506123ac565b67ffffffffffffffff81116123ab57612392601b60058460ff16901b17846124b890919063ffffffff16565b506123a9816008856124d89092919063ffffffff16565b505b5b5b5b5b505050565b6123bc6128ce565b6123ce838460000151518485516124fa565b905092915050565b6060600360009054906101000a900473ffffffffffffffffffffffffffffffffffffffff1673ffffffffffffffffffffffffffffffffffffffff166340429946905060e01b600080846000015185602001518660400151876060015160018960800151600001516040516024016124549897969594939291906139f9565b604051602081830303815290604052907bffffffffffffffffffffffffffffffffffffffffffffffffffffffff19166020820180517bffffffffffffffffffffffffffffffffffffffffffffffffffffffff83818316178352505050509050919050565b6124c06128ce565b6124d083846000015151846125b3565b905092915050565b6124e06128ce565b6124f1848560000151518585612601565b90509392505050565b6125026128ce565b825182111561251057600080fd5b8460200151828501111561253b5761253a8560026125348860200151888701612662565b0261267e565b5b60008086518051876020830101935080888701111561255a5787860182525b60208701925050505b602084106125865780518252602082019150602081019050602084039350612563565b60006001856020036101000a03905080198251168184511681811785525050879350505050949350505050565b6125bb6128ce565b836020015183106125d8576125d784600286602001510261267e565b5b83518051602085830101848153818614156125f4576001820183525b5050508390509392505050565b6126096128ce565b84602001518483011115612627576126268560028685010261267e565b5b60006001836101000a03905085518386820101858319825116178152815185880111156126545784870182525b505085915050949350505050565b60008183111561267457829050612678565b8190505b92915050565b606082600001519050612691838361221b565b5061269c83826123b4565b50505050565b60405180610200016040528060608152602001600073ffffffffffffffffffffffffffffffffffffffff168152602001606081526020016126e16128e8565b81526020016126ee612925565b81526020016126fb612925565b81525090565b828054600181600116156101000203166002900490600052602060002090601f016020900481019282601f1061274257805160ff1916838001178555612770565b82800160010185558215612770579182015b8281111561276f578251825591602001919060010190612754565b5b50905061277d9190612948565b5090565b8280548282559060005260206000209081019282156127d0579160200282015b828111156127cf5782518290805190602001906127bf929190612701565b50916020019190600101906127a1565b5b5090506127dd919061296d565b5090565b828054600181600116156101000203166002900490600052602060002090601f016020900481019282601f1061282257805160ff1916838001178555612850565b82800160010185558215612850579182015b8281111561284f578251825591602001919060010190612834565b5b50905061285d9190612948565b5090565b6040518060c0016040528060008019168152602001600073ffffffffffffffffffffffffffffffffffffffff16815260200160007bffffffffffffffffffffffffffffffffffffffffffffffffffffffff19168152602001600081526020016128c8612999565b81525090565b604051806040016040528060608152602001600081525090565b6040518060e00160405280606081526020016060815260200160608152602001606081526020016060815260200160608152602001606081525090565b604051806060016040528060001515815260200160008152602001606081525090565b61296a91905b8082111561296657600081600090555060010161294e565b5090565b90565b61299691905b80821115612992576000818161298991906129b3565b50600101612973565b5090565b90565b604051806040016040528060608152602001600081525090565b50805460018160011615610100020316600290046000825580601f106129d957506129f8565b601f0160209004906000526020600020908101906129f79190612948565b5b50565b600081359050612a0a81613e95565b92915050565b600081359050612a1f81613eac565b92915050565b600082601f830112612a3657600080fd5b8135612a49612a4482613c21565b613bf4565b9150818183526020840193506020810190508360005b83811015612a8f5781358601612a758882612ad8565b845260208401935060208301925050600181019050612a5f565b5050505092915050565b600081359050612aa881613ec3565b92915050565b600081519050612abd81613ec3565b92915050565b600081359050612ad281613eda565b92915050565b600082601f830112612ae957600080fd5b8135612afc612af782613c49565b613bf4565b91508082526020830160208301858383011115612b1857600080fd5b612b23838284613e07565b50505092915050565b600082601f830112612b3d57600080fd5b8135612b50612b4b82613c75565b613bf4565b91508082526020830160208301858383011115612b6c57600080fd5b612b77838284613e07565b50505092915050565b600060e08284031215612b9257600080fd5b612b9c60e0613bf4565b9050600082013567ffffffffffffffff811115612bb857600080fd5b612bc484828501612ad8565b600083015250602082013567ffffffffffffffff811115612be457600080fd5b612bf084828501612ad8565b602083015250604082013567ffffffffffffffff811115612c1057600080fd5b612c1c84828501612ad8565b604083015250606082013567ffffffffffffffff811115612c3c57600080fd5b612c4884828501612ad8565b606083015250608082013567ffffffffffffffff811115612c6857600080fd5b612c7484828501612ad8565b60808301525060a082013567ffffffffffffffff811115612c9457600080fd5b612ca084828501612ad8565b60a08301525060c082013567ffffffffffffffff811115612cc057600080fd5b612ccc84828501612ad8565b60c08301525092915050565b600060608284031215612cea57600080fd5b612cf46060613bf4565b90506000612d0484828501612a99565b6000830152506020612d1884828501612e64565b602083015250604082013567ffffffffffffffff811115612d3857600080fd5b612d4484828501612ad8565b60408301525092915050565b600060c08284031215612d6257600080fd5b612d6c60c0613bf4565b9050600082013567ffffffffffffffff811115612d8857600080fd5b612d9484828501612ad8565b6000830152506020612da884828501612a10565b602083015250604082013567ffffffffffffffff811115612dc857600080fd5b612dd484828501612a25565b604083015250606082013567ffffffffffffffff811115612df457600080fd5b612e0084828501612b80565b606083015250608082013567ffffffffffffffff811115612e2057600080fd5b612e2c84828501612cd8565b60808301525060a082013567ffffffffffffffff811115612e4c57600080fd5b612e5884828501612cd8565b60a08301525092915050565b600081359050612e7381613ef1565b92915050565b600060208284031215612e8b57600080fd5b6000612e99848285016129fb565b91505092915050565b600060208284031215612eb457600080fd5b6000612ec284828501612aae565b91505092915050565b60008060408385031215612ede57600080fd5b6000612eec85828601612ac3565b9250506020612efd85828601612e64565b9150509250929050565b600060208284031215612f1957600080fd5b600082013567ffffffffffffffff811115612f3357600080fd5b612f3f84828501612b2c565b91505092915050565b60008060008060808587031215612f5e57600080fd5b600085013567ffffffffffffffff811115612f7857600080fd5b612f8487828801612b2c565b945050602085013567ffffffffffffffff811115612fa157600080fd5b612fad87828801612b2c565b935050604085013567ffffffffffffffff811115612fca57600080fd5b612fd687828801612b2c565b925050606085013567ffffffffffffffff811115612ff357600080fd5b612fff87828801612b2c565b91505092959194509250565b6000806040838503121561301e57600080fd5b600083013567ffffffffffffffff81111561303857600080fd5b61304485828601612b2c565b925050602061305585828601612e64565b9150509250929050565b60006020828403121561307157600080fd5b600082013567ffffffffffffffff81111561308b57600080fd5b61309784828501612d50565b91505092915050565b60006130ac838361323d565b905092915050565b6130bd81613d65565b82525050565b6130cc81613d53565b82525050565b60006130dd82613cc0565b6130e78185613d04565b9350836020820285016130f985613ca1565b8060005b85811015613135578484038952815161311685826130a0565b945061312183613cf7565b925060208a019950506001810190506130fd565b50829750879550505050505092915050565b61315081613d77565b82525050565b61315f81613d77565b82525050565b61316e81613d83565b82525050565b61317d81613d8d565b82525050565b600061318e82613cd6565b6131988185613d15565b93506131a8818560208601613e16565b6131b181613e77565b840191505092915050565b60006131c782613ccb565b6131d18185613d15565b93506131e1818560208601613e16565b6131ea81613e77565b840191505092915050565b61320661320182613de3565b613e49565b82525050565b600061321782613cec565b6132218185613d48565b9350613231818560208601613e16565b80840191505092915050565b600061324882613ce1565b6132528185613d26565b9350613262818560208601613e16565b61326b81613e77565b840191505092915050565b600061328182613ce1565b61328b8185613d48565b935061329b818560208601613e16565b80840191505092915050565b6000815460018116600081146132c457600181146132e95761332d565b607f60028304166132d58187613d48565b955060ff198316865280860193505061332d565b600282046132f78187613d48565b955061330285613cae565b60005b8281101561332457815481890152600182019150602081019050613305565b82880195505050505b505092915050565b6000613342602683613d37565b91507f4f776e61626c653a206e6577206f776e657220697320746865207a65726f206160008301527f64647265737300000000000000000000000000000000000000000000000000006020830152604082019050919050565b60006133a8600883613d48565b91507f266673436f64653d0000000000000000000000000000000000000000000000006000830152600882019050919050565b60006133e8601b83613d37565b91507f536166654d6174683a206164646974696f6e206f766572666c6f7700000000006000830152602082019050919050565b6000613428602383613d37565b91507f756e61626c6520746f207472616e73666572416e6443616c6c20746f206f726160008301527f636c6500000000000000000000000000000000000000000000000000000000006020830152604082019050919050565b600061348e601a83613d37565b91507f536166654d6174683a206469766973696f6e206279207a65726f0000000000006000830152602082019050919050565b60006134ce600983613d48565b91507f3f616972706f72743d00000000000000000000000000000000000000000000006000830152600982019050919050565b600061350e600683613d48565b91507f3f66726f6d3d00000000000000000000000000000000000000000000000000006000830152600682019050919050565b600061354e602183613d37565b91507f536166654d6174683a206d756c7469706c69636174696f6e206f766572666c6f60008301527f77000000000000000000000000000000000000000000000000000000000000006020830152604082019050919050565b60006135b4602083613d37565b91507f4f776e61626c653a2063616c6c6572206973206e6f7420746865206f776e65726000830152602082019050919050565b60006135f4602883613d37565b91507f536f75726365206d75737420626520746865206f7261636c65206f662074686560008301527f20726571756573740000000000000000000000000000000000000000000000006020830152604082019050919050565b600061365a600d83613d48565b91507f2663617272696572436f64653d000000000000000000000000000000000000006000830152600d82019050919050565b600061369a600683613d48565b91507f2e73636f726500000000000000000000000000000000000000000000000000006000830152600682019050919050565b600060e08301600083015184820360008601526136ea828261323d565b91505060208301518482036020860152613704828261323d565b9150506040830151848203604086015261371e828261323d565b91505060608301518482036060860152613738828261323d565b91505060808301518482036080860152613752828261323d565b91505060a083015184820360a086015261376c828261323d565b91505060c083015184820360c0860152613786828261323d565b9150508091505092915050565b60006060830160008301516137ab6000860182613147565b5060208301516137be6020860182613888565b50604083015184820360408601526137d6828261323d565b9150508091505092915050565b600060c0830160008301518482036000860152613800828261323d565b915050602083015161381560208601826130b4565b506040830151848203604086015261382d82826130d2565b9150506060830151848203606086015261384782826136cd565b915050608083015184820360808601526138618282613793565b91505060a083015184820360a086015261387b8282613793565b9150508091505092915050565b61389181613dd9565b82525050565b6138a081613dd9565b82525050565b6138b76138b282613dd9565b613e6d565b82525050565b60006138c982856131f5565b6014820191506138d982846138a6565b6020820191508190509392505050565b60006138f58284613276565b915081905092915050565b600061390c828461320c565b915081905092915050565b6000613923828461320c565b915061392e8261368d565b915081905092915050565b60006139458285613276565b9150613950826134c1565b915061395c828461320c565b91508190509392505050565b60006139748287613276565b915061397f82613501565b915061398b828661320c565b91506139968261339b565b91506139a2828561320c565b91506139ad8261364d565b91506139b9828461320c565b915081905095945050505050565b60006139d382846132a7565b915081905092915050565b60006020820190506139f360008301846130c3565b92915050565b600061010082019050613a0f600083018b6130c3565b613a1c602083018a613897565b613a296040830189613165565b613a3660608301886130c3565b613a436080830187613174565b613a5060a0830186613897565b613a5d60c0830185613897565b81810360e0830152613a6f81846131bc565b90509998505050505050505050565b6000606082019050613a9360008301866130c3565b613aa06020830185613897565b8181036040830152613ab28184613183565b9050949350505050565b6000602082019050613ad16000830184613156565b92915050565b60006020820190508181036000830152613af081613335565b9050919050565b60006020820190508181036000830152613b10816133db565b9050919050565b60006020820190508181036000830152613b308161341b565b9050919050565b60006020820190508181036000830152613b5081613481565b9050919050565b60006020820190508181036000830152613b7081613541565b9050919050565b60006020820190508181036000830152613b90816135a7565b9050919050565b60006020820190508181036000830152613bb0816135e7565b9050919050565b60006020820190508181036000830152613bd181846137e3565b905092915050565b6000602082019050613bee6000830184613897565b92915050565b6000604051905081810181811067ffffffffffffffff82111715613c1757600080fd5b8060405250919050565b600067ffffffffffffffff821115613c3857600080fd5b602082029050602081019050919050565b600067ffffffffffffffff821115613c6057600080fd5b601f19601f8301169050602081019050919050565b600067ffffffffffffffff821115613c8c57600080fd5b601f19601f8301169050602081019050919050565b6000602082019050919050565b60008160005260206000209050919050565b600081519050919050565b600081519050919050565b600081519050919050565b600081519050919050565b600081519050919050565b6000602082019050919050565b600082825260208201905092915050565b600082825260208201905092915050565b600082825260208201905092915050565b600082825260208201905092915050565b600081905092915050565b6000613d5e82613db9565b9050919050565b6000613d7082613db9565b9050919050565b60008115159050919050565b6000819050919050565b60007fffffffff0000000000000000000000000000000000000000000000000000000082169050919050565b600073ffffffffffffffffffffffffffffffffffffffff82169050919050565b6000819050919050565b6000613dee82613df5565b9050919050565b6000613e0082613db9565b9050919050565b82818337600083830152505050565b60005b83811015613e34578082015181840152602081019050613e19565b83811115613e43576000848401525b50505050565b6000613e5482613e5b565b9050919050565b6000613e6682613e88565b9050919050565b6000819050919050565b6000601f19601f8301169050919050565b60008160601b9050919050565b613e9e81613d53565b8114613ea957600080fd5b50565b613eb581613d65565b8114613ec057600080fd5b50565b613ecc81613d77565b8114613ed757600080fd5b50565b613ee381613d83565b8114613eee57600080fd5b50565b613efa81613dd9565b8114613f0557600080fd5b5056fe68747470733a2f2f666c79742e726f62696e74686f6d6173323539312e6e6f772e73682f616972706f72742f64656c617968747470733a2f2f666c79742e726f62696e74686f6d6173323539312e6e6f772e73682f666c696768742f7374617473a265627a7a72305820977c6a5f7931e4922f71afb7a3dbbfc7e892c4daf82cf32b1ef114fb8c276bea6c6578706572696d656e74616cf50037",
  "source": "pragma solidity >=0.5.0 <0.6.0;\npragma experimental ABIEncoderV2;\n\nimport \"chainlink/v0.5/contracts/ChainlinkClient.sol\";\nimport \"chainlink/v0.5/contracts/vendor/Ownable.sol\";\nimport {\n    SafeMath as SafeMath_Chainlink\n} from \"chainlink/v0.5/contracts/vendor/SafeMath.sol\";\n\n/**\n * @title Flyt is a contract which requests data from the Chainlink network\n * @dev This contract is designed to work on multiple networks, including\n * local test networks\n */\ncontract Flyt is ChainlinkClient, Ownable {\n    using SafeMath_Chainlink for uint256;\n\n    bytes32 private constant JOB_ID = \"3cff0a3524694ff8834bda9cf9c779a1\";\n    address private constant ORACLE = 0xc99B3D447826532722E41bc36e644ba3479E4365;\n\n    string private constant GET_AIRPORT_DELAY_URL = \"https://flyt.robinthomas2591.now.sh/airport/delay\";\n    string private constant GET_FLIGHT_RATING_URL = \"https://flyt.robinthomas2591.now.sh/flight/stats\";\n\n    bytes32 jobId;\n    uint256 payment;\n\n    struct Flight {\n        string from;\n        string to;\n        string fsCode;\n        string carrierCode;\n        string name;\n        string departureTime;\n        string arrivalTime;\n    }\n\n    struct Payment {\n        bool paid;\n        uint256 amount;\n        string txHash;\n    }\n\n    struct Policy {\n        string policyId;\n        address payable owner;\n        string[] products;\n        Flight flight;\n        Payment premium;\n        Payment payment;\n    }\n\n    enum PremiumRequestStatus {INIT, SENT, COMPLETED}\n\n    struct Premium {\n        bool init;\n        uint256 airportRating;\n        uint256 flightRating;\n        PremiumRequestStatus hasAirportRating;\n        PremiumRequestStatus hasFlightRating;\n    }\n\n    mapping(string => bool) isPolicy;\n    mapping(string => Policy) policies;\n    mapping(string => Premium) premiums;\n    mapping(bytes32 => string) requests;\n\n    /**\n     * @notice Deploy the contract with a specified address for the LINK\n     * and Oracle contract addresses\n     * @dev Sets the storage for the specified addresses\n     * @param _link The address of the LINK token contract\n     * @param _oracle The address of the ORACLE contract\n     * @param _jobId jobId where the Chainlink request to be sent.\n     */\n    constructor(address _link, address _oracle, bytes32 _jobId) public {\n        // Set the address for the LINK token for the network.\n        if (_link == address(0)) {\n            // Useful for deploying to public networks.\n            setPublicChainlinkToken();\n            setChainlinkOracle(ORACLE);\n            jobId = JOB_ID;\n            payment = 1 * LINK;\n        } else {\n            setChainlinkToken(_link);\n            setChainlinkOracle(_oracle);\n            jobId = _jobId;\n            payment = 1;\n        }\n    }\n\n    // Calculate the value based on weighted average.\n    // Flight Rating (based on historical performance) is given 70% weightage.\n    // Departure Airport Rating is given 30% weightage.\n    function calcPremiumHelper(string memory _policyId)\n        private\n        view\n        onlyOwner\n        returns (uint256 _result)\n    {\n        uint256 a = premiums[_policyId].flightRating.mul(7);\n        uint256 f = premiums[_policyId].airportRating.mul(3);\n        _result = a.add(f).div(10);\n    }\n\n    // Create a new policy.\n    function createNewPolicy(Policy memory _policy) public onlyOwner {\n        // Verify that the payment is valid.\n        uint256 _premium = calcPremiumHelper(_policy.policyId);\n        require(_premium <= _policy.premium.amount);\n\n        policies[_policy.policyId] = _policy;\n        isPolicy[_policy.policyId] = true;\n    }\n\n    // Get policy details.\n    function getPolicy(string memory _policyId)\n        public\n        view\n        onlyOwner\n        returns (Policy memory)\n    {\n        if (isPolicy[_policyId] == true) {\n            // Policy exists.\n            Policy memory _policy = policies[_policyId];\n            return _policy;\n        } else {\n            // Policy doesnt exist.\n            // Return a dummy.\n            string[] memory products;\n            Policy memory _policy = Policy(\n                \"0\",\n                address(0),\n                products,\n                Flight(\"\", \"\", \"\", \"\", \"\", \"\", \"\"),\n                Payment(false, 0, \"\"),\n                Payment(false, 0, \"\")\n            );\n            return _policy;\n        }\n    }\n\n    function getPremium(string memory _policyId)\n        public\n        view\n        onlyOwner\n        returns (uint256 _result)\n    {\n        // Calculate the premium if chainlink requests have all returned.\n        // Its done using weighted average.\n        _result = 0;\n        if (\n            premiums[_policyId].hasAirportRating ==\n            PremiumRequestStatus.COMPLETED &&\n            premiums[_policyId].hasFlightRating ==\n            PremiumRequestStatus.COMPLETED\n        ) {\n            _result = calcPremiumHelper(_policyId);\n        }\n    }\n\n    // Calculate the policy premium.\n    function calculatePremium(\n        string memory _policyId,\n        string memory _from,\n        string memory _fsCode,\n        string memory _carrierCode\n    ) public onlyOwner {\n        // Set the initial state.\n        if (premiums[_policyId].init == false) {\n            premiums[_policyId].hasAirportRating = PremiumRequestStatus.INIT;\n            premiums[_policyId].hasFlightRating = PremiumRequestStatus.INIT;\n            premiums[_policyId].init = true;\n        }\n\n        // Send the chainlink requests to the oracles if not sent.\n        if (premiums[_policyId].hasAirportRating == PremiumRequestStatus.INIT) {\n            getAirportRating(_policyId, _from);\n        }\n        if (premiums[_policyId].hasFlightRating == PremiumRequestStatus.INIT) {\n            getFlightRating(_policyId, _from, _fsCode, _carrierCode);\n        }\n    }\n\n    function getAirportRating(string memory _policyId, string memory _airport)\n        private\n        returns (bytes32 requestId)\n    {\n        string memory _url = string(\n            abi.encodePacked(GET_AIRPORT_DELAY_URL, \"?airport=\", _airport)\n        );\n        string memory _path = string(abi.encodePacked(_airport, \".score\"));\n\n        requestId = createRequestTo(\n            _url,\n            _path,\n            this.setAirportRating.selector\n        );\n\n        requests[requestId] = _policyId;\n        premiums[_policyId].hasAirportRating = PremiumRequestStatus.SENT;\n    }\n\n    function setAirportRating(bytes32 _requestId, uint256 _score)\n        public\n        recordChainlinkFulfillment(_requestId)\n    {\n        premiums[requests[_requestId]].hasAirportRating = PremiumRequestStatus\n            .COMPLETED;\n        premiums[requests[_requestId]].airportRating = _score;\n    }\n\n    function getFlightRating(\n        string memory _policyId,\n        string memory _from,\n        string memory _fsCode,\n        string memory _carrierCode\n    ) private returns (bytes32 requestId) {\n        string memory _url = string(\n            abi.encodePacked(\n                GET_FLIGHT_RATING_URL,\n                \"?from=\",\n                _from,\n                \"&fsCode=\",\n                _fsCode,\n                \"&carrierCode=\",\n                _carrierCode\n            )\n        );\n\n        requestId = createRequestTo(\n            _url,\n            \"score\",\n            this.setFlightRating.selector\n        );\n\n        requests[requestId] = _policyId;\n        premiums[_policyId].hasFlightRating = PremiumRequestStatus.SENT;\n    }\n\n    function setFlightRating(bytes32 _requestId, uint256 _rating)\n        public\n        recordChainlinkFulfillment(_requestId)\n    {\n        premiums[requests[_requestId]].hasFlightRating = PremiumRequestStatus\n            .COMPLETED;\n        premiums[requests[_requestId]].flightRating = _rating;\n    }\n\n    /**\n     * @notice Creates a request to the specified Oracle contract address\n     * @dev This function ignores the stored Oracle contract address and\n     * will instead send the request to the address specified\n     * @param _url The URL to fetch data from\n     * @param _path The dot-delimited path to parse of the response\n     * @param _callbackFn The callback function to call once request is processed\n     */\n    function createRequestTo(\n        string memory _url,\n        string memory _path,\n        bytes4 _callbackFn\n    ) private returns (bytes32 requestId) {\n        Chainlink.Request memory req = buildChainlinkRequest(\n            jobId,\n            address(this),\n            _callbackFn\n        );\n        req.add(\"url\", _url);\n        req.add(\"path\", _path);\n        requestId = sendChainlinkRequest(req, payment);\n    }\n\n    function payPolicy(string memory _policyId, uint256 amount)\n        public\n        onlyOwner\n    {\n        require(isPolicy[_policyId] == true);\n        require(policies[_policyId].owner != address(0));\n        require(policies[_policyId].premium.paid == true);\n        require(policies[_policyId].payment.paid == false);\n\n        policies[_policyId].owner.transfer(amount);\n\n        policies[_policyId].payment.paid = true;\n        policies[_policyId].payment.amount = amount;\n    }\n\n    function() external payable {}\n\n}\n",
  "sourcePath": "/home/robin/Workspace/flight/src/truffle/contracts/Flyt.sol",
  "compiler": {
    "name": "solc",
    "version": "0.5.8+commit.23d335f2.Emscripten.clang"
  },
  "schemaVersion": "3.0.16",
  "updatedAt": "2019-11-01T00:11:29.855Z",
  "devdoc": {
    "details": "This contract is designed to work on multiple networks, including local test networks",
    "methods": {
      "constructor": {
        "details": "Sets the storage for the specified addresses",
        "params": {
          "_jobId": "jobId where the Chainlink request to be sent.",
          "_link": "The address of the LINK token contract",
          "_oracle": "The address of the ORACLE contract"
        }
      },
      "isOwner()": {
        "details": "Returns true if the caller is the current owner."
      },
      "owner()": {
        "details": "Returns the address of the current owner."
      },
      "transferOwnership(address)": {
        "details": "Transfers ownership of the contract to a new account (`newOwner`). Can only be called by the current owner."
      }
    },
    "title": "Flyt is a contract which requests data from the Chainlink network"
  },
  "userdoc": {
    "methods": {
      "constructor": "Deploy the contract with a specified address for the LINK and Oracle contract addresses"
    }
  }
}