{
  "contractName": "Flyt",
  "abi": [
    {
      "payable": true,
      "stateMutability": "payable",
      "type": "fallback"
    },
    {
      "constant": false,
      "inputs": [
        {
          "components": [
            {
              "name": "policyId",
              "type": "string"
            },
            {
              "name": "owner",
              "type": "address"
            },
            {
              "name": "products",
              "type": "string[]"
            },
            {
              "components": [
                {
                  "name": "from",
                  "type": "string"
                },
                {
                  "name": "to",
                  "type": "string"
                },
                {
                  "name": "fsCode",
                  "type": "string"
                },
                {
                  "name": "carrierCode",
                  "type": "string"
                },
                {
                  "name": "name",
                  "type": "string"
                },
                {
                  "name": "departureTime",
                  "type": "string"
                },
                {
                  "name": "arrivalTime",
                  "type": "string"
                }
              ],
              "name": "flight",
              "type": "tuple"
            },
            {
              "components": [
                {
                  "name": "paid",
                  "type": "bool"
                },
                {
                  "name": "amount",
                  "type": "uint256"
                },
                {
                  "name": "txHash",
                  "type": "string"
                }
              ],
              "name": "premium",
              "type": "tuple"
            },
            {
              "components": [
                {
                  "name": "paid",
                  "type": "bool"
                },
                {
                  "name": "amount",
                  "type": "uint256"
                },
                {
                  "name": "txHash",
                  "type": "string"
                }
              ],
              "name": "payment",
              "type": "tuple"
            }
          ],
          "name": "_policy",
          "type": "tuple"
        }
      ],
      "name": "createNewPolicy",
      "outputs": [],
      "payable": false,
      "stateMutability": "nonpayable",
      "type": "function"
    },
    {
      "constant": true,
      "inputs": [
        {
          "name": "_policyId",
          "type": "string"
        }
      ],
      "name": "getPolicy",
      "outputs": [
        {
          "components": [
            {
              "name": "policyId",
              "type": "string"
            },
            {
              "name": "owner",
              "type": "address"
            },
            {
              "name": "products",
              "type": "string[]"
            },
            {
              "components": [
                {
                  "name": "from",
                  "type": "string"
                },
                {
                  "name": "to",
                  "type": "string"
                },
                {
                  "name": "fsCode",
                  "type": "string"
                },
                {
                  "name": "carrierCode",
                  "type": "string"
                },
                {
                  "name": "name",
                  "type": "string"
                },
                {
                  "name": "departureTime",
                  "type": "string"
                },
                {
                  "name": "arrivalTime",
                  "type": "string"
                }
              ],
              "name": "flight",
              "type": "tuple"
            },
            {
              "components": [
                {
                  "name": "paid",
                  "type": "bool"
                },
                {
                  "name": "amount",
                  "type": "uint256"
                },
                {
                  "name": "txHash",
                  "type": "string"
                }
              ],
              "name": "premium",
              "type": "tuple"
            },
            {
              "components": [
                {
                  "name": "paid",
                  "type": "bool"
                },
                {
                  "name": "amount",
                  "type": "uint256"
                },
                {
                  "name": "txHash",
                  "type": "string"
                }
              ],
              "name": "payment",
              "type": "tuple"
            }
          ],
          "name": "",
          "type": "tuple"
        }
      ],
      "payable": false,
      "stateMutability": "view",
      "type": "function"
    },
    {
      "constant": true,
      "inputs": [
        {
          "name": "_policyId",
          "type": "string"
        }
      ],
      "name": "getPremium",
      "outputs": [
        {
          "components": [
            {
              "name": "chainlink",
              "type": "bool"
            },
            {
              "name": "hasWeather",
              "type": "bool"
            }
          ],
          "name": "",
          "type": "tuple"
        }
      ],
      "payable": false,
      "stateMutability": "view",
      "type": "function"
    },
    {
      "constant": false,
      "inputs": [
        {
          "name": "_policyId",
          "type": "string"
        },
        {
          "name": "amount",
          "type": "uint256"
        }
      ],
      "name": "payPolicy",
      "outputs": [],
      "payable": false,
      "stateMutability": "nonpayable",
      "type": "function"
    }
  ],
  "bytecode": "0x608060405233600360006101000a81548173ffffffffffffffffffffffffffffffffffffffff021916908373ffffffffffffffffffffffffffffffffffffffff16021790555034801561005157600080fd5b50611eb6806100616000396000f3fe60806040526004361061003f5760003560e01c806360dd5f90146100415780636b3b314f1461007e578063c6bf8fc3146100a7578063f71f1d9e146100d0575b005b34801561004d57600080fd5b506100686004803603610063919081019061180b565b61010d565b6040516100759190611c4a565b60405180910390f35b34801561008a57600080fd5b506100a560048036036100a0919081019061184c565b610b81565b005b3480156100b357600080fd5b506100ce60048036036100c991908101906118a0565b610e07565b005b3480156100dc57600080fd5b506100f760048036036100f2919081019061180b565b6110c0565b6040516101049190611c6c565b60405180910390f35b610115611176565b600360009054906101000a900473ffffffffffffffffffffffffffffffffffffffff1673ffffffffffffffffffffffffffffffffffffffff163373ffffffffffffffffffffffffffffffffffffffff161461016f57600080fd5b600115156000836040516101839190611c33565b908152602001604051809103902060009054906101000a900460ff16151514156109fc576101af611176565b6001836040516101bf9190611c33565b90815260200160405180910390206040518060c0016040529081600082018054600181600116156101000203166002900480601f0160208091040260200160405190810160405280929190818152602001828054600181600116156101000203166002900480156102715780601f1061024657610100808354040283529160200191610271565b820191906000526020600020905b81548152906001019060200180831161025457829003601f168201915b505050505081526020016001820160009054906101000a900473ffffffffffffffffffffffffffffffffffffffff1673ffffffffffffffffffffffffffffffffffffffff1673ffffffffffffffffffffffffffffffffffffffff16815260200160028201805480602002602001604051908101604052809291908181526020016000905b828210156103b1578382906000526020600020018054600181600116156101000203166002900480601f01602080910402602001604051908101604052809291908181526020018280546001816001161561010002031660029004801561039d5780601f106103725761010080835404028352916020019161039d565b820191906000526020600020905b81548152906001019060200180831161038057829003601f168201915b5050505050815260200190600101906102f5565b505050508152602001600382016040518060e0016040529081600082018054600181600116156101000203166002900480601f0160208091040260200160405190810160405280929190818152602001828054600181600116156101000203166002900480156104625780601f1061043757610100808354040283529160200191610462565b820191906000526020600020905b81548152906001019060200180831161044557829003601f168201915b50505050508152602001600182018054600181600116156101000203166002900480601f0160208091040260200160405190810160405280929190818152602001828054600181600116156101000203166002900480156105045780601f106104d957610100808354040283529160200191610504565b820191906000526020600020905b8154815290600101906020018083116104e757829003601f168201915b50505050508152602001600282018054600181600116156101000203166002900480601f0160208091040260200160405190810160405280929190818152602001828054600181600116156101000203166002900480156105a65780601f1061057b576101008083540402835291602001916105a6565b820191906000526020600020905b81548152906001019060200180831161058957829003601f168201915b50505050508152602001600382018054600181600116156101000203166002900480601f0160208091040260200160405190810160405280929190818152602001828054600181600116156101000203166002900480156106485780601f1061061d57610100808354040283529160200191610648565b820191906000526020600020905b81548152906001019060200180831161062b57829003601f168201915b50505050508152602001600482018054600181600116156101000203166002900480601f0160208091040260200160405190810160405280929190818152602001828054600181600116156101000203166002900480156106ea5780601f106106bf576101008083540402835291602001916106ea565b820191906000526020600020905b8154815290600101906020018083116106cd57829003601f168201915b50505050508152602001600582018054600181600116156101000203166002900480601f01602080910402602001604051908101604052809291908181526020018280546001816001161561010002031660029004801561078c5780601f106107615761010080835404028352916020019161078c565b820191906000526020600020905b81548152906001019060200180831161076f57829003601f168201915b50505050508152602001600682018054600181600116156101000203166002900480601f01602080910402602001604051908101604052809291908181526020018280546001816001161561010002031660029004801561082e5780601f106108035761010080835404028352916020019161082e565b820191906000526020600020905b81548152906001019060200180831161081157829003601f168201915b5050505050815250508152602001600a82016040518060600160405290816000820160009054906101000a900460ff1615151515815260200160018201548152602001600282018054600181600116156101000203166002900480601f0160208091040260200160405190810160405280929190818152602001828054600181600116156101000203166002900480156109095780601f106108de57610100808354040283529160200191610909565b820191906000526020600020905b8154815290600101906020018083116108ec57829003601f168201915b5050505050815250508152602001600d82016040518060600160405290816000820160009054906101000a900460ff1615151515815260200160018201548152602001600282018054600181600116156101000203166002900480601f0160208091040260200160405190810160405280929190818152602001828054600181600116156101000203166002900480156109e45780601f106109b9576101008083540402835291602001916109e4565b820191906000526020600020905b8154815290600101906020018083116109c757829003601f168201915b50505050508152505081525050905080915050610b7c565b6060610a06611176565b6040518060c001604052806040518060400160405280600181526020017f30000000000000000000000000000000000000000000000000000000000000008152508152602001600073ffffffffffffffffffffffffffffffffffffffff1681526020018381526020016040518060e0016040528060405180602001604052806000815250815260200160405180602001604052806000815250815260200160405180602001604052806000815250815260200160405180602001604052806000815250815260200160405180602001604052806000815250815260200160405180602001604052806000815250815260200160405180602001604052806000815250815250815260200160405180606001604052806000151581526020016000815260200160405180602001604052806000815250815250815260200160405180606001604052806000151581526020016000815260200160405180602001604052806000815250815250815250905080925050505b919050565b600360009054906101000a900473ffffffffffffffffffffffffffffffffffffffff1673ffffffffffffffffffffffffffffffffffffffff163373ffffffffffffffffffffffffffffffffffffffff1614610bdb57600080fd5b60011515600083604051610bef9190611c33565b908152602001604051809103902060009054906101000a900460ff16151514610c1757600080fd5b600073ffffffffffffffffffffffffffffffffffffffff16600183604051610c3f9190611c33565b908152602001604051809103902060010160009054906101000a900473ffffffffffffffffffffffffffffffffffffffff1673ffffffffffffffffffffffffffffffffffffffff161415610c9257600080fd5b60011515600183604051610ca69190611c33565b9081526020016040518091039020600a0160000160009054906101000a900460ff16151514610cd457600080fd5b60001515600183604051610ce89190611c33565b9081526020016040518091039020600d0160000160009054906101000a900460ff16151514610d1657600080fd5b600182604051610d269190611c33565b908152602001604051809103902060010160009054906101000a900473ffffffffffffffffffffffffffffffffffffffff1673ffffffffffffffffffffffffffffffffffffffff166108fc829081150290604051600060405180830381858888f19350505050158015610d9d573d6000803e3d6000fd5b5060018083604051610daf9190611c33565b9081526020016040518091039020600d0160000160006101000a81548160ff02191690831515021790555080600183604051610deb9190611c33565b9081526020016040518091039020600d01600101819055505050565b600360009054906101000a900473ffffffffffffffffffffffffffffffffffffffff1673ffffffffffffffffffffffffffffffffffffffff163373ffffffffffffffffffffffffffffffffffffffff1614610e6157600080fd5b8060018260000151604051610e769190611c1c565b90815260200160405180910390206000820151816000019080519060200190610ea09291906111d5565b5060208201518160010160006101000a81548173ffffffffffffffffffffffffffffffffffffffff021916908373ffffffffffffffffffffffffffffffffffffffff1602179055506040820151816002019080519060200190610f04929190611255565b506060820151816003016000820151816000019080519060200190610f2a9291906111d5565b506020820151816001019080519060200190610f479291906111d5565b506040820151816002019080519060200190610f649291906111d5565b506060820151816003019080519060200190610f819291906111d5565b506080820151816004019080519060200190610f9e9291906111d5565b5060a0820151816005019080519060200190610fbb9291906111d5565b5060c0820151816006019080519060200190610fd89291906111d5565b505050608082015181600a0160008201518160000160006101000a81548160ff02191690831515021790555060208201518160010155604082015181600201908051906020019061102a9291906111d5565b50505060a082015181600d0160008201518160000160006101000a81548160ff02191690831515021790555060208201518160010155604082015181600201908051906020019061107c9291906111d5565b5050509050506001600082600001516040516110989190611c1c565b908152602001604051809103902060006101000a81548160ff02191690831515021790555050565b6110c86112b5565b600115156000836040516110dc9190611c33565b908152602001604051809103902060009054906101000a900460ff1615151461110457600080fd5b61110c6112b5565b60028360405161111c9190611c33565b90815260200160405180910390206040518060400160405290816000820160009054906101000a900460ff161515151581526020016000820160019054906101000a900460ff161515151581525050905080915050919050565b60405180610200016040528060608152602001600073ffffffffffffffffffffffffffffffffffffffff168152602001606081526020016111b56112d3565b81526020016111c2611310565b81526020016111cf611310565b81525090565b828054600181600116156101000203166002900490600052602060002090601f016020900481019282601f1061121657805160ff1916838001178555611244565b82800160010185558215611244579182015b82811115611243578251825591602001919060010190611228565b5b5090506112519190611333565b5090565b8280548282559060005260206000209081019282156112a4579160200282015b828111156112a35782518290805190602001906112939291906111d5565b5091602001919060010190611275565b5b5090506112b19190611358565b5090565b60405180604001604052806000151581526020016000151581525090565b6040518060e00160405280606081526020016060815260200160608152602001606081526020016060815260200160608152602001606081525090565b604051806060016040528060001515815260200160008152602001606081525090565b61135591905b80821115611351576000816000905550600101611339565b5090565b90565b61138191905b8082111561137d57600081816113749190611384565b5060010161135e565b5090565b90565b50805460018160011615610100020316600290046000825580601f106113aa57506113c9565b601f0160209004906000526020600020908101906113c89190611333565b5b50565b6000813590506113db81611e37565b92915050565b600082601f8301126113f257600080fd5b813561140561140082611cb4565b611c87565b9150818183526020840193506020810190508360005b8381101561144b5781358601611431888261146a565b84526020840193506020830192505060018101905061141b565b5050505092915050565b60008135905061146481611e4e565b92915050565b600082601f83011261147b57600080fd5b813561148e61148982611cdc565b611c87565b915080825260208301602083018583830111156114aa57600080fd5b6114b5838284611de4565b50505092915050565b600082601f8301126114cf57600080fd5b81356114e26114dd82611d08565b611c87565b915080825260208301602083018583830111156114fe57600080fd5b611509838284611de4565b50505092915050565b600060e0828403121561152457600080fd5b61152e60e0611c87565b9050600082013567ffffffffffffffff81111561154a57600080fd5b6115568482850161146a565b600083015250602082013567ffffffffffffffff81111561157657600080fd5b6115828482850161146a565b602083015250604082013567ffffffffffffffff8111156115a257600080fd5b6115ae8482850161146a565b604083015250606082013567ffffffffffffffff8111156115ce57600080fd5b6115da8482850161146a565b606083015250608082013567ffffffffffffffff8111156115fa57600080fd5b6116068482850161146a565b60808301525060a082013567ffffffffffffffff81111561162657600080fd5b6116328482850161146a565b60a08301525060c082013567ffffffffffffffff81111561165257600080fd5b61165e8482850161146a565b60c08301525092915050565b60006060828403121561167c57600080fd5b6116866060611c87565b9050600061169684828501611455565b60008301525060206116aa848285016117f6565b602083015250604082013567ffffffffffffffff8111156116ca57600080fd5b6116d68482850161146a565b60408301525092915050565b600060c082840312156116f457600080fd5b6116fe60c0611c87565b9050600082013567ffffffffffffffff81111561171a57600080fd5b6117268482850161146a565b600083015250602061173a848285016113cc565b602083015250604082013567ffffffffffffffff81111561175a57600080fd5b611766848285016113e1565b604083015250606082013567ffffffffffffffff81111561178657600080fd5b61179284828501611512565b606083015250608082013567ffffffffffffffff8111156117b257600080fd5b6117be8482850161166a565b60808301525060a082013567ffffffffffffffff8111156117de57600080fd5b6117ea8482850161166a565b60a08301525092915050565b60008135905061180581611e65565b92915050565b60006020828403121561181d57600080fd5b600082013567ffffffffffffffff81111561183757600080fd5b611843848285016114be565b91505092915050565b6000806040838503121561185f57600080fd5b600083013567ffffffffffffffff81111561187957600080fd5b611885858286016114be565b9250506020611896858286016117f6565b9150509250929050565b6000602082840312156118b257600080fd5b600082013567ffffffffffffffff8111156118cc57600080fd5b6118d8848285016116e2565b91505092915050565b60006118ed83836119b9565b905092915050565b6118fe81611d9c565b82525050565b600061190f82611d41565b6119198185611d6f565b93508360208202850161192b85611d34565b8060005b85811015611967578484038952815161194885826118e1565b945061195383611d62565b925060208a0199505060018101905061192f565b50829750879550505050505092915050565b61198281611dae565b82525050565b600061199382611d57565b61199d8185611d91565b93506119ad818560208601611df3565b80840191505092915050565b60006119c482611d4c565b6119ce8185611d80565b93506119de818560208601611df3565b6119e781611e26565b840191505092915050565b60006119fd82611d4c565b611a078185611d91565b9350611a17818560208601611df3565b80840191505092915050565b600060e0830160008301518482036000860152611a4082826119b9565b91505060208301518482036020860152611a5a82826119b9565b91505060408301518482036040860152611a7482826119b9565b91505060608301518482036060860152611a8e82826119b9565b91505060808301518482036080860152611aa882826119b9565b91505060a083015184820360a0860152611ac282826119b9565b91505060c083015184820360c0860152611adc82826119b9565b9150508091505092915050565b6000606083016000830151611b016000860182611979565b506020830151611b146020860182611c0d565b5060408301518482036040860152611b2c82826119b9565b9150508091505092915050565b600060c0830160008301518482036000860152611b5682826119b9565b9150506020830151611b6b60208601826118f5565b5060408301518482036040860152611b838282611904565b91505060608301518482036060860152611b9d8282611a23565b91505060808301518482036080860152611bb78282611ae9565b91505060a083015184820360a0860152611bd18282611ae9565b9150508091505092915050565b604082016000820151611bf46000850182611979565b506020820151611c076020850182611979565b50505050565b611c1681611dda565b82525050565b6000611c2882846119f2565b915081905092915050565b6000611c3f8284611988565b915081905092915050565b60006020820190508181036000830152611c648184611b39565b905092915050565b6000604082019050611c816000830184611bde565b92915050565b6000604051905081810181811067ffffffffffffffff82111715611caa57600080fd5b8060405250919050565b600067ffffffffffffffff821115611ccb57600080fd5b602082029050602081019050919050565b600067ffffffffffffffff821115611cf357600080fd5b601f19601f8301169050602081019050919050565b600067ffffffffffffffff821115611d1f57600080fd5b601f19601f8301169050602081019050919050565b6000602082019050919050565b600081519050919050565b600081519050919050565b600081519050919050565b6000602082019050919050565b600082825260208201905092915050565b600082825260208201905092915050565b600081905092915050565b6000611da782611dba565b9050919050565b60008115159050919050565b600073ffffffffffffffffffffffffffffffffffffffff82169050919050565b6000819050919050565b82818337600083830152505050565b60005b83811015611e11578082015181840152602081019050611df6565b83811115611e20576000848401525b50505050565b6000601f19601f8301169050919050565b611e4081611d9c565b8114611e4b57600080fd5b50565b611e5781611dae565b8114611e6257600080fd5b50565b611e6e81611dda565b8114611e7957600080fd5b5056fea265627a7a72305820988ab234664e770baf4a50ed9c625ef6ba55170d5179947db77fe30e8673cc656c6578706572696d656e74616cf50037",
  "source": "pragma solidity >=0.5.0 <0.6.0;\npragma experimental ABIEncoderV2;\n\ncontract Flyt {\n  struct Flight {\n    string from;\n    string to;\n    string fsCode;\n    string carrierCode;\n    string name;\n    string departureTime;\n    string arrivalTime;\n  }\n\n  struct Payment {\n    bool paid;\n    uint256 amount;\n    string txHash;\n  }\n\n  struct Policy {\n    string policyId;\n    address payable owner;\n    string[] products;\n    Flight flight;\n    Payment premium;\n    Payment payment;\n  }\n\n  struct Premium {\n    bool chainlink;\n    bool hasWeather;\n  }\n\n  mapping(string => bool) isPolicy;\n  mapping(string => Policy) policies;\n  mapping(string => Premium) premiums;\n\n  address owner = msg.sender; // set the owner of the contract.\n\n  modifier _ownerOnly() {\n    require(msg.sender == owner);\n    _;\n  }\n\n  // Create a new policy.\n  function createNewPolicy(Policy memory _policy) public _ownerOnly {\n    policies[_policy.policyId] = _policy;\n    isPolicy[_policy.policyId] = true;\n  }\n\n  // Get policy details.\n  function getPolicy(string memory _policyId) public view _ownerOnly returns (Policy memory) {\n    if (isPolicy[_policyId] == true) {\n      // Policy exists.\n      Policy memory _policy = policies[_policyId];\n      return _policy;\n    } else {\n      // Policy doesnt exist.\n      // Return a dummy.\n      string[] memory products;\n      Policy memory _policy = Policy('0', address(0), products, Flight('', '', '', '', '', '', ''), Payment(false, 0, ''), Payment(false, 0, ''));\n      return _policy;\n    }\n  }\n\n  // Calculate the policy premium.\n  function getPremium(string memory _policyId) public view returns (Premium memory) {\n    require(isPolicy[_policyId] == true);\n\n    Premium memory _premium = premiums[_policyId];\n\n    // Send the chainlink requests to various oracles if not sent.\n\n    return _premium;\n  }\n\n  function payPolicy(string memory _policyId, uint256 amount) public _ownerOnly {\n    require(isPolicy[_policyId] == true);\n    require(policies[_policyId].owner != address(0));\n    require(policies[_policyId].premium.paid == true);\n    require(policies[_policyId].payment.paid == false);\n\n    policies[_policyId].owner.transfer(amount);\n\n    policies[_policyId].payment.paid = true;\n    policies[_policyId].payment.amount = amount;\n  }\n\n  // To be able to receive ETH.\n  function () external payable {}\n\n}\n",
  "sourcePath": "/home/robin/Workspace/flight/src/truffle/contracts/Flyt.sol",
  "compiler": {
    "name": "solc",
    "version": "0.5.8+commit.23d335f2.Emscripten.clang"
  },
  "schemaVersion": "3.0.16",
  "updatedAt": "2019-10-27T09:24:44.176Z",
  "devdoc": {
    "methods": {}
  },
  "userdoc": {
    "methods": {}
  }
}