{
  "contractName": "Flyt",
  "abi": [
    {
      "constant": true,
      "inputs": [],
      "name": "owner",
      "outputs": [
        {
          "name": "",
          "type": "address"
        }
      ],
      "payable": false,
      "stateMutability": "view",
      "type": "function"
    },
    {
      "constant": true,
      "inputs": [],
      "name": "isOwner",
      "outputs": [
        {
          "name": "",
          "type": "bool"
        }
      ],
      "payable": false,
      "stateMutability": "view",
      "type": "function"
    },
    {
      "constant": false,
      "inputs": [
        {
          "name": "newOwner",
          "type": "address"
        }
      ],
      "name": "transferOwnership",
      "outputs": [],
      "payable": false,
      "stateMutability": "nonpayable",
      "type": "function"
    },
    {
      "inputs": [
        {
          "name": "_link",
          "type": "address"
        },
        {
          "name": "_oracle",
          "type": "address"
        },
        {
          "name": "_jobId",
          "type": "bytes32"
        }
      ],
      "payable": false,
      "stateMutability": "nonpayable",
      "type": "constructor"
    },
    {
      "payable": true,
      "stateMutability": "payable",
      "type": "fallback"
    },
    {
      "anonymous": false,
      "inputs": [
        {
          "indexed": true,
          "name": "previousOwner",
          "type": "address"
        },
        {
          "indexed": true,
          "name": "newOwner",
          "type": "address"
        }
      ],
      "name": "OwnershipTransferred",
      "type": "event"
    },
    {
      "anonymous": false,
      "inputs": [
        {
          "indexed": true,
          "name": "id",
          "type": "bytes32"
        }
      ],
      "name": "ChainlinkRequested",
      "type": "event"
    },
    {
      "anonymous": false,
      "inputs": [
        {
          "indexed": true,
          "name": "id",
          "type": "bytes32"
        }
      ],
      "name": "ChainlinkFulfilled",
      "type": "event"
    },
    {
      "anonymous": false,
      "inputs": [
        {
          "indexed": true,
          "name": "id",
          "type": "bytes32"
        }
      ],
      "name": "ChainlinkCancelled",
      "type": "event"
    },
    {
      "constant": false,
      "inputs": [
        {
          "components": [
            {
              "name": "policyId",
              "type": "string"
            },
            {
              "name": "owner",
              "type": "address"
            },
            {
              "name": "products",
              "type": "string[]"
            },
            {
              "components": [
                {
                  "name": "from",
                  "type": "string"
                },
                {
                  "name": "to",
                  "type": "string"
                },
                {
                  "name": "fsCode",
                  "type": "string"
                },
                {
                  "name": "carrierCode",
                  "type": "string"
                },
                {
                  "name": "name",
                  "type": "string"
                },
                {
                  "name": "departureTime",
                  "type": "string"
                },
                {
                  "name": "arrivalTime",
                  "type": "string"
                }
              ],
              "name": "flight",
              "type": "tuple"
            },
            {
              "components": [
                {
                  "name": "paid",
                  "type": "bool"
                },
                {
                  "name": "amount",
                  "type": "uint256"
                },
                {
                  "name": "txHash",
                  "type": "string"
                }
              ],
              "name": "premium",
              "type": "tuple"
            },
            {
              "components": [
                {
                  "name": "paid",
                  "type": "bool"
                },
                {
                  "name": "amount",
                  "type": "uint256"
                },
                {
                  "name": "txHash",
                  "type": "string"
                }
              ],
              "name": "payment",
              "type": "tuple"
            }
          ],
          "name": "_policy",
          "type": "tuple"
        }
      ],
      "name": "createNewPolicy",
      "outputs": [],
      "payable": false,
      "stateMutability": "nonpayable",
      "type": "function"
    },
    {
      "constant": true,
      "inputs": [
        {
          "name": "_policyId",
          "type": "string"
        }
      ],
      "name": "getPolicy",
      "outputs": [
        {
          "components": [
            {
              "name": "policyId",
              "type": "string"
            },
            {
              "name": "owner",
              "type": "address"
            },
            {
              "name": "products",
              "type": "string[]"
            },
            {
              "components": [
                {
                  "name": "from",
                  "type": "string"
                },
                {
                  "name": "to",
                  "type": "string"
                },
                {
                  "name": "fsCode",
                  "type": "string"
                },
                {
                  "name": "carrierCode",
                  "type": "string"
                },
                {
                  "name": "name",
                  "type": "string"
                },
                {
                  "name": "departureTime",
                  "type": "string"
                },
                {
                  "name": "arrivalTime",
                  "type": "string"
                }
              ],
              "name": "flight",
              "type": "tuple"
            },
            {
              "components": [
                {
                  "name": "paid",
                  "type": "bool"
                },
                {
                  "name": "amount",
                  "type": "uint256"
                },
                {
                  "name": "txHash",
                  "type": "string"
                }
              ],
              "name": "premium",
              "type": "tuple"
            },
            {
              "components": [
                {
                  "name": "paid",
                  "type": "bool"
                },
                {
                  "name": "amount",
                  "type": "uint256"
                },
                {
                  "name": "txHash",
                  "type": "string"
                }
              ],
              "name": "payment",
              "type": "tuple"
            }
          ],
          "name": "",
          "type": "tuple"
        }
      ],
      "payable": false,
      "stateMutability": "view",
      "type": "function"
    },
    {
      "constant": true,
      "inputs": [
        {
          "name": "_policyId",
          "type": "string"
        }
      ],
      "name": "getPremium",
      "outputs": [
        {
          "name": "_result",
          "type": "uint256"
        }
      ],
      "payable": false,
      "stateMutability": "view",
      "type": "function"
    },
    {
      "constant": false,
      "inputs": [
        {
          "name": "_policyId",
          "type": "string"
        },
        {
          "name": "_from",
          "type": "string"
        },
        {
          "name": "_fsCode",
          "type": "string"
        },
        {
          "name": "_carrierCode",
          "type": "string"
        }
      ],
      "name": "calculatePremium",
      "outputs": [],
      "payable": false,
      "stateMutability": "nonpayable",
      "type": "function"
    },
    {
      "constant": false,
      "inputs": [
        {
          "name": "_requestId",
          "type": "bytes32"
        },
        {
          "name": "_score",
          "type": "uint256"
        }
      ],
      "name": "setAirportRating",
      "outputs": [],
      "payable": false,
      "stateMutability": "nonpayable",
      "type": "function"
    },
    {
      "constant": false,
      "inputs": [
        {
          "name": "_requestId",
          "type": "bytes32"
        },
        {
          "name": "_rating",
          "type": "uint256"
        }
      ],
      "name": "setFlightRating",
      "outputs": [],
      "payable": false,
      "stateMutability": "nonpayable",
      "type": "function"
    },
    {
      "constant": false,
      "inputs": [
        {
          "name": "_policyId",
          "type": "string"
        },
        {
          "name": "amount",
          "type": "uint256"
        }
      ],
      "name": "payPolicy",
      "outputs": [],
      "payable": false,
      "stateMutability": "nonpayable",
      "type": "function"
    }
  ],
  "bytecode": "0x608060405260016004553480156200001657600080fd5b5060405160608062004360833981018060405262000038919081019062000365565b33600660006101000a81548173ffffffffffffffffffffffffffffffffffffffff021916908373ffffffffffffffffffffffffffffffffffffffff160217905550600660009054906101000a900473ffffffffffffffffffffffffffffffffffffffff1673ffffffffffffffffffffffffffffffffffffffff16600073ffffffffffffffffffffffffffffffffffffffff167f8be0079c531659141344cd1fd0a4f28419497f9722a3daafe3b4186f6b6457e060405160405180910390a3600073ffffffffffffffffffffffffffffffffffffffff168373ffffffffffffffffffffffffffffffffffffffff161415620001a0576200013c620001db60201b60201c565b6200016173c99b3d447826532722e41bc36e644ba3479e43656200028360201b60201c565b7f3363666630613335323436393466663838333462646139636639633737396131600781905550670de0b6b3a7640000600102600881905550620001d2565b620001b183620002c760201b60201c565b620001c2826200028360201b60201c565b8060078190555060016008819055505b5050506200042d565b6200028173c89bd4e1632d3a43cb03aaad5262cbe4038bc57173ffffffffffffffffffffffffffffffffffffffff166338cc48316040518163ffffffff1660e01b815260040160206040518083038186803b1580156200023a57600080fd5b505afa1580156200024f573d6000803e3d6000fd5b505050506040513d601f19601f8201168201806040525062000275919081019062000339565b620002c760201b60201c565b565b80600360006101000a81548173ffffffffffffffffffffffffffffffffffffffff021916908373ffffffffffffffffffffffffffffffffffffffff16021790555050565b80600260006101000a81548173ffffffffffffffffffffffffffffffffffffffff021916908373ffffffffffffffffffffffffffffffffffffffff16021790555050565b6000815190506200031c81620003f9565b92915050565b600081519050620003338162000413565b92915050565b6000602082840312156200034c57600080fd5b60006200035c848285016200030b565b91505092915050565b6000806000606084860312156200037b57600080fd5b60006200038b868287016200030b565b93505060206200039e868287016200030b565b9250506040620003b18682870162000322565b9150509250925092565b6000620003c882620003d9565b9050919050565b6000819050919050565b600073ffffffffffffffffffffffffffffffffffffffff82169050919050565b6200040481620003bb565b81146200041057600080fd5b50565b6200041e81620003cf565b81146200042a57600080fd5b50565b613f23806200043d6000396000f3fe6080604052600436106100915760003560e01c80638f32d59b116100595780638f32d59b14610176578063c6bf8fc3146101a1578063f2fde38b146101ca578063f71f1d9e146101f3578063fe3168f61461023057610091565b80632abc7beb146100935780633794b04c146100bc57806360dd5f90146100e55780636b3b314f146101225780638da5cb5b1461014b575b005b34801561009f57600080fd5b506100ba60048036036100b59190810190612ec8565b610259565b005b3480156100c857600080fd5b506100e360048036036100de9190810190612e4b565b610456565b005b3480156100f157600080fd5b5061010c60048036036101079190810190612e87565b6105ed565b6040516101199190613b37565b60405180910390f35b34801561012e57600080fd5b5061014960048036036101449190810190612f8b565b61104e565b005b34801561015757600080fd5b506101606112c2565b60405161016d919061395e565b60405180910390f35b34801561018257600080fd5b5061018b6112ec565b6040516101989190613a3c565b60405180910390f35b3480156101ad57600080fd5b506101c860048036036101c39190810190612fdf565b611344565b005b3480156101d657600080fd5b506101f160048036036101ec9190810190612df9565b6115ea565b005b3480156101ff57600080fd5b5061021a60048036036102159190810190612e87565b61163d565b6040516102279190613b59565b60405180910390f35b34801561023c57600080fd5b5061025760048036036102529190810190612e4b565b6117c7565b005b6102616112ec565b6102a0576040517f08c379a000000000000000000000000000000000000000000000000000000000815260040161029790613af7565b60405180910390fd5b60001515600b856040516102b49190613880565b908152602001604051809103902060000160009054906101000a900460ff161515141561039c576000600b856040516102ed9190613880565b908152602001604051809103902060030160006101000a81548160ff0219169083600281111561031957fe5b02179055506000600b856040516103309190613880565b908152602001604051809103902060030160016101000a81548160ff0219169083600281111561035c57fe5b02179055506001600b856040516103739190613880565b908152602001604051809103902060000160006101000a81548160ff0219169083151502179055505b600060028111156103a957fe5b600b856040516103b99190613880565b908152602001604051809103902060030160009054906101000a900460ff1660028111156103e357fe5b14156103f5576103f3848461195e565b505b6000600281111561040257fe5b600b856040516104129190613880565b908152602001604051809103902060030160019054906101000a900460ff16600281111561043c57fe5b14156104505761044e84848484611a49565b505b50505050565b816005600082815260200190815260200160002060009054906101000a900473ffffffffffffffffffffffffffffffffffffffff1673ffffffffffffffffffffffffffffffffffffffff163373ffffffffffffffffffffffffffffffffffffffff16146104f8576040517f08c379a00000000000000000000000000000000000000000000000000000000081526004016104ef90613b17565b60405180910390fd5b6005600082815260200190815260200160002060006101000a81549073ffffffffffffffffffffffffffffffffffffffff0219169055807f7cc135e0cebb02c3480ae5d74d377283180a2601f8f644edf7987b009316c63a60405160405180910390a26002600b600c600086815260200190815260200160002060405161057f9190613947565b908152602001604051809103902060030160016101000a81548160ff021916908360028111156105ab57fe5b021790555081600b600c60008681526020019081526020016000206040516105d39190613947565b908152602001604051809103902060020181905550505050565b6105f5612622565b6105fd6112ec565b61063c576040517f08c379a000000000000000000000000000000000000000000000000000000000815260040161063390613af7565b60405180910390fd5b600115156009836040516106509190613880565b908152602001604051809103902060009054906101000a900460ff1615151415610ec95761067c612622565b600a8360405161068c9190613880565b90815260200160405180910390206040518060c0016040529081600082018054600181600116156101000203166002900480601f01602080910402602001604051908101604052809291908181526020018280546001816001161561010002031660029004801561073e5780601f106107135761010080835404028352916020019161073e565b820191906000526020600020905b81548152906001019060200180831161072157829003601f168201915b505050505081526020016001820160009054906101000a900473ffffffffffffffffffffffffffffffffffffffff1673ffffffffffffffffffffffffffffffffffffffff1673ffffffffffffffffffffffffffffffffffffffff16815260200160028201805480602002602001604051908101604052809291908181526020016000905b8282101561087e578382906000526020600020018054600181600116156101000203166002900480601f01602080910402602001604051908101604052809291908181526020018280546001816001161561010002031660029004801561086a5780601f1061083f5761010080835404028352916020019161086a565b820191906000526020600020905b81548152906001019060200180831161084d57829003601f168201915b5050505050815260200190600101906107c2565b505050508152602001600382016040518060e0016040529081600082018054600181600116156101000203166002900480601f01602080910402602001604051908101604052809291908181526020018280546001816001161561010002031660029004801561092f5780601f106109045761010080835404028352916020019161092f565b820191906000526020600020905b81548152906001019060200180831161091257829003601f168201915b50505050508152602001600182018054600181600116156101000203166002900480601f0160208091040260200160405190810160405280929190818152602001828054600181600116156101000203166002900480156109d15780601f106109a6576101008083540402835291602001916109d1565b820191906000526020600020905b8154815290600101906020018083116109b457829003601f168201915b50505050508152602001600282018054600181600116156101000203166002900480601f016020809104026020016040519081016040528092919081815260200182805460018160011615610100020316600290048015610a735780601f10610a4857610100808354040283529160200191610a73565b820191906000526020600020905b815481529060010190602001808311610a5657829003601f168201915b50505050508152602001600382018054600181600116156101000203166002900480601f016020809104026020016040519081016040528092919081815260200182805460018160011615610100020316600290048015610b155780601f10610aea57610100808354040283529160200191610b15565b820191906000526020600020905b815481529060010190602001808311610af857829003601f168201915b50505050508152602001600482018054600181600116156101000203166002900480601f016020809104026020016040519081016040528092919081815260200182805460018160011615610100020316600290048015610bb75780601f10610b8c57610100808354040283529160200191610bb7565b820191906000526020600020905b815481529060010190602001808311610b9a57829003601f168201915b50505050508152602001600582018054600181600116156101000203166002900480601f016020809104026020016040519081016040528092919081815260200182805460018160011615610100020316600290048015610c595780601f10610c2e57610100808354040283529160200191610c59565b820191906000526020600020905b815481529060010190602001808311610c3c57829003601f168201915b50505050508152602001600682018054600181600116156101000203166002900480601f016020809104026020016040519081016040528092919081815260200182805460018160011615610100020316600290048015610cfb5780601f10610cd057610100808354040283529160200191610cfb565b820191906000526020600020905b815481529060010190602001808311610cde57829003601f168201915b5050505050815250508152602001600a82016040518060600160405290816000820160009054906101000a900460ff1615151515815260200160018201548152602001600282018054600181600116156101000203166002900480601f016020809104026020016040519081016040528092919081815260200182805460018160011615610100020316600290048015610dd65780601f10610dab57610100808354040283529160200191610dd6565b820191906000526020600020905b815481529060010190602001808311610db957829003601f168201915b5050505050815250508152602001600d82016040518060600160405290816000820160009054906101000a900460ff1615151515815260200160018201548152602001600282018054600181600116156101000203166002900480601f016020809104026020016040519081016040528092919081815260200182805460018160011615610100020316600290048015610eb15780601f10610e8657610100808354040283529160200191610eb1565b820191906000526020600020905b815481529060010190602001808311610e9457829003601f168201915b50505050508152505081525050905080915050611049565b6060610ed3612622565b6040518060c001604052806040518060400160405280600181526020017f30000000000000000000000000000000000000000000000000000000000000008152508152602001600073ffffffffffffffffffffffffffffffffffffffff1681526020018381526020016040518060e0016040528060405180602001604052806000815250815260200160405180602001604052806000815250815260200160405180602001604052806000815250815260200160405180602001604052806000815250815260200160405180602001604052806000815250815260200160405180602001604052806000815250815260200160405180602001604052806000815250815250815260200160405180606001604052806000151581526020016000815260200160405180602001604052806000815250815250815260200160405180606001604052806000151581526020016000815260200160405180602001604052806000815250815250815250905080925050505b919050565b6110566112ec565b611095576040517f08c379a000000000000000000000000000000000000000000000000000000000815260040161108c90613af7565b60405180910390fd5b600115156009836040516110a99190613880565b908152602001604051809103902060009054906101000a900460ff161515146110d157600080fd5b600073ffffffffffffffffffffffffffffffffffffffff16600a836040516110f99190613880565b908152602001604051809103902060010160009054906101000a900473ffffffffffffffffffffffffffffffffffffffff1673ffffffffffffffffffffffffffffffffffffffff16141561114c57600080fd5b60011515600a836040516111609190613880565b9081526020016040518091039020600a0160000160009054906101000a900460ff1615151461118e57600080fd5b60001515600a836040516111a29190613880565b9081526020016040518091039020600d0160000160009054906101000a900460ff161515146111d057600080fd5b600a826040516111e09190613880565b908152602001604051809103902060010160009054906101000a900473ffffffffffffffffffffffffffffffffffffffff1673ffffffffffffffffffffffffffffffffffffffff166108fc829081150290604051600060405180830381858888f19350505050158015611257573d6000803e3d6000fd5b506001600a8360405161126a9190613880565b9081526020016040518091039020600d0160000160006101000a81548160ff02191690831515021790555080600a836040516112a69190613880565b9081526020016040518091039020600d01600101819055505050565b6000600660009054906101000a900473ffffffffffffffffffffffffffffffffffffffff16905090565b6000600660009054906101000a900473ffffffffffffffffffffffffffffffffffffffff1673ffffffffffffffffffffffffffffffffffffffff163373ffffffffffffffffffffffffffffffffffffffff1614905090565b61134c6112ec565b61138b576040517f08c379a000000000000000000000000000000000000000000000000000000000815260040161138290613af7565b60405180910390fd5b80600a82600001516040516113a09190613869565b908152602001604051809103902060008201518160000190805190602001906113ca929190612681565b5060208201518160010160006101000a81548173ffffffffffffffffffffffffffffffffffffffff021916908373ffffffffffffffffffffffffffffffffffffffff160217905550604082015181600201908051906020019061142e929190612701565b506060820151816003016000820151816000019080519060200190611454929190612681565b506020820151816001019080519060200190611471929190612681565b50604082015181600201908051906020019061148e929190612681565b5060608201518160030190805190602001906114ab929190612681565b5060808201518160040190805190602001906114c8929190612681565b5060a08201518160050190805190602001906114e5929190612681565b5060c0820151816006019080519060200190611502929190612681565b505050608082015181600a0160008201518160000160006101000a81548160ff021916908315150217905550602082015181600101556040820151816002019080519060200190611554929190612681565b50505060a082015181600d0160008201518160000160006101000a81548160ff0219169083151502179055506020820151816001015560408201518160020190805190602001906115a6929190612681565b5050509050506001600982600001516040516115c29190613869565b908152602001604051809103902060006101000a81548160ff02191690831515021790555050565b6115f26112ec565b611631576040517f08c379a000000000000000000000000000000000000000000000000000000000815260040161162890613af7565b60405180910390fd5b61163a81611b4a565b50565b60006116476112ec565b611686576040517f08c379a000000000000000000000000000000000000000000000000000000000815260040161167d90613af7565b60405180910390fd5b6000905060028081111561169657fe5b600b836040516116a69190613880565b908152602001604051809103902060030160009054906101000a900460ff1660028111156116d057fe5b14801561172057506002808111156116e457fe5b600b836040516116f49190613880565b908152602001604051809103902060030160019054906101000a900460ff16600281111561171e57fe5b145b156117c257600061175c6007600b8560405161173c9190613880565b908152602001604051809103902060020154611c7a90919063ffffffff16565b905060006117956003600b866040516117759190613880565b908152602001604051809103902060010154611c7a90919063ffffffff16565b90506117bd600a6117af8385611cea90919063ffffffff16565b611d3f90919063ffffffff16565b925050505b919050565b816005600082815260200190815260200160002060009054906101000a900473ffffffffffffffffffffffffffffffffffffffff1673ffffffffffffffffffffffffffffffffffffffff163373ffffffffffffffffffffffffffffffffffffffff1614611869576040517f08c379a000000000000000000000000000000000000000000000000000000000815260040161186090613b17565b60405180910390fd5b6005600082815260200190815260200160002060006101000a81549073ffffffffffffffffffffffffffffffffffffffff0219169055807f7cc135e0cebb02c3480ae5d74d377283180a2601f8f644edf7987b009316c63a60405160405180910390a26002600b600c60008681526020019081526020016000206040516118f09190613947565b908152602001604051809103902060030160006101000a81548160ff0219169083600281111561191c57fe5b021790555081600b600c60008681526020019081526020016000206040516119449190613947565b908152602001604051809103902060010181905550505050565b60006060604051806060016040528060318152602001613e89603191398360405160200161198d9291906138b9565b60405160208183030381529060405290506060836040516020016119b19190613897565b60405160208183030381529060405290506119d4828263fe3168f660e01b611d9b565b925084600c600085815260200190815260200160002090805190602001906119fd929190612761565b506001600b86604051611a109190613880565b908152602001604051809103902060030160006101000a81548160ff02191690836002811115611a3c57fe5b0217905550505092915050565b60006060604051806060016040528060308152602001613eba60309139858585604051602001611a7c94939291906138e8565b6040516020818303038152906040529050611ad4816040518060400160405280600581526020017f73636f7265000000000000000000000000000000000000000000000000000000815250633794b04c60e01b611d9b565b915085600c60008481526020019081526020016000209080519060200190611afd929190612761565b506001600b87604051611b109190613880565b908152602001604051809103902060030160016101000a81548160ff02191690836002811115611b3c57fe5b021790555050949350505050565b600073ffffffffffffffffffffffffffffffffffffffff168173ffffffffffffffffffffffffffffffffffffffff161415611bba576040517f08c379a0000000000000000000000000000000000000000000000000000000008152600401611bb190613a57565b60405180910390fd5b8073ffffffffffffffffffffffffffffffffffffffff16600660009054906101000a900473ffffffffffffffffffffffffffffffffffffffff1673ffffffffffffffffffffffffffffffffffffffff167f8be0079c531659141344cd1fd0a4f28419497f9722a3daafe3b4186f6b6457e060405160405180910390a380600660006101000a81548173ffffffffffffffffffffffffffffffffffffffff021916908373ffffffffffffffffffffffffffffffffffffffff16021790555050565b600080831415611c8d5760009050611ce4565b6000828402905082848281611c9e57fe5b0414611cdf576040517f08c379a0000000000000000000000000000000000000000000000000000000008152600401611cd690613ad7565b60405180910390fd5b809150505b92915050565b600080828401905083811015611d35576040517f08c379a0000000000000000000000000000000000000000000000000000000008152600401611d2c90613a77565b60405180910390fd5b8091505092915050565b6000808211611d83576040517f08c379a0000000000000000000000000000000000000000000000000000000008152600401611d7a90613ab7565b60405180910390fd5b6000828481611d8e57fe5b0490508091505092915050565b6000611da56127e1565b611db26007543085611e5e565b9050611dfe6040518060400160405280600381526020017f75726c00000000000000000000000000000000000000000000000000000000008152508683611e8f9092919063ffffffff16565b611e486040518060400160405280600481526020017f70617468000000000000000000000000000000000000000000000000000000008152508583611e8f9092919063ffffffff16565b611e5481600854611ec2565b9150509392505050565b611e666127e1565b611e6e6127e1565b611e8585858584611ef9909392919063ffffffff16565b9150509392505050565b611ea6828460800151611fa990919063ffffffff16565b611ebd818460800151611fa990919063ffffffff16565b505050565b6000611ef1600360009054906101000a900473ffffffffffffffffffffffffffffffffffffffff168484611fce565b905092915050565b611f016127e1565b611f11856080015161010061219b565b508385600001818152505082856020019073ffffffffffffffffffffffffffffffffffffffff16908173ffffffffffffffffffffffffffffffffffffffff16815250508185604001907bffffffffffffffffffffffffffffffffffffffffffffffffffffffff191690817bffffffffffffffffffffffffffffffffffffffffffffffffffffffff191681525050849050949350505050565b611fb682600383516121ef565b611fc9818361233490919063ffffffff16565b505050565b600030600454604051602001611fe592919061383d565b604051602081830303815290604052805190602001209050600454836060018181525050836005600083815260200190815260200160002060006101000a81548173ffffffffffffffffffffffffffffffffffffffff021916908373ffffffffffffffffffffffffffffffffffffffff160217905550807fb5e6e01e79f91267dc17b4e6314d5d4d03593d2ceee0fbb452b750bd70ea5af960405160405180910390a2600260009054906101000a900473ffffffffffffffffffffffffffffffffffffffff1673ffffffffffffffffffffffffffffffffffffffff16634000aea085846120d187612356565b6040518463ffffffff1660e01b81526004016120ef939291906139fe565b602060405180830381600087803b15801561210957600080fd5b505af115801561211d573d6000803e3d6000fd5b505050506040513d601f19601f820116820180604052506121419190810190612e22565b612180576040517f08c379a000000000000000000000000000000000000000000000000000000000815260040161217790613a97565b60405180910390fd5b60016004600082825401925050819055508090509392505050565b6121a361284e565b6000602083816121af57fe5b06146121c857602082816121bf57fe5b06602003820191505b81836020018181525050604051808452600081528281016020016040525082905092915050565b6017811161221c576122168160058460ff16901b60ff16178461243890919063ffffffff16565b5061232f565b60ff811161225e57612241601860058460ff16901b178461243890919063ffffffff16565b50612258816001856124589092919063ffffffff16565b5061232e565b61ffff81116122a157612284601960058460ff16901b178461243890919063ffffffff16565b5061229b816002856124589092919063ffffffff16565b5061232d565b63ffffffff81116122e6576122c9601a60058460ff16901b178461243890919063ffffffff16565b506122e0816004856124589092919063ffffffff16565b5061232c565b67ffffffffffffffff811161232b57612312601b60058460ff16901b178461243890919063ffffffff16565b50612329816008856124589092919063ffffffff16565b505b5b5b5b5b505050565b61233c61284e565b61234e8384600001515184855161247a565b905092915050565b6060600360009054906101000a900473ffffffffffffffffffffffffffffffffffffffff1673ffffffffffffffffffffffffffffffffffffffff166340429946905060e01b600080846000015185602001518660400151876060015160018960800151600001516040516024016123d4989796959493929190613979565b604051602081830303815290604052907bffffffffffffffffffffffffffffffffffffffffffffffffffffffff19166020820180517bffffffffffffffffffffffffffffffffffffffffffffffffffffffff83818316178352505050509050919050565b61244061284e565b6124508384600001515184612533565b905092915050565b61246061284e565b612471848560000151518585612581565b90509392505050565b61248261284e565b825182111561249057600080fd5b846020015182850111156124bb576124ba8560026124b488602001518887016125e2565b026125fe565b5b6000808651805187602083010193508088870111156124da5787860182525b60208701925050505b6020841061250657805182526020820191506020810190506020840393506124e3565b60006001856020036101000a03905080198251168184511681811785525050879350505050949350505050565b61253b61284e565b83602001518310612558576125578460028660200151026125fe565b5b8351805160208583010184815381861415612574576001820183525b5050508390509392505050565b61258961284e565b846020015184830111156125a7576125a6856002868501026125fe565b5b60006001836101000a03905085518386820101858319825116178152815185880111156125d45784870182525b505085915050949350505050565b6000818311156125f4578290506125f8565b8190505b92915050565b606082600001519050612611838361219b565b5061261c8382612334565b50505050565b60405180610200016040528060608152602001600073ffffffffffffffffffffffffffffffffffffffff16815260200160608152602001612661612868565b815260200161266e6128a5565b815260200161267b6128a5565b81525090565b828054600181600116156101000203166002900490600052602060002090601f016020900481019282601f106126c257805160ff19168380011785556126f0565b828001600101855582156126f0579182015b828111156126ef5782518255916020019190600101906126d4565b5b5090506126fd91906128c8565b5090565b828054828255906000526020600020908101928215612750579160200282015b8281111561274f57825182908051906020019061273f929190612681565b5091602001919060010190612721565b5b50905061275d91906128ed565b5090565b828054600181600116156101000203166002900490600052602060002090601f016020900481019282601f106127a257805160ff19168380011785556127d0565b828001600101855582156127d0579182015b828111156127cf5782518255916020019190600101906127b4565b5b5090506127dd91906128c8565b5090565b6040518060c0016040528060008019168152602001600073ffffffffffffffffffffffffffffffffffffffff16815260200160007bffffffffffffffffffffffffffffffffffffffffffffffffffffffff1916815260200160008152602001612848612919565b81525090565b604051806040016040528060608152602001600081525090565b6040518060e00160405280606081526020016060815260200160608152602001606081526020016060815260200160608152602001606081525090565b604051806060016040528060001515815260200160008152602001606081525090565b6128ea91905b808211156128e65760008160009055506001016128ce565b5090565b90565b61291691905b8082111561291257600081816129099190612933565b506001016128f3565b5090565b90565b604051806040016040528060608152602001600081525090565b50805460018160011615610100020316600290046000825580601f106129595750612978565b601f01602090049060005260206000209081019061297791906128c8565b5b50565b60008135905061298a81613e15565b92915050565b60008135905061299f81613e2c565b92915050565b600082601f8301126129b657600080fd5b81356129c96129c482613ba1565b613b74565b9150818183526020840193506020810190508360005b83811015612a0f57813586016129f58882612a58565b8452602084019350602083019250506001810190506129df565b5050505092915050565b600081359050612a2881613e43565b92915050565b600081519050612a3d81613e43565b92915050565b600081359050612a5281613e5a565b92915050565b600082601f830112612a6957600080fd5b8135612a7c612a7782613bc9565b613b74565b91508082526020830160208301858383011115612a9857600080fd5b612aa3838284613d87565b50505092915050565b600082601f830112612abd57600080fd5b8135612ad0612acb82613bf5565b613b74565b91508082526020830160208301858383011115612aec57600080fd5b612af7838284613d87565b50505092915050565b600060e08284031215612b1257600080fd5b612b1c60e0613b74565b9050600082013567ffffffffffffffff811115612b3857600080fd5b612b4484828501612a58565b600083015250602082013567ffffffffffffffff811115612b6457600080fd5b612b7084828501612a58565b602083015250604082013567ffffffffffffffff811115612b9057600080fd5b612b9c84828501612a58565b604083015250606082013567ffffffffffffffff811115612bbc57600080fd5b612bc884828501612a58565b606083015250608082013567ffffffffffffffff811115612be857600080fd5b612bf484828501612a58565b60808301525060a082013567ffffffffffffffff811115612c1457600080fd5b612c2084828501612a58565b60a08301525060c082013567ffffffffffffffff811115612c4057600080fd5b612c4c84828501612a58565b60c08301525092915050565b600060608284031215612c6a57600080fd5b612c746060613b74565b90506000612c8484828501612a19565b6000830152506020612c9884828501612de4565b602083015250604082013567ffffffffffffffff811115612cb857600080fd5b612cc484828501612a58565b60408301525092915050565b600060c08284031215612ce257600080fd5b612cec60c0613b74565b9050600082013567ffffffffffffffff811115612d0857600080fd5b612d1484828501612a58565b6000830152506020612d2884828501612990565b602083015250604082013567ffffffffffffffff811115612d4857600080fd5b612d54848285016129a5565b604083015250606082013567ffffffffffffffff811115612d7457600080fd5b612d8084828501612b00565b606083015250608082013567ffffffffffffffff811115612da057600080fd5b612dac84828501612c58565b60808301525060a082013567ffffffffffffffff811115612dcc57600080fd5b612dd884828501612c58565b60a08301525092915050565b600081359050612df381613e71565b92915050565b600060208284031215612e0b57600080fd5b6000612e198482850161297b565b91505092915050565b600060208284031215612e3457600080fd5b6000612e4284828501612a2e565b91505092915050565b60008060408385031215612e5e57600080fd5b6000612e6c85828601612a43565b9250506020612e7d85828601612de4565b9150509250929050565b600060208284031215612e9957600080fd5b600082013567ffffffffffffffff811115612eb357600080fd5b612ebf84828501612aac565b91505092915050565b60008060008060808587031215612ede57600080fd5b600085013567ffffffffffffffff811115612ef857600080fd5b612f0487828801612aac565b945050602085013567ffffffffffffffff811115612f2157600080fd5b612f2d87828801612aac565b935050604085013567ffffffffffffffff811115612f4a57600080fd5b612f5687828801612aac565b925050606085013567ffffffffffffffff811115612f7357600080fd5b612f7f87828801612aac565b91505092959194509250565b60008060408385031215612f9e57600080fd5b600083013567ffffffffffffffff811115612fb857600080fd5b612fc485828601612aac565b9250506020612fd585828601612de4565b9150509250929050565b600060208284031215612ff157600080fd5b600082013567ffffffffffffffff81111561300b57600080fd5b61301784828501612cd0565b91505092915050565b600061302c83836131bd565b905092915050565b61303d81613ce5565b82525050565b61304c81613cd3565b82525050565b600061305d82613c40565b6130678185613c84565b93508360208202850161307985613c21565b8060005b858110156130b557848403895281516130968582613020565b94506130a183613c77565b925060208a0199505060018101905061307d565b50829750879550505050505092915050565b6130d081613cf7565b82525050565b6130df81613cf7565b82525050565b6130ee81613d03565b82525050565b6130fd81613d0d565b82525050565b600061310e82613c56565b6131188185613c95565b9350613128818560208601613d96565b61313181613df7565b840191505092915050565b600061314782613c4b565b6131518185613c95565b9350613161818560208601613d96565b61316a81613df7565b840191505092915050565b61318661318182613d63565b613dc9565b82525050565b600061319782613c6c565b6131a18185613cc8565b93506131b1818560208601613d96565b80840191505092915050565b60006131c882613c61565b6131d28185613ca6565b93506131e2818560208601613d96565b6131eb81613df7565b840191505092915050565b600061320182613c61565b61320b8185613cc8565b935061321b818560208601613d96565b80840191505092915050565b6000815460018116600081146132445760018114613269576132ad565b607f60028304166132558187613cc8565b955060ff19831686528086019350506132ad565b600282046132778187613cc8565b955061328285613c2e565b60005b828110156132a457815481890152600182019150602081019050613285565b82880195505050505b505092915050565b60006132c2602683613cb7565b91507f4f776e61626c653a206e6577206f776e657220697320746865207a65726f206160008301527f64647265737300000000000000000000000000000000000000000000000000006020830152604082019050919050565b6000613328600883613cc8565b91507f266673436f64653d0000000000000000000000000000000000000000000000006000830152600882019050919050565b6000613368601b83613cb7565b91507f536166654d6174683a206164646974696f6e206f766572666c6f7700000000006000830152602082019050919050565b60006133a8602383613cb7565b91507f756e61626c6520746f207472616e73666572416e6443616c6c20746f206f726160008301527f636c6500000000000000000000000000000000000000000000000000000000006020830152604082019050919050565b600061340e601a83613cb7565b91507f536166654d6174683a206469766973696f6e206279207a65726f0000000000006000830152602082019050919050565b600061344e600983613cc8565b91507f3f616972706f72743d00000000000000000000000000000000000000000000006000830152600982019050919050565b600061348e600683613cc8565b91507f3f66726f6d3d00000000000000000000000000000000000000000000000000006000830152600682019050919050565b60006134ce602183613cb7565b91507f536166654d6174683a206d756c7469706c69636174696f6e206f766572666c6f60008301527f77000000000000000000000000000000000000000000000000000000000000006020830152604082019050919050565b6000613534602083613cb7565b91507f4f776e61626c653a2063616c6c6572206973206e6f7420746865206f776e65726000830152602082019050919050565b6000613574602883613cb7565b91507f536f75726365206d75737420626520746865206f7261636c65206f662074686560008301527f20726571756573740000000000000000000000000000000000000000000000006020830152604082019050919050565b60006135da600d83613cc8565b91507f2663617272696572436f64653d000000000000000000000000000000000000006000830152600d82019050919050565b600061361a600683613cc8565b91507f2e73636f726500000000000000000000000000000000000000000000000000006000830152600682019050919050565b600060e083016000830151848203600086015261366a82826131bd565b9150506020830151848203602086015261368482826131bd565b9150506040830151848203604086015261369e82826131bd565b915050606083015184820360608601526136b882826131bd565b915050608083015184820360808601526136d282826131bd565b91505060a083015184820360a08601526136ec82826131bd565b91505060c083015184820360c086015261370682826131bd565b9150508091505092915050565b600060608301600083015161372b60008601826130c7565b50602083015161373e6020860182613808565b506040830151848203604086015261375682826131bd565b9150508091505092915050565b600060c083016000830151848203600086015261378082826131bd565b91505060208301516137956020860182613034565b50604083015184820360408601526137ad8282613052565b915050606083015184820360608601526137c7828261364d565b915050608083015184820360808601526137e18282613713565b91505060a083015184820360a08601526137fb8282613713565b9150508091505092915050565b61381181613d59565b82525050565b61382081613d59565b82525050565b61383761383282613d59565b613ded565b82525050565b60006138498285613175565b6014820191506138598284613826565b6020820191508190509392505050565b600061387582846131f6565b915081905092915050565b600061388c828461318c565b915081905092915050565b60006138a3828461318c565b91506138ae8261360d565b915081905092915050565b60006138c582856131f6565b91506138d082613441565b91506138dc828461318c565b91508190509392505050565b60006138f482876131f6565b91506138ff82613481565b915061390b828661318c565b91506139168261331b565b9150613922828561318c565b915061392d826135cd565b9150613939828461318c565b915081905095945050505050565b60006139538284613227565b915081905092915050565b60006020820190506139736000830184613043565b92915050565b60006101008201905061398f600083018b613043565b61399c602083018a613817565b6139a960408301896130e5565b6139b66060830188613043565b6139c360808301876130f4565b6139d060a0830186613817565b6139dd60c0830185613817565b81810360e08301526139ef818461313c565b90509998505050505050505050565b6000606082019050613a136000830186613043565b613a206020830185613817565b8181036040830152613a328184613103565b9050949350505050565b6000602082019050613a5160008301846130d6565b92915050565b60006020820190508181036000830152613a70816132b5565b9050919050565b60006020820190508181036000830152613a908161335b565b9050919050565b60006020820190508181036000830152613ab08161339b565b9050919050565b60006020820190508181036000830152613ad081613401565b9050919050565b60006020820190508181036000830152613af0816134c1565b9050919050565b60006020820190508181036000830152613b1081613527565b9050919050565b60006020820190508181036000830152613b3081613567565b9050919050565b60006020820190508181036000830152613b518184613763565b905092915050565b6000602082019050613b6e6000830184613817565b92915050565b6000604051905081810181811067ffffffffffffffff82111715613b9757600080fd5b8060405250919050565b600067ffffffffffffffff821115613bb857600080fd5b602082029050602081019050919050565b600067ffffffffffffffff821115613be057600080fd5b601f19601f8301169050602081019050919050565b600067ffffffffffffffff821115613c0c57600080fd5b601f19601f8301169050602081019050919050565b6000602082019050919050565b60008160005260206000209050919050565b600081519050919050565b600081519050919050565b600081519050919050565b600081519050919050565b600081519050919050565b6000602082019050919050565b600082825260208201905092915050565b600082825260208201905092915050565b600082825260208201905092915050565b600082825260208201905092915050565b600081905092915050565b6000613cde82613d39565b9050919050565b6000613cf082613d39565b9050919050565b60008115159050919050565b6000819050919050565b60007fffffffff0000000000000000000000000000000000000000000000000000000082169050919050565b600073ffffffffffffffffffffffffffffffffffffffff82169050919050565b6000819050919050565b6000613d6e82613d75565b9050919050565b6000613d8082613d39565b9050919050565b82818337600083830152505050565b60005b83811015613db4578082015181840152602081019050613d99565b83811115613dc3576000848401525b50505050565b6000613dd482613ddb565b9050919050565b6000613de682613e08565b9050919050565b6000819050919050565b6000601f19601f8301169050919050565b60008160601b9050919050565b613e1e81613cd3565b8114613e2957600080fd5b50565b613e3581613ce5565b8114613e4057600080fd5b50565b613e4c81613cf7565b8114613e5757600080fd5b50565b613e6381613d03565b8114613e6e57600080fd5b50565b613e7a81613d59565b8114613e8557600080fd5b5056fe68747470733a2f2f666c79742e726f62696e74686f6d6173323539312e6e6f772e73682f616972706f72742f64656c617968747470733a2f2f666c79742e726f62696e74686f6d6173323539312e6e6f772e73682f666c696768742f7374617473a265627a7a72305820b47d6c9e6c3afeca49be53e11ffe7861eebd77a80bbbe4b0ad935eba6a9775236c6578706572696d656e74616cf50037",
  "source": "pragma solidity >=0.5.0 <0.6.0;\npragma experimental ABIEncoderV2;\n\nimport \"chainlink/v0.5/contracts/ChainlinkClient.sol\";\nimport \"chainlink/v0.5/contracts/vendor/Ownable.sol\";\nimport {\n    SafeMath as SafeMath_Chainlink\n} from \"chainlink/v0.5/contracts/vendor/SafeMath.sol\";\n\n/**\n * @title Flyt is a contract which requests data from the Chainlink network\n * @dev This contract is designed to work on multiple networks, including\n * local test networks\n */\ncontract Flyt is ChainlinkClient, Ownable {\n    using SafeMath_Chainlink for uint256;\n\n    bytes32 private constant JOB_ID = \"3cff0a3524694ff8834bda9cf9c779a1\";\n    address private constant ORACLE = 0xc99B3D447826532722E41bc36e644ba3479E4365;\n\n    string private constant GET_AIRPORT_DELAY_URL = \"https://flyt.robinthomas2591.now.sh/airport/delay\";\n    string private constant GET_FLIGHT_RATING_URL = \"https://flyt.robinthomas2591.now.sh/flight/stats\";\n\n    bytes32 jobId;\n    uint256 payment;\n\n    struct Flight {\n        string from;\n        string to;\n        string fsCode;\n        string carrierCode;\n        string name;\n        string departureTime;\n        string arrivalTime;\n    }\n\n    struct Payment {\n        bool paid;\n        uint256 amount;\n        string txHash;\n    }\n\n    struct Policy {\n        string policyId;\n        address payable owner;\n        string[] products;\n        Flight flight;\n        Payment premium;\n        Payment payment;\n    }\n\n    enum PremiumRequestStatus {INIT, SENT, COMPLETED}\n\n    struct Premium {\n        bool init;\n        uint256 airportRating;\n        uint256 flightRating;\n        PremiumRequestStatus hasAirportRating;\n        PremiumRequestStatus hasFlightRating;\n    }\n\n    mapping(string => bool) isPolicy;\n    mapping(string => Policy) policies;\n    mapping(string => Premium) premiums;\n    mapping(bytes32 => string) requests;\n\n    /**\n     * @notice Deploy the contract with a specified address for the LINK\n     * and Oracle contract addresses\n     * @dev Sets the storage for the specified addresses\n     * @param _link The address of the LINK token contract\n     * @param _oracle The address of the ORACLE contract\n     * @param _jobId jobId where the Chainlink request to be sent.\n     */\n    constructor(address _link, address _oracle, bytes32 _jobId) public {\n        // Set the address for the LINK token for the network.\n        if (_link == address(0)) {\n            // Useful for deploying to public networks.\n            setPublicChainlinkToken();\n            setChainlinkOracle(ORACLE);\n            jobId = JOB_ID;\n            payment = 1 * LINK;\n        } else {\n            setChainlinkToken(_link);\n            setChainlinkOracle(_oracle);\n            jobId = _jobId;\n            payment = 1;\n        }\n    }\n\n    // Create a new policy.\n    function createNewPolicy(Policy memory _policy) public onlyOwner {\n        policies[_policy.policyId] = _policy;\n        isPolicy[_policy.policyId] = true;\n    }\n\n    // Get policy details.\n    function getPolicy(string memory _policyId)\n        public\n        view\n        onlyOwner\n        returns (Policy memory)\n    {\n        if (isPolicy[_policyId] == true) {\n            // Policy exists.\n            Policy memory _policy = policies[_policyId];\n            return _policy;\n        } else {\n            // Policy doesnt exist.\n            // Return a dummy.\n            string[] memory products;\n            Policy memory _policy = Policy(\n                \"0\",\n                address(0),\n                products,\n                Flight(\"\", \"\", \"\", \"\", \"\", \"\", \"\"),\n                Payment(false, 0, \"\"),\n                Payment(false, 0, \"\")\n            );\n            return _policy;\n        }\n    }\n\n    function getPremium(string memory _policyId)\n        public\n        view\n        onlyOwner\n        returns (uint256 _result)\n    {\n        // Calculate the premium if chainlink requests have all returned.\n        // Its done using weighted average.\n        _result = 0;\n        if (\n            premiums[_policyId].hasAirportRating ==\n            PremiumRequestStatus.COMPLETED &&\n            premiums[_policyId].hasFlightRating ==\n            PremiumRequestStatus.COMPLETED\n        ) {\n            // Calculate the value based on weighted average.\n            // Flight Rating (based on historical performance) is given 70% weightage.\n            // Departure Airport Rating is given 30% weightage.\n            uint256 a = premiums[_policyId].flightRating.mul(7);\n            uint256 f = premiums[_policyId].airportRating.mul(3);\n            _result = a.add(f).div(10);\n        }\n    }\n\n    // Calculate the policy premium.\n    function calculatePremium(\n        string memory _policyId,\n        string memory _from,\n        string memory _fsCode,\n        string memory _carrierCode\n    ) public onlyOwner {\n        // Set the initial state.\n        if (premiums[_policyId].init == false) {\n            premiums[_policyId].hasAirportRating = PremiumRequestStatus.INIT;\n            premiums[_policyId].hasFlightRating = PremiumRequestStatus.INIT;\n            premiums[_policyId].init = true;\n        }\n\n        // Send the chainlink requests to the oracles if not sent.\n        if (premiums[_policyId].hasAirportRating == PremiumRequestStatus.INIT) {\n            getAirportRating(_policyId, _from);\n        }\n        if (premiums[_policyId].hasFlightRating == PremiumRequestStatus.INIT) {\n            getFlightRating(_policyId, _from, _fsCode, _carrierCode);\n        }\n    }\n\n    function getAirportRating(string memory _policyId, string memory _airport)\n        private\n        returns (bytes32 requestId)\n    {\n        string memory _url = string(\n            abi.encodePacked(GET_AIRPORT_DELAY_URL, \"?airport=\", _airport)\n        );\n        string memory _path = string(abi.encodePacked(_airport, \".score\"));\n\n        requestId = createRequestTo(\n            _url,\n            _path,\n            this.setAirportRating.selector\n        );\n\n        requests[requestId] = _policyId;\n        premiums[_policyId].hasAirportRating = PremiumRequestStatus.SENT;\n    }\n\n    function setAirportRating(bytes32 _requestId, uint256 _score)\n        public\n        recordChainlinkFulfillment(_requestId)\n    {\n        premiums[requests[_requestId]].hasAirportRating = PremiumRequestStatus\n            .COMPLETED;\n        premiums[requests[_requestId]].airportRating = _score;\n    }\n\n    function getFlightRating(\n        string memory _policyId,\n        string memory _from,\n        string memory _fsCode,\n        string memory _carrierCode\n    ) private returns (bytes32 requestId) {\n        string memory _url = string(\n            abi.encodePacked(\n                GET_FLIGHT_RATING_URL,\n                \"?from=\",\n                _from,\n                \"&fsCode=\",\n                _fsCode,\n                \"&carrierCode=\",\n                _carrierCode\n            )\n        );\n\n        requestId = createRequestTo(\n            _url,\n            \"score\",\n            this.setFlightRating.selector\n        );\n\n        requests[requestId] = _policyId;\n        premiums[_policyId].hasFlightRating = PremiumRequestStatus.SENT;\n    }\n\n    function setFlightRating(bytes32 _requestId, uint256 _rating)\n        public\n        recordChainlinkFulfillment(_requestId)\n    {\n        premiums[requests[_requestId]].hasFlightRating = PremiumRequestStatus\n            .COMPLETED;\n        premiums[requests[_requestId]].flightRating = _rating;\n    }\n\n    /**\n     * @notice Creates a request to the specified Oracle contract address\n     * @dev This function ignores the stored Oracle contract address and\n     * will instead send the request to the address specified\n     * @param _url The URL to fetch data from\n     * @param _path The dot-delimited path to parse of the response\n     * @param _callbackFn The callback function to call once request is processed\n     */\n    function createRequestTo(\n        string memory _url,\n        string memory _path,\n        bytes4 _callbackFn\n    ) private returns (bytes32 requestId) {\n        Chainlink.Request memory req = buildChainlinkRequest(\n            jobId,\n            address(this),\n            _callbackFn\n        );\n        req.add(\"url\", _url);\n        req.add(\"path\", _path);\n        requestId = sendChainlinkRequest(req, payment);\n    }\n\n    function payPolicy(string memory _policyId, uint256 amount)\n        public\n        onlyOwner\n    {\n        require(isPolicy[_policyId] == true);\n        require(policies[_policyId].owner != address(0));\n        require(policies[_policyId].premium.paid == true);\n        require(policies[_policyId].payment.paid == false);\n\n        policies[_policyId].owner.transfer(amount);\n\n        policies[_policyId].payment.paid = true;\n        policies[_policyId].payment.amount = amount;\n    }\n\n    function() external payable {}\n\n}\n",
  "sourcePath": "/home/robin/Workspace/flight/src/truffle/contracts/Flyt.sol",
  "compiler": {
    "name": "solc",
    "version": "0.5.8+commit.23d335f2.Emscripten.clang"
  },
  "schemaVersion": "3.0.16",
  "updatedAt": "2019-10-30T02:56:03.342Z",
  "devdoc": {
    "details": "This contract is designed to work on multiple networks, including local test networks",
    "methods": {
      "constructor": {
        "details": "Sets the storage for the specified addresses",
        "params": {
          "_jobId": "jobId where the Chainlink request to be sent.",
          "_link": "The address of the LINK token contract",
          "_oracle": "The address of the ORACLE contract"
        }
      },
      "isOwner()": {
        "details": "Returns true if the caller is the current owner."
      },
      "owner()": {
        "details": "Returns the address of the current owner."
      },
      "transferOwnership(address)": {
        "details": "Transfers ownership of the contract to a new account (`newOwner`). Can only be called by the current owner."
      }
    },
    "title": "Flyt is a contract which requests data from the Chainlink network"
  },
  "userdoc": {
    "methods": {
      "constructor": "Deploy the contract with a specified address for the LINK and Oracle contract addresses"
    }
  }
}