{
  "contractName": "Flyt",
  "abi": [
    {
      "constant": true,
      "inputs": [],
      "name": "owner",
      "outputs": [
        {
          "name": "",
          "type": "address"
        }
      ],
      "payable": false,
      "stateMutability": "view",
      "type": "function"
    },
    {
      "inputs": [],
      "payable": false,
      "stateMutability": "nonpayable",
      "type": "constructor"
    },
    {
      "payable": true,
      "stateMutability": "payable",
      "type": "fallback"
    },
    {
      "anonymous": false,
      "inputs": [
        {
          "indexed": true,
          "name": "id",
          "type": "bytes32"
        }
      ],
      "name": "ChainlinkRequested",
      "type": "event"
    },
    {
      "anonymous": false,
      "inputs": [
        {
          "indexed": true,
          "name": "id",
          "type": "bytes32"
        }
      ],
      "name": "ChainlinkFulfilled",
      "type": "event"
    },
    {
      "anonymous": false,
      "inputs": [
        {
          "indexed": true,
          "name": "id",
          "type": "bytes32"
        }
      ],
      "name": "ChainlinkCancelled",
      "type": "event"
    },
    {
      "constant": false,
      "inputs": [
        {
          "components": [
            {
              "name": "policyId",
              "type": "string"
            },
            {
              "name": "owner",
              "type": "address"
            },
            {
              "name": "products",
              "type": "string[]"
            },
            {
              "components": [
                {
                  "name": "from",
                  "type": "string"
                },
                {
                  "name": "to",
                  "type": "string"
                },
                {
                  "name": "fsCode",
                  "type": "string"
                },
                {
                  "name": "carrierCode",
                  "type": "string"
                },
                {
                  "name": "name",
                  "type": "string"
                },
                {
                  "name": "departureTime",
                  "type": "string"
                },
                {
                  "name": "arrivalTime",
                  "type": "string"
                }
              ],
              "name": "flight",
              "type": "tuple"
            },
            {
              "components": [
                {
                  "name": "paid",
                  "type": "bool"
                },
                {
                  "name": "amount",
                  "type": "uint256"
                },
                {
                  "name": "txHash",
                  "type": "string"
                }
              ],
              "name": "premium",
              "type": "tuple"
            },
            {
              "components": [
                {
                  "name": "paid",
                  "type": "bool"
                },
                {
                  "name": "amount",
                  "type": "uint256"
                },
                {
                  "name": "txHash",
                  "type": "string"
                }
              ],
              "name": "payment",
              "type": "tuple"
            }
          ],
          "name": "_policy",
          "type": "tuple"
        }
      ],
      "name": "createNewPolicy",
      "outputs": [],
      "payable": false,
      "stateMutability": "nonpayable",
      "type": "function"
    },
    {
      "constant": true,
      "inputs": [
        {
          "name": "_policyId",
          "type": "string"
        }
      ],
      "name": "getPolicy",
      "outputs": [
        {
          "components": [
            {
              "name": "policyId",
              "type": "string"
            },
            {
              "name": "owner",
              "type": "address"
            },
            {
              "name": "products",
              "type": "string[]"
            },
            {
              "components": [
                {
                  "name": "from",
                  "type": "string"
                },
                {
                  "name": "to",
                  "type": "string"
                },
                {
                  "name": "fsCode",
                  "type": "string"
                },
                {
                  "name": "carrierCode",
                  "type": "string"
                },
                {
                  "name": "name",
                  "type": "string"
                },
                {
                  "name": "departureTime",
                  "type": "string"
                },
                {
                  "name": "arrivalTime",
                  "type": "string"
                }
              ],
              "name": "flight",
              "type": "tuple"
            },
            {
              "components": [
                {
                  "name": "paid",
                  "type": "bool"
                },
                {
                  "name": "amount",
                  "type": "uint256"
                },
                {
                  "name": "txHash",
                  "type": "string"
                }
              ],
              "name": "premium",
              "type": "tuple"
            },
            {
              "components": [
                {
                  "name": "paid",
                  "type": "bool"
                },
                {
                  "name": "amount",
                  "type": "uint256"
                },
                {
                  "name": "txHash",
                  "type": "string"
                }
              ],
              "name": "payment",
              "type": "tuple"
            }
          ],
          "name": "",
          "type": "tuple"
        }
      ],
      "payable": false,
      "stateMutability": "view",
      "type": "function"
    },
    {
      "constant": true,
      "inputs": [
        {
          "name": "_policyId",
          "type": "string"
        }
      ],
      "name": "getPremium",
      "outputs": [
        {
          "name": "result",
          "type": "uint256"
        }
      ],
      "payable": false,
      "stateMutability": "view",
      "type": "function"
    },
    {
      "constant": false,
      "inputs": [
        {
          "name": "_policyId",
          "type": "string"
        },
        {
          "name": "_from",
          "type": "string"
        },
        {
          "name": "_fsCode",
          "type": "string"
        },
        {
          "name": "_carrierCode",
          "type": "string"
        }
      ],
      "name": "calculatePremium",
      "outputs": [],
      "payable": false,
      "stateMutability": "nonpayable",
      "type": "function"
    },
    {
      "constant": false,
      "inputs": [
        {
          "name": "_requestId",
          "type": "bytes32"
        },
        {
          "name": "_score",
          "type": "uint256"
        }
      ],
      "name": "setAirportRating",
      "outputs": [],
      "payable": false,
      "stateMutability": "nonpayable",
      "type": "function"
    },
    {
      "constant": false,
      "inputs": [
        {
          "name": "_requestId",
          "type": "bytes32"
        },
        {
          "name": "_rating",
          "type": "uint256"
        }
      ],
      "name": "setFlightRating",
      "outputs": [],
      "payable": false,
      "stateMutability": "nonpayable",
      "type": "function"
    },
    {
      "constant": false,
      "inputs": [
        {
          "name": "_policyId",
          "type": "string"
        },
        {
          "name": "amount",
          "type": "uint256"
        }
      ],
      "name": "payPolicy",
      "outputs": [],
      "payable": false,
      "stateMutability": "nonpayable",
      "type": "function"
    }
  ],
  "bytecode": "0x608060405260016004553480156200001657600080fd5b50620000276200006e60201b60201c565b33600660006101000a81548173ffffffffffffffffffffffffffffffffffffffff021916908373ffffffffffffffffffffffffffffffffffffffff160217905550620001eb565b6200011473c89bd4e1632d3a43cb03aaad5262cbe4038bc57173ffffffffffffffffffffffffffffffffffffffff166338cc48316040518163ffffffff1660e01b815260040160206040518083038186803b158015620000cd57600080fd5b505afa158015620000e2573d6000803e3d6000fd5b505050506040513d601f19601f8201168201806040525062000108919081019062000171565b6200011660201b60201c565b565b80600260006101000a81548173ffffffffffffffffffffffffffffffffffffffff021916908373ffffffffffffffffffffffffffffffffffffffff16021790555050565b6000815190506200016b81620001d1565b92915050565b6000602082840312156200018457600080fd5b600062000194848285016200015a565b91505092915050565b6000620001aa82620001b1565b9050919050565b600073ffffffffffffffffffffffffffffffffffffffff82169050919050565b620001dc816200019d565b8114620001e857600080fd5b50565b613d6480620001fb6000396000f3fe60806040526004361061007b5760003560e01c80638da5cb5b1161004e5780638da5cb5b14610135578063c6bf8fc314610160578063f71f1d9e14610189578063fe3168f6146101c65761007b565b80632abc7beb1461007d5780633794b04c146100a657806360dd5f90146100cf5780636b3b314f1461010c575b005b34801561008957600080fd5b506100a4600480360361009f9190810190612e30565b6101ef565b005b3480156100b257600080fd5b506100cd60048036036100c89190810190612db3565b6103ff565b005b3480156100db57600080fd5b506100f660048036036100f19190810190612def565b610596565b604051610103919061398f565b60405180910390f35b34801561011857600080fd5b50610133600480360361012e9190810190612ef3565b61100a565b005b34801561014157600080fd5b5061014a611291565b6040516101579190613811565b60405180910390f35b34801561016c57600080fd5b5061018760048036036101829190810190612f47565b6112b7565b005b34801561019557600080fd5b506101b060048036036101ab9190810190612def565b611570565b6040516101bd91906139b1565b60405180910390f35b3480156101d257600080fd5b506101ed60048036036101e89190810190612db3565b61170d565b005b600660009054906101000a900473ffffffffffffffffffffffffffffffffffffffff1673ffffffffffffffffffffffffffffffffffffffff163373ffffffffffffffffffffffffffffffffffffffff161461024957600080fd5b6000151560098560405161025d9190613733565b908152602001604051809103902060000160009054906101000a900460ff16151514156103455760006009856040516102969190613733565b908152602001604051809103902060030160006101000a81548160ff021916908360028111156102c257fe5b021790555060006009856040516102d99190613733565b908152602001604051809103902060030160016101000a81548160ff0219169083600281111561030557fe5b0217905550600160098560405161031c9190613733565b908152602001604051809103902060000160006101000a81548160ff0219169083151502179055505b6000600281111561035257fe5b6009856040516103629190613733565b908152602001604051809103902060030160009054906101000a900460ff16600281111561038c57fe5b141561039e5761039c84846118a4565b505b600060028111156103ab57fe5b6009856040516103bb9190613733565b908152602001604051809103902060030160019054906101000a900460ff1660028111156103e557fe5b14156103f9576103f784848484611ab7565b505b50505050565b816005600082815260200190815260200160002060009054906101000a900473ffffffffffffffffffffffffffffffffffffffff1673ffffffffffffffffffffffffffffffffffffffff163373ffffffffffffffffffffffffffffffffffffffff16146104a1576040517f08c379a00000000000000000000000000000000000000000000000000000000081526004016104989061396f565b60405180910390fd5b6005600082815260200190815260200160002060006101000a81549073ffffffffffffffffffffffffffffffffffffffff0219169055807f7cc135e0cebb02c3480ae5d74d377283180a2601f8f644edf7987b009316c63a60405160405180910390a260026009600a600086815260200190815260200160002060405161052891906137fa565b908152602001604051809103902060030160016101000a81548160ff0219169083600281111561055457fe5b0217905550816009600a600086815260200190815260200160002060405161057c91906137fa565b908152602001604051809103902060020181905550505050565b61059e6125c8565b600660009054906101000a900473ffffffffffffffffffffffffffffffffffffffff1673ffffffffffffffffffffffffffffffffffffffff163373ffffffffffffffffffffffffffffffffffffffff16146105f857600080fd5b6001151560078360405161060c9190613733565b908152602001604051809103902060009054906101000a900460ff1615151415610e85576106386125c8565b6008836040516106489190613733565b90815260200160405180910390206040518060c0016040529081600082018054600181600116156101000203166002900480601f0160208091040260200160405190810160405280929190818152602001828054600181600116156101000203166002900480156106fa5780601f106106cf576101008083540402835291602001916106fa565b820191906000526020600020905b8154815290600101906020018083116106dd57829003601f168201915b505050505081526020016001820160009054906101000a900473ffffffffffffffffffffffffffffffffffffffff1673ffffffffffffffffffffffffffffffffffffffff1673ffffffffffffffffffffffffffffffffffffffff16815260200160028201805480602002602001604051908101604052809291908181526020016000905b8282101561083a578382906000526020600020018054600181600116156101000203166002900480601f0160208091040260200160405190810160405280929190818152602001828054600181600116156101000203166002900480156108265780601f106107fb57610100808354040283529160200191610826565b820191906000526020600020905b81548152906001019060200180831161080957829003601f168201915b50505050508152602001906001019061077e565b505050508152602001600382016040518060e0016040529081600082018054600181600116156101000203166002900480601f0160208091040260200160405190810160405280929190818152602001828054600181600116156101000203166002900480156108eb5780601f106108c0576101008083540402835291602001916108eb565b820191906000526020600020905b8154815290600101906020018083116108ce57829003601f168201915b50505050508152602001600182018054600181600116156101000203166002900480601f01602080910402602001604051908101604052809291908181526020018280546001816001161561010002031660029004801561098d5780601f106109625761010080835404028352916020019161098d565b820191906000526020600020905b81548152906001019060200180831161097057829003601f168201915b50505050508152602001600282018054600181600116156101000203166002900480601f016020809104026020016040519081016040528092919081815260200182805460018160011615610100020316600290048015610a2f5780601f10610a0457610100808354040283529160200191610a2f565b820191906000526020600020905b815481529060010190602001808311610a1257829003601f168201915b50505050508152602001600382018054600181600116156101000203166002900480601f016020809104026020016040519081016040528092919081815260200182805460018160011615610100020316600290048015610ad15780601f10610aa657610100808354040283529160200191610ad1565b820191906000526020600020905b815481529060010190602001808311610ab457829003601f168201915b50505050508152602001600482018054600181600116156101000203166002900480601f016020809104026020016040519081016040528092919081815260200182805460018160011615610100020316600290048015610b735780601f10610b4857610100808354040283529160200191610b73565b820191906000526020600020905b815481529060010190602001808311610b5657829003601f168201915b50505050508152602001600582018054600181600116156101000203166002900480601f016020809104026020016040519081016040528092919081815260200182805460018160011615610100020316600290048015610c155780601f10610bea57610100808354040283529160200191610c15565b820191906000526020600020905b815481529060010190602001808311610bf857829003601f168201915b50505050508152602001600682018054600181600116156101000203166002900480601f016020809104026020016040519081016040528092919081815260200182805460018160011615610100020316600290048015610cb75780601f10610c8c57610100808354040283529160200191610cb7565b820191906000526020600020905b815481529060010190602001808311610c9a57829003601f168201915b5050505050815250508152602001600a82016040518060600160405290816000820160009054906101000a900460ff1615151515815260200160018201548152602001600282018054600181600116156101000203166002900480601f016020809104026020016040519081016040528092919081815260200182805460018160011615610100020316600290048015610d925780601f10610d6757610100808354040283529160200191610d92565b820191906000526020600020905b815481529060010190602001808311610d7557829003601f168201915b5050505050815250508152602001600d82016040518060600160405290816000820160009054906101000a900460ff1615151515815260200160018201548152602001600282018054600181600116156101000203166002900480601f016020809104026020016040519081016040528092919081815260200182805460018160011615610100020316600290048015610e6d5780601f10610e4257610100808354040283529160200191610e6d565b820191906000526020600020905b815481529060010190602001808311610e5057829003601f168201915b50505050508152505081525050905080915050611005565b6060610e8f6125c8565b6040518060c001604052806040518060400160405280600181526020017f30000000000000000000000000000000000000000000000000000000000000008152508152602001600073ffffffffffffffffffffffffffffffffffffffff1681526020018381526020016040518060e0016040528060405180602001604052806000815250815260200160405180602001604052806000815250815260200160405180602001604052806000815250815260200160405180602001604052806000815250815260200160405180602001604052806000815250815260200160405180602001604052806000815250815260200160405180602001604052806000815250815250815260200160405180606001604052806000151581526020016000815260200160405180602001604052806000815250815250815260200160405180606001604052806000151581526020016000815260200160405180602001604052806000815250815250815250905080925050505b919050565b600660009054906101000a900473ffffffffffffffffffffffffffffffffffffffff1673ffffffffffffffffffffffffffffffffffffffff163373ffffffffffffffffffffffffffffffffffffffff161461106457600080fd5b600115156007836040516110789190613733565b908152602001604051809103902060009054906101000a900460ff161515146110a057600080fd5b600073ffffffffffffffffffffffffffffffffffffffff166008836040516110c89190613733565b908152602001604051809103902060010160009054906101000a900473ffffffffffffffffffffffffffffffffffffffff1673ffffffffffffffffffffffffffffffffffffffff16141561111b57600080fd5b6001151560088360405161112f9190613733565b9081526020016040518091039020600a0160000160009054906101000a900460ff1615151461115d57600080fd5b600015156008836040516111719190613733565b9081526020016040518091039020600d0160000160009054906101000a900460ff1615151461119f57600080fd5b6008826040516111af9190613733565b908152602001604051809103902060010160009054906101000a900473ffffffffffffffffffffffffffffffffffffffff1673ffffffffffffffffffffffffffffffffffffffff166108fc829081150290604051600060405180830381858888f19350505050158015611226573d6000803e3d6000fd5b5060016008836040516112399190613733565b9081526020016040518091039020600d0160000160006101000a81548160ff021916908315150217905550806008836040516112759190613733565b9081526020016040518091039020600d01600101819055505050565b600660009054906101000a900473ffffffffffffffffffffffffffffffffffffffff1681565b600660009054906101000a900473ffffffffffffffffffffffffffffffffffffffff1673ffffffffffffffffffffffffffffffffffffffff163373ffffffffffffffffffffffffffffffffffffffff161461131157600080fd5b8060088260000151604051611326919061371c565b90815260200160405180910390206000820151816000019080519060200190611350929190612627565b5060208201518160010160006101000a81548173ffffffffffffffffffffffffffffffffffffffff021916908373ffffffffffffffffffffffffffffffffffffffff16021790555060408201518160020190805190602001906113b49291906126a7565b5060608201518160030160008201518160000190805190602001906113da929190612627565b5060208201518160010190805190602001906113f7929190612627565b506040820151816002019080519060200190611414929190612627565b506060820151816003019080519060200190611431929190612627565b50608082015181600401908051906020019061144e929190612627565b5060a082015181600501908051906020019061146b929190612627565b5060c0820151816006019080519060200190611488929190612627565b505050608082015181600a0160008201518160000160006101000a81548160ff0219169083151502179055506020820151816001015560408201518160020190805190602001906114da929190612627565b50505060a082015181600d0160008201518160000160006101000a81548160ff02191690831515021790555060208201518160010155604082015181600201908051906020019061152c929190612627565b505050905050600160078260000151604051611548919061371c565b908152602001604051809103902060006101000a81548160ff02191690831515021790555050565b6000600660009054906101000a900473ffffffffffffffffffffffffffffffffffffffff1673ffffffffffffffffffffffffffffffffffffffff163373ffffffffffffffffffffffffffffffffffffffff16146115cc57600080fd5b600090506002808111156115dc57fe5b6009836040516115ec9190613733565b908152602001604051809103902060030160009054906101000a900460ff16600281111561161657fe5b148015611666575060028081111561162a57fe5b60098360405161163a9190613733565b908152602001604051809103902060030160019054906101000a900460ff16600281111561166457fe5b145b156117085760006116a260076009856040516116829190613733565b908152602001604051809103902060020154611c9b90919063ffffffff16565b905060006116db60036009866040516116bb9190613733565b908152602001604051809103902060010154611c9b90919063ffffffff16565b9050611703600a6116f58385611d0b90919063ffffffff16565b611d6090919063ffffffff16565b925050505b919050565b816005600082815260200190815260200160002060009054906101000a900473ffffffffffffffffffffffffffffffffffffffff1673ffffffffffffffffffffffffffffffffffffffff163373ffffffffffffffffffffffffffffffffffffffff16146117af576040517f08c379a00000000000000000000000000000000000000000000000000000000081526004016117a69061396f565b60405180910390fd5b6005600082815260200190815260200160002060006101000a81549073ffffffffffffffffffffffffffffffffffffffff0219169055807f7cc135e0cebb02c3480ae5d74d377283180a2601f8f644edf7987b009316c63a60405160405180910390a260026009600a600086815260200190815260200160002060405161183691906137fa565b908152602001604051809103902060030160006101000a81548160ff0219169083600281111561186257fe5b0217905550816009600a600086815260200190815260200160002060405161188a91906137fa565b908152602001604051809103902060010181905550505050565b60006118ae612707565b6118e07f33636666306133353234363934666638383334626461396366396337373961313063fe3168f660e01b611dbc565b90506119656040518060400160405280600381526020017f6765740000000000000000000000000000000000000000000000000000000000815250604051806060016040528060318152602001613cca603191398560405160200161194692919061376c565b60405160208183030381529060405283611ded9092919063ffffffff16565b6119ce6040518060400160405280600481526020017f7061746800000000000000000000000000000000000000000000000000000000815250846040516020016119af919061374a565b60405160208183030381529060405283611ded9092919063ffffffff16565b611a196040518060400160405280600581526020017f74696d6573000000000000000000000000000000000000000000000000000000815250600183611e209092919063ffffffff16565b611a4373c99b3d447826532722e41bc36e644ba3479e436582670de0b6b3a7640000600102611e53565b915083600a60008481526020019081526020016000209080519060200190611a6c929190612774565b506001600985604051611a7f9190613733565b908152602001604051809103902060030160006101000a81548160ff02191690836002811115611aab57fe5b02179055505092915050565b6000611ac1612707565b611af37f336366663061333532343639346666383833346264613963663963373739613130633794b04c60e01b611dbc565b9050611b7c6040518060400160405280600381526020017f6765740000000000000000000000000000000000000000000000000000000000815250604051806060016040528060308152602001613cfb60309139878787604051602001611b5d949392919061379b565b60405160208183030381529060405283611ded9092919063ffffffff16565b611bfb6040518060400160405280600481526020017f70617468000000000000000000000000000000000000000000000000000000008152506040518060400160405280600581526020017f73636f726500000000000000000000000000000000000000000000000000000081525083611ded9092919063ffffffff16565b611c2573c99b3d447826532722e41bc36e644ba3479e436582670de0b6b3a7640000600102611e53565b915085600a60008481526020019081526020016000209080519060200190611c4e929190612774565b506001600987604051611c619190613733565b908152602001604051809103902060030160016101000a81548160ff02191690836002811115611c8d57fe5b021790555050949350505050565b600080831415611cae5760009050611d05565b6000828402905082848281611cbf57fe5b0414611d00576040517f08c379a0000000000000000000000000000000000000000000000000000000008152600401611cf79061394f565b60405180910390fd5b809150505b92915050565b600080828401905083811015611d56576040517f08c379a0000000000000000000000000000000000000000000000000000000008152600401611d4d906138ef565b60405180910390fd5b8091505092915050565b6000808211611da4576040517f08c379a0000000000000000000000000000000000000000000000000000000008152600401611d9b9061392f565b60405180910390fd5b6000828481611daf57fe5b0490508091505092915050565b611dc4612707565b611dcc612707565b611de385858584612020909392919063ffffffff16565b9150509392505050565b611e048284608001516120d090919063ffffffff16565b611e1b8184608001516120d090919063ffffffff16565b505050565b611e378284608001516120d090919063ffffffff16565b611e4e8184608001516120f590919063ffffffff16565b505050565b600030600454604051602001611e6a9291906136f0565b604051602081830303815290604052805190602001209050600454836060018181525050836005600083815260200190815260200160002060006101000a81548173ffffffffffffffffffffffffffffffffffffffff021916908373ffffffffffffffffffffffffffffffffffffffff160217905550807fb5e6e01e79f91267dc17b4e6314d5d4d03593d2ceee0fbb452b750bd70ea5af960405160405180910390a2600260009054906101000a900473ffffffffffffffffffffffffffffffffffffffff1673ffffffffffffffffffffffffffffffffffffffff16634000aea08584611f5687612141565b6040518463ffffffff1660e01b8152600401611f74939291906138b1565b602060405180830381600087803b158015611f8e57600080fd5b505af1158015611fa2573d6000803e3d6000fd5b505050506040513d601f19601f82011682018060405250611fc69190810190612d8a565b612005576040517f08c379a0000000000000000000000000000000000000000000000000000000008152600401611ffc9061390f565b60405180910390fd5b60016004600082825401925050819055508090509392505050565b612028612707565b6120388560800151610100612223565b508385600001818152505082856020019073ffffffffffffffffffffffffffffffffffffffff16908173ffffffffffffffffffffffffffffffffffffffff16815250508185604001907bffffffffffffffffffffffffffffffffffffffffffffffffffffffff191690817bffffffffffffffffffffffffffffffffffffffffffffffffffffffff191681525050849050949350505050565b6120dd8260038351612277565b6120f081836123bc90919063ffffffff16565b505050565b6000811261210e5761210982600083612277565b61213d565b61213c826001837fffffffffffffffffffffffffffffffffffffffffffffffffffffffffffffffff03612277565b5b5050565b6060600360009054906101000a900473ffffffffffffffffffffffffffffffffffffffff1673ffffffffffffffffffffffffffffffffffffffff166340429946905060e01b600080846000015185602001518660400151876060015160018960800151600001516040516024016121bf98979695949392919061382c565b604051602081830303815290604052907bffffffffffffffffffffffffffffffffffffffffffffffffffffffff19166020820180517bffffffffffffffffffffffffffffffffffffffffffffffffffffffff83818316178352505050509050919050565b61222b6127f4565b60006020838161223757fe5b0614612250576020828161224757fe5b06602003820191505b81836020018181525050604051808452600081528281016020016040525082905092915050565b601781116122a45761229e8160058460ff16901b60ff1617846123de90919063ffffffff16565b506123b7565b60ff81116122e6576122c9601860058460ff16901b17846123de90919063ffffffff16565b506122e0816001856123fe9092919063ffffffff16565b506123b6565b61ffff81116123295761230c601960058460ff16901b17846123de90919063ffffffff16565b50612323816002856123fe9092919063ffffffff16565b506123b5565b63ffffffff811161236e57612351601a60058460ff16901b17846123de90919063ffffffff16565b50612368816004856123fe9092919063ffffffff16565b506123b4565b67ffffffffffffffff81116123b35761239a601b60058460ff16901b17846123de90919063ffffffff16565b506123b1816008856123fe9092919063ffffffff16565b505b5b5b5b5b505050565b6123c46127f4565b6123d683846000015151848551612420565b905092915050565b6123e66127f4565b6123f683846000015151846124d9565b905092915050565b6124066127f4565b612417848560000151518585612527565b90509392505050565b6124286127f4565b825182111561243657600080fd5b846020015182850111156124615761246085600261245a8860200151888701612588565b026125a4565b5b6000808651805187602083010193508088870111156124805787860182525b60208701925050505b602084106124ac5780518252602082019150602081019050602084039350612489565b60006001856020036101000a03905080198251168184511681811785525050879350505050949350505050565b6124e16127f4565b836020015183106124fe576124fd8460028660200151026125a4565b5b835180516020858301018481538186141561251a576001820183525b5050508390509392505050565b61252f6127f4565b8460200151848301111561254d5761254c856002868501026125a4565b5b60006001836101000a039050855183868201018583198251161781528151858801111561257a5784870182525b505085915050949350505050565b60008183111561259a5782905061259e565b8190505b92915050565b6060826000015190506125b78383612223565b506125c283826123bc565b50505050565b60405180610200016040528060608152602001600073ffffffffffffffffffffffffffffffffffffffff1681526020016060815260200161260761280e565b815260200161261461284b565b815260200161262161284b565b81525090565b828054600181600116156101000203166002900490600052602060002090601f016020900481019282601f1061266857805160ff1916838001178555612696565b82800160010185558215612696579182015b8281111561269557825182559160200191906001019061267a565b5b5090506126a3919061286e565b5090565b8280548282559060005260206000209081019282156126f6579160200282015b828111156126f55782518290805190602001906126e5929190612627565b50916020019190600101906126c7565b5b5090506127039190612893565b5090565b6040518060c0016040528060008019168152602001600073ffffffffffffffffffffffffffffffffffffffff16815260200160007bffffffffffffffffffffffffffffffffffffffffffffffffffffffff191681526020016000815260200161276e6128bf565b81525090565b828054600181600116156101000203166002900490600052602060002090601f016020900481019282601f106127b557805160ff19168380011785556127e3565b828001600101855582156127e3579182015b828111156127e25782518255916020019190600101906127c7565b5b5090506127f0919061286e565b5090565b604051806040016040528060608152602001600081525090565b6040518060e00160405280606081526020016060815260200160608152602001606081526020016060815260200160608152602001606081525090565b604051806060016040528060001515815260200160008152602001606081525090565b61289091905b8082111561288c576000816000905550600101612874565b5090565b90565b6128bc91905b808211156128b857600081816128af91906128d9565b50600101612899565b5090565b90565b604051806040016040528060608152602001600081525090565b50805460018160011615610100020316600290046000825580601f106128ff575061291e565b601f01602090049060005260206000209081019061291d919061286e565b5b50565b60008135905061293081613c6d565b92915050565b600082601f83011261294757600080fd5b813561295a612955826139f9565b6139cc565b9150818183526020840193506020810190508360005b838110156129a0578135860161298688826129e9565b845260208401935060208301925050600181019050612970565b5050505092915050565b6000813590506129b981613c84565b92915050565b6000815190506129ce81613c84565b92915050565b6000813590506129e381613c9b565b92915050565b600082601f8301126129fa57600080fd5b8135612a0d612a0882613a21565b6139cc565b91508082526020830160208301858383011115612a2957600080fd5b612a34838284613bdf565b50505092915050565b600082601f830112612a4e57600080fd5b8135612a61612a5c82613a4d565b6139cc565b91508082526020830160208301858383011115612a7d57600080fd5b612a88838284613bdf565b50505092915050565b600060e08284031215612aa357600080fd5b612aad60e06139cc565b9050600082013567ffffffffffffffff811115612ac957600080fd5b612ad5848285016129e9565b600083015250602082013567ffffffffffffffff811115612af557600080fd5b612b01848285016129e9565b602083015250604082013567ffffffffffffffff811115612b2157600080fd5b612b2d848285016129e9565b604083015250606082013567ffffffffffffffff811115612b4d57600080fd5b612b59848285016129e9565b606083015250608082013567ffffffffffffffff811115612b7957600080fd5b612b85848285016129e9565b60808301525060a082013567ffffffffffffffff811115612ba557600080fd5b612bb1848285016129e9565b60a08301525060c082013567ffffffffffffffff811115612bd157600080fd5b612bdd848285016129e9565b60c08301525092915050565b600060608284031215612bfb57600080fd5b612c0560606139cc565b90506000612c15848285016129aa565b6000830152506020612c2984828501612d75565b602083015250604082013567ffffffffffffffff811115612c4957600080fd5b612c55848285016129e9565b60408301525092915050565b600060c08284031215612c7357600080fd5b612c7d60c06139cc565b9050600082013567ffffffffffffffff811115612c9957600080fd5b612ca5848285016129e9565b6000830152506020612cb984828501612921565b602083015250604082013567ffffffffffffffff811115612cd957600080fd5b612ce584828501612936565b604083015250606082013567ffffffffffffffff811115612d0557600080fd5b612d1184828501612a91565b606083015250608082013567ffffffffffffffff811115612d3157600080fd5b612d3d84828501612be9565b60808301525060a082013567ffffffffffffffff811115612d5d57600080fd5b612d6984828501612be9565b60a08301525092915050565b600081359050612d8481613cb2565b92915050565b600060208284031215612d9c57600080fd5b6000612daa848285016129bf565b91505092915050565b60008060408385031215612dc657600080fd5b6000612dd4858286016129d4565b9250506020612de585828601612d75565b9150509250929050565b600060208284031215612e0157600080fd5b600082013567ffffffffffffffff811115612e1b57600080fd5b612e2784828501612a3d565b91505092915050565b60008060008060808587031215612e4657600080fd5b600085013567ffffffffffffffff811115612e6057600080fd5b612e6c87828801612a3d565b945050602085013567ffffffffffffffff811115612e8957600080fd5b612e9587828801612a3d565b935050604085013567ffffffffffffffff811115612eb257600080fd5b612ebe87828801612a3d565b925050606085013567ffffffffffffffff811115612edb57600080fd5b612ee787828801612a3d565b91505092959194509250565b60008060408385031215612f0657600080fd5b600083013567ffffffffffffffff811115612f2057600080fd5b612f2c85828601612a3d565b9250506020612f3d85828601612d75565b9150509250929050565b600060208284031215612f5957600080fd5b600082013567ffffffffffffffff811115612f7357600080fd5b612f7f84828501612c61565b91505092915050565b6000612f948383613116565b905092915050565b612fa581613b3d565b82525050565b612fb481613b2b565b82525050565b6000612fc582613a98565b612fcf8185613adc565b935083602082028501612fe185613a79565b8060005b8581101561301d5784840389528151612ffe8582612f88565b945061300983613acf565b925060208a01995050600181019050612fe5565b50829750879550505050505092915050565b61303881613b4f565b82525050565b61304781613b5b565b82525050565b61305681613b65565b82525050565b600061306782613aae565b6130718185613aed565b9350613081818560208601613bee565b61308a81613c4f565b840191505092915050565b60006130a082613aa3565b6130aa8185613aed565b93506130ba818560208601613bee565b6130c381613c4f565b840191505092915050565b6130df6130da82613bbb565b613c21565b82525050565b60006130f082613ac4565b6130fa8185613b20565b935061310a818560208601613bee565b80840191505092915050565b600061312182613ab9565b61312b8185613afe565b935061313b818560208601613bee565b61314481613c4f565b840191505092915050565b600061315a82613ab9565b6131648185613b20565b9350613174818560208601613bee565b80840191505092915050565b60008154600181166000811461319d57600181146131c257613206565b607f60028304166131ae8187613b20565b955060ff1983168652808601935050613206565b600282046131d08187613b20565b95506131db85613a86565b60005b828110156131fd578154818901526001820191506020810190506131de565b82880195505050505b505092915050565b600061321b600883613b20565b91507f266673436f64653d0000000000000000000000000000000000000000000000006000830152600882019050919050565b600061325b601b83613b0f565b91507f536166654d6174683a206164646974696f6e206f766572666c6f7700000000006000830152602082019050919050565b600061329b602383613b0f565b91507f756e61626c6520746f207472616e73666572416e6443616c6c20746f206f726160008301527f636c6500000000000000000000000000000000000000000000000000000000006020830152604082019050919050565b6000613301601a83613b0f565b91507f536166654d6174683a206469766973696f6e206279207a65726f0000000000006000830152602082019050919050565b6000613341600983613b20565b91507f3f616972706f72743d00000000000000000000000000000000000000000000006000830152600982019050919050565b6000613381600683613b20565b91507f3f66726f6d3d00000000000000000000000000000000000000000000000000006000830152600682019050919050565b60006133c1602183613b0f565b91507f536166654d6174683a206d756c7469706c69636174696f6e206f766572666c6f60008301527f77000000000000000000000000000000000000000000000000000000000000006020830152604082019050919050565b6000613427602883613b0f565b91507f536f75726365206d75737420626520746865206f7261636c65206f662074686560008301527f20726571756573740000000000000000000000000000000000000000000000006020830152604082019050919050565b600061348d600d83613b20565b91507f2663617272696572436f64653d000000000000000000000000000000000000006000830152600d82019050919050565b60006134cd600683613b20565b91507f2e73636f726500000000000000000000000000000000000000000000000000006000830152600682019050919050565b600060e083016000830151848203600086015261351d8282613116565b915050602083015184820360208601526135378282613116565b915050604083015184820360408601526135518282613116565b9150506060830151848203606086015261356b8282613116565b915050608083015184820360808601526135858282613116565b91505060a083015184820360a086015261359f8282613116565b91505060c083015184820360c08601526135b98282613116565b9150508091505092915050565b60006060830160008301516135de600086018261302f565b5060208301516135f160208601826136bb565b50604083015184820360408601526136098282613116565b9150508091505092915050565b600060c08301600083015184820360008601526136338282613116565b91505060208301516136486020860182612f9c565b50604083015184820360408601526136608282612fba565b9150506060830151848203606086015261367a8282613500565b9150506080830151848203608086015261369482826135c6565b91505060a083015184820360a08601526136ae82826135c6565b9150508091505092915050565b6136c481613bb1565b82525050565b6136d381613bb1565b82525050565b6136ea6136e582613bb1565b613c45565b82525050565b60006136fc82856130ce565b60148201915061370c82846136d9565b6020820191508190509392505050565b6000613728828461314f565b915081905092915050565b600061373f82846130e5565b915081905092915050565b600061375682846130e5565b9150613761826134c0565b915081905092915050565b6000613778828561314f565b915061378382613334565b915061378f82846130e5565b91508190509392505050565b60006137a7828761314f565b91506137b282613374565b91506137be82866130e5565b91506137c98261320e565b91506137d582856130e5565b91506137e082613480565b91506137ec82846130e5565b915081905095945050505050565b60006138068284613180565b915081905092915050565b60006020820190506138266000830184612fab565b92915050565b600061010082019050613842600083018b612fab565b61384f602083018a6136ca565b61385c604083018961303e565b6138696060830188612fab565b613876608083018761304d565b61388360a08301866136ca565b61389060c08301856136ca565b81810360e08301526138a28184613095565b90509998505050505050505050565b60006060820190506138c66000830186612fab565b6138d360208301856136ca565b81810360408301526138e5818461305c565b9050949350505050565b600060208201905081810360008301526139088161324e565b9050919050565b600060208201905081810360008301526139288161328e565b9050919050565b60006020820190508181036000830152613948816132f4565b9050919050565b60006020820190508181036000830152613968816133b4565b9050919050565b600060208201905081810360008301526139888161341a565b9050919050565b600060208201905081810360008301526139a98184613616565b905092915050565b60006020820190506139c660008301846136ca565b92915050565b6000604051905081810181811067ffffffffffffffff821117156139ef57600080fd5b8060405250919050565b600067ffffffffffffffff821115613a1057600080fd5b602082029050602081019050919050565b600067ffffffffffffffff821115613a3857600080fd5b601f19601f8301169050602081019050919050565b600067ffffffffffffffff821115613a6457600080fd5b601f19601f8301169050602081019050919050565b6000602082019050919050565b60008160005260206000209050919050565b600081519050919050565b600081519050919050565b600081519050919050565b600081519050919050565b600081519050919050565b6000602082019050919050565b600082825260208201905092915050565b600082825260208201905092915050565b600082825260208201905092915050565b600082825260208201905092915050565b600081905092915050565b6000613b3682613b91565b9050919050565b6000613b4882613b91565b9050919050565b60008115159050919050565b6000819050919050565b60007fffffffff0000000000000000000000000000000000000000000000000000000082169050919050565b600073ffffffffffffffffffffffffffffffffffffffff82169050919050565b6000819050919050565b6000613bc682613bcd565b9050919050565b6000613bd882613b91565b9050919050565b82818337600083830152505050565b60005b83811015613c0c578082015181840152602081019050613bf1565b83811115613c1b576000848401525b50505050565b6000613c2c82613c33565b9050919050565b6000613c3e82613c60565b9050919050565b6000819050919050565b6000601f19601f8301169050919050565b60008160601b9050919050565b613c7681613b3d565b8114613c8157600080fd5b50565b613c8d81613b4f565b8114613c9857600080fd5b50565b613ca481613b5b565b8114613caf57600080fd5b50565b613cbb81613bb1565b8114613cc657600080fd5b5056fe68747470733a2f2f666c79742e726f62696e74686f6d6173323539312e6e6f772e73682f616972706f72742f64656c617968747470733a2f2f666c79742e726f62696e74686f6d6173323539312e6e6f772e73682f666c696768742f7374617473a265627a7a72305820366d78cf0b74ab933b6255a14778a705e33fa550b44b5b88ffaef7ea78c43efc6c6578706572696d656e74616cf50037",
  "source": "pragma solidity >=0.5.0 <0.6.0;\npragma experimental ABIEncoderV2;\n\nimport \"chainlink/v0.5/contracts/ChainlinkClient.sol\";\nimport {\n    SafeMath as SafeMath_Chainlink\n} from \"chainlink/v0.5/contracts/vendor/SafeMath.sol\";\n\ncontract Flyt is ChainlinkClient {\n    using SafeMath_Chainlink for uint256;\n\n    bytes32 private constant JOB_ID = \"3cff0a3524694ff8834bda9cf9c779a1\";\n    address private constant ORACLE = 0xc99B3D447826532722E41bc36e644ba3479E4365;\n\n    string private constant GET_AIRPORT_DELAY_URL = \"https://flyt.robinthomas2591.now.sh/airport/delay\";\n    string private constant GET_FLIGHT_RATING_URL = \"https://flyt.robinthomas2591.now.sh/flight/stats\";\n\n    address public owner;\n\n    struct Flight {\n        string from;\n        string to;\n        string fsCode;\n        string carrierCode;\n        string name;\n        string departureTime;\n        string arrivalTime;\n    }\n\n    struct Payment {\n        bool paid;\n        uint256 amount;\n        string txHash;\n    }\n\n    struct Policy {\n        string policyId;\n        address payable owner;\n        string[] products;\n        Flight flight;\n        Payment premium;\n        Payment payment;\n    }\n\n    enum PremiumRequestStatus {INIT, SENT, COMPLETED}\n\n    struct Premium {\n        bool init;\n        uint256 airportRating;\n        uint256 flightRating;\n        PremiumRequestStatus hasAirportRating;\n        PremiumRequestStatus hasFlightRating;\n    }\n\n    mapping(string => bool) isPolicy;\n    mapping(string => Policy) policies;\n    mapping(string => Premium) premiums;\n    mapping(bytes32 => string) requests;\n\n    constructor() public {\n        setPublicChainlinkToken();\n        owner = msg.sender; // set the owner of the contract.\n    }\n\n    modifier _ownerOnly() {\n        require(msg.sender == owner);\n        _;\n    }\n\n    // Create a new policy.\n    function createNewPolicy(Policy memory _policy) public _ownerOnly {\n        policies[_policy.policyId] = _policy;\n        isPolicy[_policy.policyId] = true;\n    }\n\n    // Get policy details.\n    function getPolicy(string memory _policyId)\n        public\n        view\n        _ownerOnly\n        returns (Policy memory)\n    {\n        if (isPolicy[_policyId] == true) {\n            // Policy exists.\n            Policy memory _policy = policies[_policyId];\n            return _policy;\n        } else {\n            // Policy doesnt exist.\n            // Return a dummy.\n            string[] memory products;\n            Policy memory _policy = Policy(\n                \"0\",\n                address(0),\n                products,\n                Flight(\"\", \"\", \"\", \"\", \"\", \"\", \"\"),\n                Payment(false, 0, \"\"),\n                Payment(false, 0, \"\")\n            );\n            return _policy;\n        }\n    }\n\n    function getPremium(string memory _policyId)\n        public\n        view\n        _ownerOnly\n        returns (uint256 result)\n    {\n        // Calculate the premium if chainlink requests have all returned.\n        // Its done using weighted average.\n        result = 0;\n        if (\n            premiums[_policyId].hasAirportRating ==\n            PremiumRequestStatus.COMPLETED &&\n            premiums[_policyId].hasFlightRating ==\n            PremiumRequestStatus.COMPLETED\n        ) {\n            // Calculate the value based on weighted average.\n            // Flight Rating (based on historical performance) is given 70% weightage.\n            // Departure Airport Rating is given 30% weightage.\n            uint256 a = premiums[_policyId].flightRating.mul(7);\n            uint256 f = premiums[_policyId].airportRating.mul(3);\n            result = a.add(f).div(10);\n        }\n    }\n\n    // Calculate the policy premium.\n    function calculatePremium(\n        string memory _policyId,\n        string memory _from,\n        string memory _fsCode,\n        string memory _carrierCode\n    ) public _ownerOnly {\n        // Set the initial state.\n        if (premiums[_policyId].init == false) {\n            premiums[_policyId].hasAirportRating = PremiumRequestStatus.INIT;\n            premiums[_policyId].hasFlightRating = PremiumRequestStatus.INIT;\n            premiums[_policyId].init = true;\n        }\n\n        // Send the chainlink requests to the oracles if not sent.\n        if (premiums[_policyId].hasAirportRating == PremiumRequestStatus.INIT) {\n            getAirportRating(_policyId, _from);\n        }\n        if (premiums[_policyId].hasFlightRating == PremiumRequestStatus.INIT) {\n            getFlightRating(_policyId, _from, _fsCode, _carrierCode);\n        }\n    }\n\n    function getAirportRating(string memory _policyId, string memory _airport)\n        private\n        returns (bytes32 requestId)\n    {\n        Chainlink.Request memory req = buildChainlinkRequest(\n            JOB_ID,\n            address(this),\n            this.setAirportRating.selector\n        );\n\n        req.add(\n            \"get\",\n            string(\n                abi.encodePacked(GET_AIRPORT_DELAY_URL, \"?airport=\", _airport)\n            )\n        );\n\n        req.add(\"path\", string(abi.encodePacked(_airport, \".score\")));\n        req.addInt(\"times\", 1);\n\n        requestId = sendChainlinkRequestTo(ORACLE, req, 1 * LINK);\n\n        requests[requestId] = _policyId;\n        premiums[_policyId].hasAirportRating = PremiumRequestStatus.SENT;\n    }\n\n    function setAirportRating(bytes32 _requestId, uint256 _score)\n        public\n        recordChainlinkFulfillment(_requestId)\n    {\n        premiums[requests[_requestId]].hasAirportRating = PremiumRequestStatus\n            .COMPLETED;\n        premiums[requests[_requestId]].airportRating = _score;\n    }\n\n    function getFlightRating(\n        string memory _policyId,\n        string memory _from,\n        string memory _fsCode,\n        string memory _carrierCode\n    ) private returns (bytes32 requestId) {\n        Chainlink.Request memory req = buildChainlinkRequest(\n            JOB_ID,\n            address(this),\n            this.setFlightRating.selector\n        );\n\n        req.add(\n            \"get\",\n            string(\n                abi.encodePacked(\n                    GET_FLIGHT_RATING_URL,\n                    \"?from=\",\n                    _from,\n                    \"&fsCode=\",\n                    _fsCode,\n                    \"&carrierCode=\",\n                    _carrierCode\n                )\n            )\n        );\n\n        req.add(\"path\", \"score\");\n\n        requestId = sendChainlinkRequestTo(ORACLE, req, 1 * LINK);\n\n        requests[requestId] = _policyId;\n        premiums[_policyId].hasFlightRating = PremiumRequestStatus.SENT;\n    }\n\n    function setFlightRating(bytes32 _requestId, uint256 _rating)\n        public\n        recordChainlinkFulfillment(_requestId)\n    {\n        premiums[requests[_requestId]].hasFlightRating = PremiumRequestStatus\n            .COMPLETED;\n        premiums[requests[_requestId]].flightRating = _rating;\n    }\n\n    function payPolicy(string memory _policyId, uint256 amount)\n        public\n        _ownerOnly\n    {\n        require(isPolicy[_policyId] == true);\n        require(policies[_policyId].owner != address(0));\n        require(policies[_policyId].premium.paid == true);\n        require(policies[_policyId].payment.paid == false);\n\n        policies[_policyId].owner.transfer(amount);\n\n        policies[_policyId].payment.paid = true;\n        policies[_policyId].payment.amount = amount;\n    }\n\n    function() external payable {}\n\n}\n",
  "sourcePath": "/home/robin/Workspace/flight/src/truffle/contracts/Flyt.sol",
  "compiler": {
    "name": "solc",
    "version": "0.5.8+commit.23d335f2.Emscripten.clang"
  },
  "schemaVersion": "3.0.16",
  "updatedAt": "2019-10-28T23:34:02.274Z",
  "devdoc": {
    "methods": {}
  },
  "userdoc": {
    "methods": {}
  }
}