{
  "contractName": "Flyt",
  "abi": [
    {
      "constant": false,
      "inputs": [
        {
          "components": [
            {
              "name": "policyId",
              "type": "string"
            },
            {
              "name": "owner",
              "type": "string"
            },
            {
              "name": "txHash",
              "type": "string"
            },
            {
              "name": "products",
              "type": "string[]"
            },
            {
              "components": [
                {
                  "name": "from",
                  "type": "string"
                },
                {
                  "name": "to",
                  "type": "string"
                },
                {
                  "name": "code",
                  "type": "string"
                },
                {
                  "name": "name",
                  "type": "string"
                },
                {
                  "name": "departureTime",
                  "type": "string"
                }
              ],
              "name": "flight",
              "type": "tuple"
            }
          ],
          "name": "_policy",
          "type": "tuple"
        }
      ],
      "name": "createNewPolicy",
      "outputs": [],
      "payable": false,
      "stateMutability": "nonpayable",
      "type": "function"
    },
    {
      "constant": true,
      "inputs": [
        {
          "name": "_policyId",
          "type": "string"
        }
      ],
      "name": "getPolicy",
      "outputs": [
        {
          "components": [
            {
              "name": "policyId",
              "type": "string"
            },
            {
              "name": "owner",
              "type": "string"
            },
            {
              "name": "txHash",
              "type": "string"
            },
            {
              "name": "products",
              "type": "string[]"
            },
            {
              "components": [
                {
                  "name": "from",
                  "type": "string"
                },
                {
                  "name": "to",
                  "type": "string"
                },
                {
                  "name": "code",
                  "type": "string"
                },
                {
                  "name": "name",
                  "type": "string"
                },
                {
                  "name": "departureTime",
                  "type": "string"
                }
              ],
              "name": "flight",
              "type": "tuple"
            }
          ],
          "name": "",
          "type": "tuple"
        }
      ],
      "payable": false,
      "stateMutability": "view",
      "type": "function"
    },
    {
      "constant": true,
      "inputs": [
        {
          "name": "_policyId",
          "type": "string"
        }
      ],
      "name": "getPremium",
      "outputs": [
        {
          "components": [
            {
              "name": "chainlink",
              "type": "bool"
            },
            {
              "name": "hasWeather",
              "type": "bool"
            }
          ],
          "name": "",
          "type": "tuple"
        }
      ],
      "payable": false,
      "stateMutability": "view",
      "type": "function"
    }
  ],
  "bytecode": "0x608060405233600360006101000a81548173ffffffffffffffffffffffffffffffffffffffff021916908373ffffffffffffffffffffffffffffffffffffffff16021790555034801561005157600080fd5b50611564806100616000396000f3fe608060405234801561001057600080fd5b50600436106100415760003560e01c8063071f816d1461004657806360dd5f9014610062578063f71f1d9e14610092575b600080fd5b610060600480360361005b9190810190611084565b6100c2565b005b61007c60048036036100779190810190611043565b610290565b6040516100899190611379565b60405180910390f35b6100ac60048036036100a79190810190611043565b610a75565b6040516100b9919061139b565b60405180910390f35b600360009054906101000a900473ffffffffffffffffffffffffffffffffffffffff1673ffffffffffffffffffffffffffffffffffffffff163373ffffffffffffffffffffffffffffffffffffffff161461011c57600080fd5b8060018260000151604051610131919061134b565b9081526020016040518091039020600082015181600001908051906020019061015b929190610b2b565b506020820151816001019080519060200190610178929190610b2b565b506040820151816002019080519060200190610195929190610b2b565b5060608201518160030190805190602001906101b2929190610bab565b5060808201518160040160008201518160000190805190602001906101d8929190610b2b565b5060208201518160010190805190602001906101f5929190610b2b565b506040820151816002019080519060200190610212929190610b2b565b50606082015181600301908051906020019061022f929190610b2b565b50608082015181600401908051906020019061024c929190610b2b565b505050905050600160008260000151604051610268919061134b565b908152602001604051809103902060006101000a81548160ff02191690831515021790555050565b610298610c0b565b600360009054906101000a900473ffffffffffffffffffffffffffffffffffffffff1673ffffffffffffffffffffffffffffffffffffffff163373ffffffffffffffffffffffffffffffffffffffff16146102f257600080fd5b600115156000836040516103069190611362565b908152602001604051809103902060009054906101000a900460ff161515141561097357610332610c0b565b6001836040516103429190611362565b90815260200160405180910390206040518060a0016040529081600082018054600181600116156101000203166002900480601f0160208091040260200160405190810160405280929190818152602001828054600181600116156101000203166002900480156103f45780601f106103c9576101008083540402835291602001916103f4565b820191906000526020600020905b8154815290600101906020018083116103d757829003601f168201915b50505050508152602001600182018054600181600116156101000203166002900480601f0160208091040260200160405190810160405280929190818152602001828054600181600116156101000203166002900480156104965780601f1061046b57610100808354040283529160200191610496565b820191906000526020600020905b81548152906001019060200180831161047957829003601f168201915b50505050508152602001600282018054600181600116156101000203166002900480601f0160208091040260200160405190810160405280929190818152602001828054600181600116156101000203166002900480156105385780601f1061050d57610100808354040283529160200191610538565b820191906000526020600020905b81548152906001019060200180831161051b57829003601f168201915b5050505050815260200160038201805480602002602001604051908101604052809291908181526020016000905b82821015610622578382906000526020600020018054600181600116156101000203166002900480601f01602080910402602001604051908101604052809291908181526020018280546001816001161561010002031660029004801561060e5780601f106105e35761010080835404028352916020019161060e565b820191906000526020600020905b8154815290600101906020018083116105f157829003601f168201915b505050505081526020019060010190610566565b505050508152602001600482016040518060a0016040529081600082018054600181600116156101000203166002900480601f0160208091040260200160405190810160405280929190818152602001828054600181600116156101000203166002900480156106d35780601f106106a8576101008083540402835291602001916106d3565b820191906000526020600020905b8154815290600101906020018083116106b657829003601f168201915b50505050508152602001600182018054600181600116156101000203166002900480601f0160208091040260200160405190810160405280929190818152602001828054600181600116156101000203166002900480156107755780601f1061074a57610100808354040283529160200191610775565b820191906000526020600020905b81548152906001019060200180831161075857829003601f168201915b50505050508152602001600282018054600181600116156101000203166002900480601f0160208091040260200160405190810160405280929190818152602001828054600181600116156101000203166002900480156108175780601f106107ec57610100808354040283529160200191610817565b820191906000526020600020905b8154815290600101906020018083116107fa57829003601f168201915b50505050508152602001600382018054600181600116156101000203166002900480601f0160208091040260200160405190810160405280929190818152602001828054600181600116156101000203166002900480156108b95780601f1061088e576101008083540402835291602001916108b9565b820191906000526020600020905b81548152906001019060200180831161089c57829003601f168201915b50505050508152602001600482018054600181600116156101000203166002900480601f01602080910402602001604051908101604052809291908181526020018280546001816001161561010002031660029004801561095b5780601f106109305761010080835404028352916020019161095b565b820191906000526020600020905b81548152906001019060200180831161093e57829003601f168201915b50505050508152505081525050905080915050610a70565b606061097d610c0b565b6040518060a001604052806040518060400160405280600181526020017f300000000000000000000000000000000000000000000000000000000000000081525081526020016040518060200160405280600081525081526020016040518060200160405280600081525081526020018381526020016040518060a0016040528060405180602001604052806000815250815260200160405180602001604052806000815250815260200160405180602001604052806000815250815260200160405180602001604052806000815250815260200160405180602001604052806000815250815250815250905080925050505b919050565b610a7d610c41565b60011515600083604051610a919190611362565b908152602001604051809103902060009054906101000a900460ff16151514610ab957600080fd5b610ac1610c41565b600283604051610ad19190611362565b90815260200160405180910390206040518060400160405290816000820160009054906101000a900460ff161515151581526020016000820160019054906101000a900460ff161515151581525050905080915050919050565b828054600181600116156101000203166002900490600052602060002090601f016020900481019282601f10610b6c57805160ff1916838001178555610b9a565b82800160010185558215610b9a579182015b82811115610b99578251825591602001919060010190610b7e565b5b509050610ba79190610c5f565b5090565b828054828255906000526020600020908101928215610bfa579160200282015b82811115610bf9578251829080519060200190610be9929190610b2b565b5091602001919060010190610bcb565b5b509050610c079190610c84565b5090565b60405180610120016040528060608152602001606081526020016060815260200160608152602001610c3b610cb0565b81525090565b60405180604001604052806000151581526020016000151581525090565b610c8191905b80821115610c7d576000816000905550600101610c65565b5090565b90565b610cad91905b80821115610ca95760008181610ca09190610cdf565b50600101610c8a565b5090565b90565b6040518060a0016040528060608152602001606081526020016060815260200160608152602001606081525090565b50805460018160011615610100020316600290046000825580601f10610d055750610d24565b601f016020900490600052602060002090810190610d239190610c5f565b5b50565b600082601f830112610d3857600080fd5b8135610d4b610d46826113e3565b6113b6565b9150818183526020840193506020810190508360005b83811015610d915781358601610d778882610d9b565b845260208401935060208301925050600181019050610d61565b5050505092915050565b600082601f830112610dac57600080fd5b8135610dbf610dba8261140b565b6113b6565b91508082526020830160208301858383011115610ddb57600080fd5b610de68382846114d7565b50505092915050565b600082601f830112610e0057600080fd5b8135610e13610e0e82611437565b6113b6565b91508082526020830160208301858383011115610e2f57600080fd5b610e3a8382846114d7565b50505092915050565b600060a08284031215610e5557600080fd5b610e5f60a06113b6565b9050600082013567ffffffffffffffff811115610e7b57600080fd5b610e8784828501610d9b565b600083015250602082013567ffffffffffffffff811115610ea757600080fd5b610eb384828501610d9b565b602083015250604082013567ffffffffffffffff811115610ed357600080fd5b610edf84828501610d9b565b604083015250606082013567ffffffffffffffff811115610eff57600080fd5b610f0b84828501610d9b565b606083015250608082013567ffffffffffffffff811115610f2b57600080fd5b610f3784828501610d9b565b60808301525092915050565b600060a08284031215610f5557600080fd5b610f5f60a06113b6565b9050600082013567ffffffffffffffff811115610f7b57600080fd5b610f8784828501610d9b565b600083015250602082013567ffffffffffffffff811115610fa757600080fd5b610fb384828501610d9b565b602083015250604082013567ffffffffffffffff811115610fd357600080fd5b610fdf84828501610d9b565b604083015250606082013567ffffffffffffffff811115610fff57600080fd5b61100b84828501610d27565b606083015250608082013567ffffffffffffffff81111561102b57600080fd5b61103784828501610e43565b60808301525092915050565b60006020828403121561105557600080fd5b600082013567ffffffffffffffff81111561106f57600080fd5b61107b84828501610def565b91505092915050565b60006020828403121561109657600080fd5b600082013567ffffffffffffffff8111156110b057600080fd5b6110bc84828501610f43565b91505092915050565b60006110d1838361118e565b905092915050565b60006110e482611470565b6110ee818561149e565b93508360208202850161110085611463565b8060005b8581101561113c578484038952815161111d85826110c5565b945061112883611491565b925060208a01995050600181019050611104565b50829750879550505050505092915050565b611157816114cb565b82525050565b600061116882611486565b61117281856114c0565b93506111828185602086016114e6565b80840191505092915050565b60006111998261147b565b6111a381856114af565b93506111b38185602086016114e6565b6111bc81611519565b840191505092915050565b60006111d28261147b565b6111dc81856114c0565b93506111ec8185602086016114e6565b80840191505092915050565b600060a0830160008301518482036000860152611215828261118e565b9150506020830151848203602086015261122f828261118e565b91505060408301518482036040860152611249828261118e565b91505060608301518482036060860152611263828261118e565b9150506080830151848203608086015261127d828261118e565b9150508091505092915050565b600060a08301600083015184820360008601526112a7828261118e565b915050602083015184820360208601526112c1828261118e565b915050604083015184820360408601526112db828261118e565b915050606083015184820360608601526112f582826110d9565b9150506080830151848203608086015261130f82826111f8565b9150508091505092915050565b604082016000820151611332600085018261114e565b506020820151611345602085018261114e565b50505050565b600061135782846111c7565b915081905092915050565b600061136e828461115d565b915081905092915050565b60006020820190508181036000830152611393818461128a565b905092915050565b60006040820190506113b0600083018461131c565b92915050565b6000604051905081810181811067ffffffffffffffff821117156113d957600080fd5b8060405250919050565b600067ffffffffffffffff8211156113fa57600080fd5b602082029050602081019050919050565b600067ffffffffffffffff82111561142257600080fd5b601f19601f8301169050602081019050919050565b600067ffffffffffffffff82111561144e57600080fd5b601f19601f8301169050602081019050919050565b6000602082019050919050565b600081519050919050565b600081519050919050565b600081519050919050565b6000602082019050919050565b600082825260208201905092915050565b600082825260208201905092915050565b600081905092915050565b60008115159050919050565b82818337600083830152505050565b60005b838110156115045780820151818401526020810190506114e9565b83811115611513576000848401525b50505050565b6000601f19601f830116905091905056fea265627a7a723058203552e84ae26d920c02cc0878faf5d3c85345de4a407e643d8b616da40253cf896c6578706572696d656e74616cf50037",
  "source": "pragma solidity >=0.5.0 <0.6.0;\npragma experimental ABIEncoderV2;\n\ncontract Flyt {\n  struct Flight {\n    string from;\n    string to;\n    string code;\n    string name;\n    string departureTime;\n  }\n\n  struct Policy {\n    string policyId;\n    string owner;\n    string txHash;\n    string[] products;\n    Flight flight;\n  }\n\n  struct Premium {\n    bool chainlink;\n    bool hasWeather;\n  }\n\n  mapping(string => bool) isPolicy;\n  mapping(string => Policy) policies;\n  mapping(string => Premium) premiums;\n\n  address owner = msg.sender; // set the owner of the contract.\n\n  modifier _ownerOnly() {\n    require(msg.sender == owner);\n    _;\n  }\n\n  // Create a new policy.\n  function createNewPolicy(Policy memory _policy) public _ownerOnly {\n    policies[_policy.policyId] = _policy;\n    isPolicy[_policy.policyId] = true;\n  }\n\n  // Get policy details.\n  function getPolicy(string memory _policyId) public view _ownerOnly returns (Policy memory) {\n    if (isPolicy[_policyId] == true) {\n      // Policy exists.\n      Policy memory _policy = policies[_policyId];\n      return _policy;\n    } else {\n      // Policy doesnt exist.\n      // Return a dummy.\n      string[] memory products;\n      Policy memory _policy = Policy('0', '', '', products, Flight('', '', '', '', ''));\n      return _policy;\n    }\n  }\n\n  // Calculate the policy premium.\n  function getPremium(string memory _policyId) public view returns (Premium memory) {\n    require(isPolicy[_policyId] == true);\n\n    Premium memory _premium = premiums[_policyId];\n\n    // Send the chainlink requests to various oracles if not sent.\n\n    return _premium;\n  }\n\n}\n",
  "sourcePath": "/home/robin/Workspace/flight/truffle/contracts/Flyt.sol",
  "compiler": {
    "name": "solc",
    "version": "0.5.8+commit.23d335f2.Emscripten.clang"
  },
  "schemaVersion": "3.0.16",
  "updatedAt": "2019-10-20T04:02:24.846Z",
  "devdoc": {
    "methods": {}
  },
  "userdoc": {
    "methods": {}
  }
}