{
  "contractName": "Flyt",
  "abi": [
    {
      "constant": false,
      "inputs": [
        {
          "components": [
            {
              "name": "policyId",
              "type": "string"
            },
            {
              "name": "owner",
              "type": "string"
            },
            {
              "name": "txHash",
              "type": "string"
            },
            {
              "components": [
                {
                  "name": "from",
                  "type": "string"
                },
                {
                  "name": "to",
                  "type": "string"
                },
                {
                  "name": "code",
                  "type": "string"
                },
                {
                  "name": "name",
                  "type": "string"
                },
                {
                  "name": "departureTime",
                  "type": "string"
                }
              ],
              "name": "flight",
              "type": "tuple"
            }
          ],
          "name": "_policy",
          "type": "tuple"
        }
      ],
      "name": "createNewPolicy",
      "outputs": [],
      "payable": false,
      "stateMutability": "nonpayable",
      "type": "function"
    },
    {
      "constant": true,
      "inputs": [
        {
          "name": "_policyId",
          "type": "string"
        }
      ],
      "name": "getPolicy",
      "outputs": [
        {
          "components": [
            {
              "name": "policyId",
              "type": "string"
            },
            {
              "name": "owner",
              "type": "string"
            },
            {
              "name": "txHash",
              "type": "string"
            },
            {
              "components": [
                {
                  "name": "from",
                  "type": "string"
                },
                {
                  "name": "to",
                  "type": "string"
                },
                {
                  "name": "code",
                  "type": "string"
                },
                {
                  "name": "name",
                  "type": "string"
                },
                {
                  "name": "departureTime",
                  "type": "string"
                }
              ],
              "name": "flight",
              "type": "tuple"
            }
          ],
          "name": "",
          "type": "tuple"
        }
      ],
      "payable": false,
      "stateMutability": "view",
      "type": "function"
    },
    {
      "constant": true,
      "inputs": [
        {
          "name": "_policyId",
          "type": "string"
        }
      ],
      "name": "getPremium",
      "outputs": [
        {
          "components": [
            {
              "name": "chainlink",
              "type": "bool"
            },
            {
              "name": "hasWeather",
              "type": "bool"
            }
          ],
          "name": "",
          "type": "tuple"
        }
      ],
      "payable": false,
      "stateMutability": "view",
      "type": "function"
    }
  ],
  "bytecode": "0x608060405233600360006101000a81548173ffffffffffffffffffffffffffffffffffffffff021916908373ffffffffffffffffffffffffffffffffffffffff16021790555034801561005157600080fd5b506111d9806100616000396000f3fe608060405234801561001057600080fd5b50600436106100415760003560e01c806360dd5f9014610046578063bc80603714610076578063f71f1d9e14610092575b600080fd5b610060600480360361005b9190810190610db9565b6100c2565b60405161006d919061104c565b60405180910390f35b610090600480360361008b9190810190610dfa565b6107b5565b005b6100ac60048036036100a79190810190610db9565b610966565b6040516100b9919061106e565b60405180910390f35b6100ca610a1c565b600360009054906101000a900473ffffffffffffffffffffffffffffffffffffffff1673ffffffffffffffffffffffffffffffffffffffff163373ffffffffffffffffffffffffffffffffffffffff161461012457600080fd5b600115156000836040516101389190611035565b908152602001604051809103902060009054906101000a900460ff16151514156106bc57610164610a1c565b6001836040516101749190611035565b9081526020016040518091039020604051806080016040529081600082018054600181600116156101000203166002900480601f0160208091040260200160405190810160405280929190818152602001828054600181600116156101000203166002900480156102265780601f106101fb57610100808354040283529160200191610226565b820191906000526020600020905b81548152906001019060200180831161020957829003601f168201915b50505050508152602001600182018054600181600116156101000203166002900480601f0160208091040260200160405190810160405280929190818152602001828054600181600116156101000203166002900480156102c85780601f1061029d576101008083540402835291602001916102c8565b820191906000526020600020905b8154815290600101906020018083116102ab57829003601f168201915b50505050508152602001600282018054600181600116156101000203166002900480601f01602080910402602001604051908101604052809291908181526020018280546001816001161561010002031660029004801561036a5780601f1061033f5761010080835404028352916020019161036a565b820191906000526020600020905b81548152906001019060200180831161034d57829003601f168201915b50505050508152602001600382016040518060a0016040529081600082018054600181600116156101000203166002900480601f01602080910402602001604051908101604052809291908181526020018280546001816001161561010002031660029004801561041c5780601f106103f15761010080835404028352916020019161041c565b820191906000526020600020905b8154815290600101906020018083116103ff57829003601f168201915b50505050508152602001600182018054600181600116156101000203166002900480601f0160208091040260200160405190810160405280929190818152602001828054600181600116156101000203166002900480156104be5780601f10610493576101008083540402835291602001916104be565b820191906000526020600020905b8154815290600101906020018083116104a157829003601f168201915b50505050508152602001600282018054600181600116156101000203166002900480601f0160208091040260200160405190810160405280929190818152602001828054600181600116156101000203166002900480156105605780601f1061053557610100808354040283529160200191610560565b820191906000526020600020905b81548152906001019060200180831161054357829003601f168201915b50505050508152602001600382018054600181600116156101000203166002900480601f0160208091040260200160405190810160405280929190818152602001828054600181600116156101000203166002900480156106025780601f106105d757610100808354040283529160200191610602565b820191906000526020600020905b8154815290600101906020018083116105e557829003601f168201915b50505050508152602001600482018054600181600116156101000203166002900480601f0160208091040260200160405190810160405280929190818152602001828054600181600116156101000203166002900480156106a45780601f10610679576101008083540402835291602001916106a4565b820191906000526020600020905b81548152906001019060200180831161068757829003601f168201915b505050505081525050815250509050809150506107b0565b6106c4610a1c565b60405180608001604052806040518060400160405280600181526020017f300000000000000000000000000000000000000000000000000000000000000081525081526020016040518060200160405280600081525081526020016040518060200160405280600081525081526020016040518060a00160405280604051806020016040528060008152508152602001604051806020016040528060008152508152602001604051806020016040528060008152508152602001604051806020016040528060008152508152602001604051806020016040528060008152508152508152509050809150505b919050565b600360009054906101000a900473ffffffffffffffffffffffffffffffffffffffff1673ffffffffffffffffffffffffffffffffffffffff163373ffffffffffffffffffffffffffffffffffffffff161461080f57600080fd5b8060018260000151604051610824919061101e565b9081526020016040518091039020600082015181600001908051906020019061084e929190610a4b565b50602082015181600101908051906020019061086b929190610a4b565b506040820151816002019080519060200190610888929190610a4b565b5060608201518160030160008201518160000190805190602001906108ae929190610a4b565b5060208201518160010190805190602001906108cb929190610a4b565b5060408201518160020190805190602001906108e8929190610a4b565b506060820151816003019080519060200190610905929190610a4b565b506080820151816004019080519060200190610922929190610a4b565b50505090505060016000826000015160405161093e919061101e565b908152602001604051809103902060006101000a81548160ff02191690831515021790555050565b61096e610acb565b600115156000836040516109829190611035565b908152602001604051809103902060009054906101000a900460ff161515146109aa57600080fd5b6109b2610acb565b6002836040516109c29190611035565b90815260200160405180910390206040518060400160405290816000820160009054906101000a900460ff161515151581526020016000820160019054906101000a900460ff161515151581525050905080915050919050565b604051806101000160405280606081526020016060815260200160608152602001610a45610ae9565b81525090565b828054600181600116156101000203166002900490600052602060002090601f016020900481019282601f10610a8c57805160ff1916838001178555610aba565b82800160010185558215610aba579182015b82811115610ab9578251825591602001919060010190610a9e565b5b509050610ac79190610b18565b5090565b60405180604001604052806000151581526020016000151581525090565b6040518060a0016040528060608152602001606081526020016060815260200160608152602001606081525090565b610b3a91905b80821115610b36576000816000905550600101610b1e565b5090565b90565b600082601f830112610b4e57600080fd5b8135610b61610b5c826110b6565b611089565b91508082526020830160208301858383011115610b7d57600080fd5b610b8883828461114c565b50505092915050565b600082601f830112610ba257600080fd5b8135610bb5610bb0826110e2565b611089565b91508082526020830160208301858383011115610bd157600080fd5b610bdc83828461114c565b50505092915050565b600060a08284031215610bf757600080fd5b610c0160a0611089565b9050600082013567ffffffffffffffff811115610c1d57600080fd5b610c2984828501610b3d565b600083015250602082013567ffffffffffffffff811115610c4957600080fd5b610c5584828501610b3d565b602083015250604082013567ffffffffffffffff811115610c7557600080fd5b610c8184828501610b3d565b604083015250606082013567ffffffffffffffff811115610ca157600080fd5b610cad84828501610b3d565b606083015250608082013567ffffffffffffffff811115610ccd57600080fd5b610cd984828501610b3d565b60808301525092915050565b600060808284031215610cf757600080fd5b610d016080611089565b9050600082013567ffffffffffffffff811115610d1d57600080fd5b610d2984828501610b3d565b600083015250602082013567ffffffffffffffff811115610d4957600080fd5b610d5584828501610b3d565b602083015250604082013567ffffffffffffffff811115610d7557600080fd5b610d8184828501610b3d565b604083015250606082013567ffffffffffffffff811115610da157600080fd5b610dad84828501610be5565b60608301525092915050565b600060208284031215610dcb57600080fd5b600082013567ffffffffffffffff811115610de557600080fd5b610df184828501610b91565b91505092915050565b600060208284031215610e0c57600080fd5b600082013567ffffffffffffffff811115610e2657600080fd5b610e3284828501610ce5565b91505092915050565b610e4481611140565b82525050565b6000610e5582611119565b610e5f8185611135565b9350610e6f81856020860161115b565b80840191505092915050565b6000610e868261110e565b610e908185611124565b9350610ea081856020860161115b565b610ea98161118e565b840191505092915050565b6000610ebf8261110e565b610ec98185611135565b9350610ed981856020860161115b565b80840191505092915050565b600060a0830160008301518482036000860152610f028282610e7b565b91505060208301518482036020860152610f1c8282610e7b565b91505060408301518482036040860152610f368282610e7b565b91505060608301518482036060860152610f508282610e7b565b91505060808301518482036080860152610f6a8282610e7b565b9150508091505092915050565b60006080830160008301518482036000860152610f948282610e7b565b91505060208301518482036020860152610fae8282610e7b565b91505060408301518482036040860152610fc88282610e7b565b91505060608301518482036060860152610fe28282610ee5565b9150508091505092915050565b6040820160008201516110056000850182610e3b565b5060208201516110186020850182610e3b565b50505050565b600061102a8284610eb4565b915081905092915050565b60006110418284610e4a565b915081905092915050565b600060208201905081810360008301526110668184610f77565b905092915050565b60006040820190506110836000830184610fef565b92915050565b6000604051905081810181811067ffffffffffffffff821117156110ac57600080fd5b8060405250919050565b600067ffffffffffffffff8211156110cd57600080fd5b601f19601f8301169050602081019050919050565b600067ffffffffffffffff8211156110f957600080fd5b601f19601f8301169050602081019050919050565b600081519050919050565b600081519050919050565b600082825260208201905092915050565b600081905092915050565b60008115159050919050565b82818337600083830152505050565b60005b8381101561117957808201518184015260208101905061115e565b83811115611188576000848401525b50505050565b6000601f19601f830116905091905056fea265627a7a723058202b2a8a633a3af035b51a0baf3ca29d075a8fe7c9055be98e36e833ad6d3762376c6578706572696d656e74616cf50037",
  "source": "pragma solidity >=0.5.0 <0.6.0;\npragma experimental ABIEncoderV2;\n\ncontract Flyt {\n  struct Flight {\n    string from;\n    string to;\n    string code;\n    string name;\n    string departureTime;\n  }\n\n  struct Policy {\n    string policyId;\n    string owner;\n    string txHash;\n    Flight flight;\n  }\n\n  struct Premium {\n    bool chainlink;\n    bool hasWeather;\n  }\n\n  mapping(string => bool) isPolicy;\n  mapping(string => Policy) policies;\n  mapping(string => Premium) premiums;\n\n  address owner = msg.sender; // set the owner of the contract.\n\n  modifier _ownerOnly() {\n    require(msg.sender == owner);\n    _;\n  }\n\n  // Create a new policy.\n  function createNewPolicy(Policy memory _policy) public _ownerOnly {\n    policies[_policy.policyId] = _policy;\n    isPolicy[_policy.policyId] = true;\n  }\n\n  // Get policy details.\n  function getPolicy(string memory _policyId) public view _ownerOnly returns (Policy memory) {\n    if (isPolicy[_policyId] == true) {\n      // Policy exists.\n      Policy memory _policy = policies[_policyId];\n      return _policy;\n    } else {\n      // Policy doesnt exist.\n      // Return a dummy.\n      Policy memory _policy = Policy('0', '', '', Flight('', '', '', '', ''));\n      return _policy;\n    }\n  }\n\n  // Calculate the policy premium.\n  function getPremium(string memory _policyId) public view returns (Premium memory) {\n    require(isPolicy[_policyId] == true);\n\n    Premium memory _premium = premiums[_policyId];\n\n    // Send the chainlink requests to various oracles if not sent.\n\n    return _premium;\n  }\n\n}\n",
  "sourcePath": "/home/robin/Workspace/flight/truffle/contracts/Flyt.sol",
  "compiler": {
    "name": "solc",
    "version": "0.5.8+commit.23d335f2.Emscripten.clang"
  },
  "schemaVersion": "3.0.16",
  "updatedAt": "2019-10-20T01:59:16.512Z",
  "devdoc": {
    "methods": {}
  },
  "userdoc": {
    "methods": {}
  }
}